{
	"contracts/virtual-pet.sol": {
		"VirtualPet": {
			"abi": [
				{
					"inputs": [],
					"name": "PetAlreadyExists",
					"type": "error"
				},
				{
					"inputs": [],
					"name": "PetDoesNotExist",
					"type": "error"
				},
				{
					"inputs": [],
					"name": "PetIsDead",
					"type": "error"
				},
				{
					"inputs": [],
					"name": "TooSoonToFeed",
					"type": "error"
				},
				{
					"anonymous": false,
					"inputs": [
						{
							"indexed": false,
							"internalType": "address",
							"name": "owner",
							"type": "address"
						},
						{
							"indexed": false,
							"internalType": "string",
							"name": "name",
							"type": "string"
						}
					],
					"name": "PetCreated",
					"type": "event"
				},
				{
					"anonymous": false,
					"inputs": [
						{
							"indexed": false,
							"internalType": "address",
							"name": "owner",
							"type": "address"
						},
						{
							"indexed": false,
							"internalType": "string",
							"name": "name",
							"type": "string"
						}
					],
					"name": "PetDied",
					"type": "event"
				},
				{
					"anonymous": false,
					"inputs": [
						{
							"indexed": false,
							"internalType": "address",
							"name": "owner",
							"type": "address"
						},
						{
							"indexed": false,
							"internalType": "uint8",
							"name": "newHunger",
							"type": "uint8"
						}
					],
					"name": "PetFed",
					"type": "event"
				},
				{
					"anonymous": false,
					"inputs": [
						{
							"indexed": false,
							"internalType": "address",
							"name": "owner",
							"type": "address"
						},
						{
							"indexed": false,
							"internalType": "uint8",
							"name": "newLevel",
							"type": "uint8"
						}
					],
					"name": "PetLevelUp",
					"type": "event"
				},
				{
					"inputs": [],
					"name": "checkPet",
					"outputs": [],
					"stateMutability": "nonpayable",
					"type": "function"
				},
				{
					"inputs": [
						{
							"internalType": "string",
							"name": "_name",
							"type": "string"
						}
					],
					"name": "createPet",
					"outputs": [],
					"stateMutability": "nonpayable",
					"type": "function"
				},
				{
					"inputs": [],
					"name": "feedPet",
					"outputs": [],
					"stateMutability": "nonpayable",
					"type": "function"
				},
				{
					"inputs": [],
					"name": "getPetInfo",
					"outputs": [
						{
							"internalType": "string",
							"name": "name",
							"type": "string"
						},
						{
							"internalType": "uint8",
							"name": "hunger",
							"type": "uint8"
						},
						{
							"internalType": "uint8",
							"name": "happiness",
							"type": "uint8"
						},
						{
							"internalType": "uint16",
							"name": "experience",
							"type": "uint16"
						},
						{
							"internalType": "uint8",
							"name": "level",
							"type": "uint8"
						},
						{
							"internalType": "bool",
							"name": "isAlive",
							"type": "bool"
						}
					],
					"stateMutability": "view",
					"type": "function"
				},
				{
					"inputs": [
						{
							"internalType": "address",
							"name": "",
							"type": "address"
						}
					],
					"name": "pets",
					"outputs": [
						{
							"internalType": "string",
							"name": "name",
							"type": "string"
						},
						{
							"internalType": "uint8",
							"name": "hunger",
							"type": "uint8"
						},
						{
							"internalType": "uint8",
							"name": "happiness",
							"type": "uint8"
						},
						{
							"internalType": "uint16",
							"name": "experience",
							"type": "uint16"
						},
						{
							"internalType": "uint8",
							"name": "level",
							"type": "uint8"
						},
						{
							"internalType": "uint256",
							"name": "lastFed",
							"type": "uint256"
						},
						{
							"internalType": "bool",
							"name": "isAlive",
							"type": "bool"
						}
					],
					"stateMutability": "view",
					"type": "function"
				}
			],
			"devdoc": {
				"kind": "dev",
				"methods": {},
				"version": 1
			},
			"evm": {
				"assembly": "    /* \"contracts/virtual-pet.sol\":57:3623  contract VirtualPet {... */\n  mstore(0x40, 0x80)\n  callvalue\n  dup1\n  iszero\n  tag_1\n  jumpi\n  0x00\n  dup1\n  revert\ntag_1:\n  pop\n  dataSize(sub_0)\n  dup1\n  dataOffset(sub_0)\n  0x00\n  codecopy\n  0x00\n  return\nstop\n\nsub_0: assembly {\n        /* \"contracts/virtual-pet.sol\":57:3623  contract VirtualPet {... */\n      mstore(0x40, 0x80)\n      callvalue\n      dup1\n      iszero\n      tag_1\n      jumpi\n      0x00\n      dup1\n      revert\n    tag_1:\n      pop\n      jumpi(tag_2, lt(calldatasize, 0x04))\n      shr(0xe0, calldataload(0x00))\n      dup1\n      0x088f0fb9\n      eq\n      tag_3\n      jumpi\n      dup1\n      0x46cbfc3a\n      eq\n      tag_4\n      jumpi\n      dup1\n      0x77d6fc43\n      eq\n      tag_5\n      jumpi\n      dup1\n      0xa2e42437\n      eq\n      tag_6\n      jumpi\n      dup1\n      0xd3816bac\n      eq\n      tag_7\n      jumpi\n    tag_2:\n      0x00\n      dup1\n      revert\n        /* \"contracts/virtual-pet.sol\":558:593  mapping(address => Pet) public pets */\n    tag_3:\n      tag_8\n      0x04\n      dup1\n      calldatasize\n      sub\n      dup2\n      add\n      swap1\n      tag_9\n      swap2\n      swap1\n      tag_10\n      jump\t// in\n    tag_9:\n      tag_11\n      jump\t// in\n    tag_8:\n      mload(0x40)\n      tag_12\n      swap8\n      swap7\n      swap6\n      swap5\n      swap4\n      swap3\n      swap2\n      swap1\n      tag_13\n      jump\t// in\n    tag_12:\n      mload(0x40)\n      dup1\n      swap2\n      sub\n      swap1\n      return\n        /* \"contracts/virtual-pet.sol\":3201:3621  function getPetInfo() public view returns (... */\n    tag_4:\n      tag_14\n      tag_15\n      jump\t// in\n    tag_14:\n      mload(0x40)\n      tag_16\n      swap7\n      swap6\n      swap5\n      swap4\n      swap3\n      swap2\n      swap1\n      tag_17\n      jump\t// in\n    tag_16:\n      mload(0x40)\n      dup1\n      swap2\n      sub\n      swap1\n      return\n        /* \"contracts/virtual-pet.sol\":1444:2267  function feedPet() public {... */\n    tag_5:\n      tag_18\n      tag_19\n      jump\t// in\n    tag_18:\n      stop\n        /* \"contracts/virtual-pet.sol\":2310:3151  function checkPet() public {... */\n    tag_6:\n      tag_20\n      tag_21\n      jump\t// in\n    tag_20:\n      stop\n        /* \"contracts/virtual-pet.sol\":991:1414  function createPet(string memory _name) public {... */\n    tag_7:\n      tag_22\n      0x04\n      dup1\n      calldatasize\n      sub\n      dup2\n      add\n      swap1\n      tag_23\n      swap2\n      swap1\n      tag_24\n      jump\t// in\n    tag_23:\n      tag_25\n      jump\t// in\n    tag_22:\n      stop\n        /* \"contracts/virtual-pet.sol\":558:593  mapping(address => Pet) public pets */\n    tag_11:\n      mstore(0x20, 0x00)\n      dup1\n      0x00\n      mstore\n      keccak256(0x00, 0x40)\n      0x00\n      swap2\n      pop\n      swap1\n      pop\n      dup1\n      0x00\n      add\n      dup1\n      sload\n      tag_26\n      swap1\n      tag_27\n      jump\t// in\n    tag_26:\n      dup1\n      0x1f\n      add\n      0x20\n      dup1\n      swap2\n      div\n      mul\n      0x20\n      add\n      mload(0x40)\n      swap1\n      dup2\n      add\n      0x40\n      mstore\n      dup1\n      swap3\n      swap2\n      swap1\n      dup2\n      dup2\n      mstore\n      0x20\n      add\n      dup3\n      dup1\n      sload\n      tag_28\n      swap1\n      tag_27\n      jump\t// in\n    tag_28:\n      dup1\n      iszero\n      tag_29\n      jumpi\n      dup1\n      0x1f\n      lt\n      tag_30\n      jumpi\n      0x0100\n      dup1\n      dup4\n      sload\n      div\n      mul\n      dup4\n      mstore\n      swap2\n      0x20\n      add\n      swap2\n      jump(tag_29)\n    tag_30:\n      dup3\n      add\n      swap2\n      swap1\n      0x00\n      mstore\n      keccak256(0x00, 0x20)\n      swap1\n    tag_31:\n      dup2\n      sload\n      dup2\n      mstore\n      swap1\n      0x01\n      add\n      swap1\n      0x20\n      add\n      dup1\n      dup4\n      gt\n      tag_31\n      jumpi\n      dup3\n      swap1\n      sub\n      0x1f\n      and\n      dup3\n      add\n      swap2\n    tag_29:\n      pop\n      pop\n      pop\n      pop\n      pop\n      swap1\n      dup1\n      0x01\n      add\n      0x00\n      swap1\n      sload\n      swap1\n      0x0100\n      exp\n      swap1\n      div\n      0xff\n      and\n      swap1\n      dup1\n      0x01\n      add\n      0x01\n      swap1\n      sload\n      swap1\n      0x0100\n      exp\n      swap1\n      div\n      0xff\n      and\n      swap1\n      dup1\n      0x01\n      add\n      0x02\n      swap1\n      sload\n      swap1\n      0x0100\n      exp\n      swap1\n      div\n      0xffff\n      and\n      swap1\n      dup1\n      0x01\n      add\n      0x04\n      swap1\n      sload\n      swap1\n      0x0100\n      exp\n      swap1\n      div\n      0xff\n      and\n      swap1\n      dup1\n      0x02\n      add\n      sload\n      swap1\n      dup1\n      0x03\n      add\n      0x00\n      swap1\n      sload\n      swap1\n      0x0100\n      exp\n      swap1\n      div\n      0xff\n      and\n      swap1\n      pop\n      dup8\n      jump\t// out\n        /* \"contracts/virtual-pet.sol\":3201:3621  function getPetInfo() public view returns (... */\n    tag_15:\n        /* \"contracts/virtual-pet.sol\":3253:3271  string memory name */\n      0x60\n        /* \"contracts/virtual-pet.sol\":3281:3293  uint8 hunger */\n      0x00\n        /* \"contracts/virtual-pet.sol\":3303:3318  uint8 happiness */\n      dup1\n        /* \"contracts/virtual-pet.sol\":3328:3345  uint16 experience */\n      0x00\n        /* \"contracts/virtual-pet.sol\":3355:3366  uint8 level */\n      dup1\n        /* \"contracts/virtual-pet.sol\":3376:3388  bool isAlive */\n      0x00\n        /* \"contracts/virtual-pet.sol\":3405:3419  Pet memory pet */\n      dup1\n        /* \"contracts/virtual-pet.sol\":3422:3426  pets */\n      0x00\n        /* \"contracts/virtual-pet.sol\":3422:3438  pets[msg.sender] */\n      dup1\n        /* \"contracts/virtual-pet.sol\":3427:3437  msg.sender */\n      caller\n        /* \"contracts/virtual-pet.sol\":3422:3438  pets[msg.sender] */\n      0xffffffffffffffffffffffffffffffffffffffff\n      and\n      0xffffffffffffffffffffffffffffffffffffffff\n      and\n      dup2\n      mstore\n      0x20\n      add\n      swap1\n      dup2\n      mstore\n      0x20\n      add\n      0x00\n      keccak256\n        /* \"contracts/virtual-pet.sol\":3405:3438  Pet memory pet = pets[msg.sender] */\n      mload(0x40)\n      dup1\n      0xe0\n      add\n      0x40\n      mstore\n      swap1\n      dup2\n      0x00\n      dup3\n      add\n      dup1\n      sload\n      tag_33\n      swap1\n      tag_27\n      jump\t// in\n    tag_33:\n      dup1\n      0x1f\n      add\n      0x20\n      dup1\n      swap2\n      div\n      mul\n      0x20\n      add\n      mload(0x40)\n      swap1\n      dup2\n      add\n      0x40\n      mstore\n      dup1\n      swap3\n      swap2\n      swap1\n      dup2\n      dup2\n      mstore\n      0x20\n      add\n      dup3\n      dup1\n      sload\n      tag_34\n      swap1\n      tag_27\n      jump\t// in\n    tag_34:\n      dup1\n      iszero\n      tag_35\n      jumpi\n      dup1\n      0x1f\n      lt\n      tag_36\n      jumpi\n      0x0100\n      dup1\n      dup4\n      sload\n      div\n      mul\n      dup4\n      mstore\n      swap2\n      0x20\n      add\n      swap2\n      jump(tag_35)\n    tag_36:\n      dup3\n      add\n      swap2\n      swap1\n      0x00\n      mstore\n      keccak256(0x00, 0x20)\n      swap1\n    tag_37:\n      dup2\n      sload\n      dup2\n      mstore\n      swap1\n      0x01\n      add\n      swap1\n      0x20\n      add\n      dup1\n      dup4\n      gt\n      tag_37\n      jumpi\n      dup3\n      swap1\n      sub\n      0x1f\n      and\n      dup3\n      add\n      swap2\n    tag_35:\n      pop\n      pop\n      pop\n      pop\n      pop\n      dup2\n      mstore\n      0x20\n      add\n      0x01\n      dup3\n      add\n      0x00\n      swap1\n      sload\n      swap1\n      0x0100\n      exp\n      swap1\n      div\n      0xff\n      and\n      0xff\n      and\n      0xff\n      and\n      dup2\n      mstore\n      0x20\n      add\n      0x01\n      dup3\n      add\n      0x01\n      swap1\n      sload\n      swap1\n      0x0100\n      exp\n      swap1\n      div\n      0xff\n      and\n      0xff\n      and\n      0xff\n      and\n      dup2\n      mstore\n      0x20\n      add\n      0x01\n      dup3\n      add\n      0x02\n      swap1\n      sload\n      swap1\n      0x0100\n      exp\n      swap1\n      div\n      0xffff\n      and\n      0xffff\n      and\n      0xffff\n      and\n      dup2\n      mstore\n      0x20\n      add\n      0x01\n      dup3\n      add\n      0x04\n      swap1\n      sload\n      swap1\n      0x0100\n      exp\n      swap1\n      div\n      0xff\n      and\n      0xff\n      and\n      0xff\n      and\n      dup2\n      mstore\n      0x20\n      add\n      0x02\n      dup3\n      add\n      sload\n      dup2\n      mstore\n      0x20\n      add\n      0x03\n      dup3\n      add\n      0x00\n      swap1\n      sload\n      swap1\n      0x0100\n      exp\n      swap1\n      div\n      0xff\n      and\n      iszero\n      iszero\n      iszero\n      iszero\n      dup2\n      mstore\n      pop\n      pop\n      swap1\n      pop\n        /* \"contracts/virtual-pet.sol\":3469:3472  pet */\n      dup1\n        /* \"contracts/virtual-pet.sol\":3469:3477  pet.name */\n      0x00\n      add\n      mload\n        /* \"contracts/virtual-pet.sol\":3491:3494  pet */\n      dup2\n        /* \"contracts/virtual-pet.sol\":3491:3501  pet.hunger */\n      0x20\n      add\n      mload\n        /* \"contracts/virtual-pet.sol\":3515:3518  pet */\n      dup3\n        /* \"contracts/virtual-pet.sol\":3515:3528  pet.happiness */\n      0x40\n      add\n      mload\n        /* \"contracts/virtual-pet.sol\":3542:3545  pet */\n      dup4\n        /* \"contracts/virtual-pet.sol\":3542:3556  pet.experience */\n      0x60\n      add\n      mload\n        /* \"contracts/virtual-pet.sol\":3570:3573  pet */\n      dup5\n        /* \"contracts/virtual-pet.sol\":3570:3579  pet.level */\n      0x80\n      add\n      mload\n        /* \"contracts/virtual-pet.sol\":3593:3596  pet */\n      dup6\n        /* \"contracts/virtual-pet.sol\":3593:3604  pet.isAlive */\n      0xc0\n      add\n      mload\n        /* \"contracts/virtual-pet.sol\":3448:3614  return (... */\n      swap7\n      pop\n      swap7\n      pop\n      swap7\n      pop\n      swap7\n      pop\n      swap7\n      pop\n      swap7\n      pop\n      pop\n        /* \"contracts/virtual-pet.sol\":3201:3621  function getPetInfo() public view returns (... */\n      swap1\n      swap2\n      swap3\n      swap4\n      swap5\n      swap6\n      jump\t// out\n        /* \"contracts/virtual-pet.sol\":1444:2267  function feedPet() public {... */\n    tag_19:\n        /* \"contracts/virtual-pet.sol\":1480:1495  Pet storage pet */\n      0x00\n        /* \"contracts/virtual-pet.sol\":1498:1502  pets */\n      dup1\n        /* \"contracts/virtual-pet.sol\":1498:1514  pets[msg.sender] */\n      0x00\n        /* \"contracts/virtual-pet.sol\":1503:1513  msg.sender */\n      caller\n        /* \"contracts/virtual-pet.sol\":1498:1514  pets[msg.sender] */\n      0xffffffffffffffffffffffffffffffffffffffff\n      and\n      0xffffffffffffffffffffffffffffffffffffffff\n      and\n      dup2\n      mstore\n      0x20\n      add\n      swap1\n      dup2\n      mstore\n      0x20\n      add\n      0x00\n      keccak256\n        /* \"contracts/virtual-pet.sol\":1480:1514  Pet storage pet = pets[msg.sender] */\n      swap1\n      pop\n        /* \"contracts/virtual-pet.sol\":1537:1540  pet */\n      dup1\n        /* \"contracts/virtual-pet.sol\":1537:1548  pet.isAlive */\n      0x03\n      add\n      0x00\n      swap1\n      sload\n      swap1\n      0x0100\n      exp\n      swap1\n      div\n      0xff\n      and\n        /* \"contracts/virtual-pet.sol\":1533:1593  if(!pet.isAlive) {... */\n      tag_39\n      jumpi\n        /* \"contracts/virtual-pet.sol\":1571:1582  PetIsDead() */\n      mload(0x40)\n      0x5dbaefb700000000000000000000000000000000000000000000000000000000\n      dup2\n      mstore\n      0x04\n      add\n      mload(0x40)\n      dup1\n      swap2\n      sub\n      swap1\n      revert\n        /* \"contracts/virtual-pet.sol\":1533:1593  if(!pet.isAlive) {... */\n    tag_39:\n        /* \"contracts/virtual-pet.sol\":1638:1645  1 hours */\n      0x0e10\n        /* \"contracts/virtual-pet.sol\":1624:1627  pet */\n      dup2\n        /* \"contracts/virtual-pet.sol\":1624:1635  pet.lastFed */\n      0x02\n      add\n      sload\n        /* \"contracts/virtual-pet.sol\":1606:1621  block.timestamp */\n      timestamp\n        /* \"contracts/virtual-pet.sol\":1606:1635  block.timestamp - pet.lastFed */\n      tag_40\n      swap2\n      swap1\n      tag_41\n      jump\t// in\n    tag_40:\n        /* \"contracts/virtual-pet.sol\":1606:1645  block.timestamp - pet.lastFed < 1 hours */\n      lt\n        /* \"contracts/virtual-pet.sol\":1603:1694  if(block.timestamp - pet.lastFed < 1 hours) {... */\n      iszero\n      tag_42\n      jumpi\n        /* \"contracts/virtual-pet.sol\":1668:1683  TooSoonToFeed() */\n      mload(0x40)\n      0xf95998e700000000000000000000000000000000000000000000000000000000\n      dup2\n      mstore\n      0x04\n      add\n      mload(0x40)\n      dup1\n      swap2\n      sub\n      swap1\n      revert\n        /* \"contracts/virtual-pet.sol\":1603:1694  if(block.timestamp - pet.lastFed < 1 hours) {... */\n    tag_42:\n        /* \"contracts/virtual-pet.sol\":1756:1758  10 */\n      0x0a\n        /* \"contracts/virtual-pet.sol\":1742:1745  pet */\n      dup2\n        /* \"contracts/virtual-pet.sol\":1742:1752  pet.hunger */\n      0x01\n      add\n      0x00\n      swap1\n      sload\n      swap1\n      0x0100\n      exp\n      swap1\n      div\n      0xff\n      and\n        /* \"contracts/virtual-pet.sol\":1742:1758  pet.hunger >= 10 */\n      0xff\n      and\n      lt\n        /* \"contracts/virtual-pet.sol\":1739:1846  if(pet.hunger >= 10) {... */\n      tag_43\n      jumpi\n        /* \"contracts/virtual-pet.sol\":1788:1790  10 */\n      0x0a\n        /* \"contracts/virtual-pet.sol\":1774:1777  pet */\n      dup2\n        /* \"contracts/virtual-pet.sol\":1774:1784  pet.hunger */\n      0x01\n      add\n      0x00\n        /* \"contracts/virtual-pet.sol\":1774:1790  pet.hunger -= 10 */\n      dup3\n      dup3\n      dup3\n      swap1\n      sload\n      swap1\n      0x0100\n      exp\n      swap1\n      div\n      0xff\n      and\n      tag_44\n      swap2\n      swap1\n      tag_45\n      jump\t// in\n    tag_44:\n      swap3\n      pop\n      0x0100\n      exp\n      dup2\n      sload\n      dup2\n      0xff\n      mul\n      not\n      and\n      swap1\n      dup4\n      0xff\n      and\n      mul\n      or\n      swap1\n      sstore\n      pop\n        /* \"contracts/virtual-pet.sol\":1739:1846  if(pet.hunger >= 10) {... */\n      jump(tag_46)\n    tag_43:\n        /* \"contracts/virtual-pet.sol\":1834:1835  0 */\n      0x00\n        /* \"contracts/virtual-pet.sol\":1821:1824  pet */\n      dup2\n        /* \"contracts/virtual-pet.sol\":1821:1831  pet.hunger */\n      0x01\n      add\n      0x00\n        /* \"contracts/virtual-pet.sol\":1821:1835  pet.hunger = 0 */\n      0x0100\n      exp\n      dup2\n      sload\n      dup2\n      0xff\n      mul\n      not\n      and\n      swap1\n      dup4\n      0xff\n      and\n      mul\n      or\n      swap1\n      sstore\n      pop\n        /* \"contracts/virtual-pet.sol\":1739:1846  if(pet.hunger >= 10) {... */\n    tag_46:\n        /* \"contracts/virtual-pet.sol\":1904:1906  10 */\n      0x0a\n        /* \"contracts/virtual-pet.sol\":1886:1889  pet */\n      dup2\n        /* \"contracts/virtual-pet.sol\":1886:1900  pet.experience */\n      0x01\n      add\n      0x02\n        /* \"contracts/virtual-pet.sol\":1886:1906  pet.experience += 10 */\n      dup3\n      dup3\n      dup3\n      swap1\n      sload\n      swap1\n      0x0100\n      exp\n      swap1\n      div\n      0xffff\n      and\n      tag_47\n      swap2\n      swap1\n      tag_48\n      jump\t// in\n    tag_47:\n      swap3\n      pop\n      0x0100\n      exp\n      dup2\n      sload\n      dup2\n      0xffff\n      mul\n      not\n      and\n      swap1\n      dup4\n      0xffff\n      and\n      mul\n      or\n      swap1\n      sstore\n      pop\n        /* \"contracts/virtual-pet.sol\":1993:1996  100 */\n      0x64\n        /* \"contracts/virtual-pet.sol\":1981:1984  pet */\n      dup2\n        /* \"contracts/virtual-pet.sol\":1981:1990  pet.level */\n      0x01\n      add\n      0x04\n      swap1\n      sload\n      swap1\n      0x0100\n      exp\n      swap1\n      div\n      0xff\n      and\n        /* \"contracts/virtual-pet.sol\":1981:1996  pet.level * 100 */\n      tag_49\n      swap2\n      swap1\n      tag_50\n      jump\t// in\n    tag_49:\n        /* \"contracts/virtual-pet.sol\":1963:1996  pet.experience >= pet.level * 100 */\n      0xff\n      and\n        /* \"contracts/virtual-pet.sol\":1963:1966  pet */\n      dup2\n        /* \"contracts/virtual-pet.sol\":1963:1977  pet.experience */\n      0x01\n      add\n      0x02\n      swap1\n      sload\n      swap1\n      0x0100\n      exp\n      swap1\n      div\n      0xffff\n      and\n        /* \"contracts/virtual-pet.sol\":1963:1996  pet.experience >= pet.level * 100 */\n      0xffff\n      and\n      lt\n        /* \"contracts/virtual-pet.sol\":1960:2176  if(pet.experience >= pet.level * 100) {... */\n      tag_51\n      jumpi\n        /* \"contracts/virtual-pet.sol\":2012:2015  pet */\n      dup1\n        /* \"contracts/virtual-pet.sol\":2012:2021  pet.level */\n      0x01\n      add\n      0x04\n        /* \"contracts/virtual-pet.sol\":2012:2023  pet.level++ */\n      dup2\n      dup2\n      swap1\n      sload\n      swap1\n      0x0100\n      exp\n      swap1\n      div\n      0xff\n      and\n      dup1\n      swap3\n      swap2\n      swap1\n      tag_52\n      swap1\n      tag_53\n      jump\t// in\n    tag_52:\n      swap2\n      swap1\n      0x0100\n      exp\n      dup2\n      sload\n      dup2\n      0xff\n      mul\n      not\n      and\n      swap1\n      dup4\n      0xff\n      and\n      mul\n      or\n      swap1\n      sstore\n      pop\n      pop\n        /* \"contracts/virtual-pet.sol\":2054:2056  10 */\n      0x0a\n        /* \"contracts/virtual-pet.sol\":2037:2040  pet */\n      dup2\n        /* \"contracts/virtual-pet.sol\":2037:2050  pet.happiness */\n      0x01\n      add\n      0x01\n        /* \"contracts/virtual-pet.sol\":2037:2056  pet.happiness += 10 */\n      dup3\n      dup3\n      dup3\n      swap1\n      sload\n      swap1\n      0x0100\n      exp\n      swap1\n      div\n      0xff\n      and\n      tag_54\n      swap2\n      swap1\n      tag_55\n      jump\t// in\n    tag_54:\n      swap3\n      pop\n      0x0100\n      exp\n      dup2\n      sload\n      dup2\n      0xff\n      mul\n      not\n      and\n      swap1\n      dup4\n      0xff\n      and\n      mul\n      or\n      swap1\n      sstore\n      pop\n        /* \"contracts/virtual-pet.sol\":2089:2092  100 */\n      0x64\n        /* \"contracts/virtual-pet.sol\":2073:2076  pet */\n      dup2\n        /* \"contracts/virtual-pet.sol\":2073:2086  pet.happiness */\n      0x01\n      add\n      0x01\n      swap1\n      sload\n      swap1\n      0x0100\n      exp\n      swap1\n      div\n      0xff\n      and\n        /* \"contracts/virtual-pet.sol\":2073:2092  pet.happiness > 100 */\n      0xff\n      and\n      gt\n        /* \"contracts/virtual-pet.sol\":2070:2113  if(pet.happiness > 100) pet.happiness = 100 */\n      iszero\n      tag_56\n      jumpi\n        /* \"contracts/virtual-pet.sol\":2110:2113  100 */\n      0x64\n        /* \"contracts/virtual-pet.sol\":2094:2097  pet */\n      dup2\n        /* \"contracts/virtual-pet.sol\":2094:2107  pet.happiness */\n      0x01\n      add\n      0x01\n        /* \"contracts/virtual-pet.sol\":2094:2113  pet.happiness = 100 */\n      0x0100\n      exp\n      dup2\n      sload\n      dup2\n      0xff\n      mul\n      not\n      and\n      swap1\n      dup4\n      0xff\n      and\n      mul\n      or\n      swap1\n      sstore\n      pop\n        /* \"contracts/virtual-pet.sol\":2070:2113  if(pet.happiness > 100) pet.happiness = 100 */\n    tag_56:\n        /* \"contracts/virtual-pet.sol\":2132:2165  PetLevelUp(msg.sender, pet.level) */\n      0x95c4d5633ea0fc1354b860fe62e117356b617ec5bc5d49b9851e5cfe9d2753b2\n        /* \"contracts/virtual-pet.sol\":2143:2153  msg.sender */\n      caller\n        /* \"contracts/virtual-pet.sol\":2155:2158  pet */\n      dup3\n        /* \"contracts/virtual-pet.sol\":2155:2164  pet.level */\n      0x01\n      add\n      0x04\n      swap1\n      sload\n      swap1\n      0x0100\n      exp\n      swap1\n      div\n      0xff\n      and\n        /* \"contracts/virtual-pet.sol\":2132:2165  PetLevelUp(msg.sender, pet.level) */\n      mload(0x40)\n      tag_57\n      swap3\n      swap2\n      swap1\n      tag_58\n      jump\t// in\n    tag_57:\n      mload(0x40)\n      dup1\n      swap2\n      sub\n      swap1\n      log1\n        /* \"contracts/virtual-pet.sol\":1960:2176  if(pet.experience >= pet.level * 100) {... */\n    tag_51:\n        /* \"contracts/virtual-pet.sol\":2200:2215  block.timestamp */\n      timestamp\n        /* \"contracts/virtual-pet.sol\":2186:2189  pet */\n      dup2\n        /* \"contracts/virtual-pet.sol\":2186:2197  pet.lastFed */\n      0x02\n      add\n        /* \"contracts/virtual-pet.sol\":2186:2215  pet.lastFed = block.timestamp */\n      dup2\n      swap1\n      sstore\n      pop\n        /* \"contracts/virtual-pet.sol\":2230:2260  PetFed(msg.sender, pet.hunger) */\n      0x16f96e6e626315dd7c6ff834adde15ed7ba6fbf5843506c5ae3a23195e8f0066\n        /* \"contracts/virtual-pet.sol\":2237:2247  msg.sender */\n      caller\n        /* \"contracts/virtual-pet.sol\":2249:2252  pet */\n      dup3\n        /* \"contracts/virtual-pet.sol\":2249:2259  pet.hunger */\n      0x01\n      add\n      0x00\n      swap1\n      sload\n      swap1\n      0x0100\n      exp\n      swap1\n      div\n      0xff\n      and\n        /* \"contracts/virtual-pet.sol\":2230:2260  PetFed(msg.sender, pet.hunger) */\n      mload(0x40)\n      tag_59\n      swap3\n      swap2\n      swap1\n      tag_58\n      jump\t// in\n    tag_59:\n      mload(0x40)\n      dup1\n      swap2\n      sub\n      swap1\n      log1\n        /* \"contracts/virtual-pet.sol\":1470:2267  {... */\n      pop\n        /* \"contracts/virtual-pet.sol\":1444:2267  function feedPet() public {... */\n      jump\t// out\n        /* \"contracts/virtual-pet.sol\":2310:3151  function checkPet() public {... */\n    tag_21:\n        /* \"contracts/virtual-pet.sol\":2347:2362  Pet storage pet */\n      0x00\n        /* \"contracts/virtual-pet.sol\":2365:2369  pets */\n      dup1\n        /* \"contracts/virtual-pet.sol\":2365:2381  pets[msg.sender] */\n      0x00\n        /* \"contracts/virtual-pet.sol\":2370:2380  msg.sender */\n      caller\n        /* \"contracts/virtual-pet.sol\":2365:2381  pets[msg.sender] */\n      0xffffffffffffffffffffffffffffffffffffffff\n      and\n      0xffffffffffffffffffffffffffffffffffffffff\n      and\n      dup2\n      mstore\n      0x20\n      add\n      swap1\n      dup2\n      mstore\n      0x20\n      add\n      0x00\n      keccak256\n        /* \"contracts/virtual-pet.sol\":2347:2381  Pet storage pet = pets[msg.sender] */\n      swap1\n      pop\n        /* \"contracts/virtual-pet.sol\":2404:2407  pet */\n      dup1\n        /* \"contracts/virtual-pet.sol\":2404:2415  pet.isAlive */\n      0x03\n      add\n      0x00\n      swap1\n      sload\n      swap1\n      0x0100\n      exp\n      swap1\n      div\n      0xff\n      and\n        /* \"contracts/virtual-pet.sol\":2400:2466  if(!pet.isAlive) {... */\n      tag_61\n      jumpi\n        /* \"contracts/virtual-pet.sol\":2438:2455  PetDoesNotExist() */\n      mload(0x40)\n      0xda43d7f400000000000000000000000000000000000000000000000000000000\n      dup2\n      mstore\n      0x04\n      add\n      mload(0x40)\n      dup1\n      swap2\n      sub\n      swap1\n      revert\n        /* \"contracts/virtual-pet.sol\":2400:2466  if(!pet.isAlive) {... */\n    tag_61:\n        /* \"contracts/virtual-pet.sol\":2580:2586  3 days */\n      0x03f480\n        /* \"contracts/virtual-pet.sol\":2566:2569  pet */\n      dup2\n        /* \"contracts/virtual-pet.sol\":2566:2577  pet.lastFed */\n      0x02\n      add\n      sload\n        /* \"contracts/virtual-pet.sol\":2548:2563  block.timestamp */\n      timestamp\n        /* \"contracts/virtual-pet.sol\":2548:2577  block.timestamp - pet.lastFed */\n      tag_62\n      swap2\n      swap1\n      tag_41\n      jump\t// in\n    tag_62:\n        /* \"contracts/virtual-pet.sol\":2548:2586  block.timestamp - pet.lastFed > 3 days */\n      gt\n        /* \"contracts/virtual-pet.sol\":2545:2680  if(block.timestamp - pet.lastFed > 3 days) {... */\n      iszero\n      tag_63\n      jumpi\n        /* \"contracts/virtual-pet.sol\":2616:2621  false */\n      0x00\n        /* \"contracts/virtual-pet.sol\":2602:2605  pet */\n      dup2\n        /* \"contracts/virtual-pet.sol\":2602:2613  pet.isAlive */\n      0x03\n      add\n      0x00\n        /* \"contracts/virtual-pet.sol\":2602:2621  pet.isAlive = false */\n      0x0100\n      exp\n      dup2\n      sload\n      dup2\n      0xff\n      mul\n      not\n      and\n      swap1\n      dup4\n      iszero\n      iszero\n      mul\n      or\n      swap1\n      sstore\n      pop\n        /* \"contracts/virtual-pet.sol\":2640:2669  PetDied(msg.sender, pet.name) */\n      0xe9c07b99abcebf283e1ba71a30e67021390736982ef6ee03ffdd7ac4364d9285\n        /* \"contracts/virtual-pet.sol\":2648:2658  msg.sender */\n      caller\n        /* \"contracts/virtual-pet.sol\":2660:2663  pet */\n      dup3\n        /* \"contracts/virtual-pet.sol\":2660:2668  pet.name */\n      0x00\n      add\n        /* \"contracts/virtual-pet.sol\":2640:2669  PetDied(msg.sender, pet.name) */\n      mload(0x40)\n      tag_64\n      swap3\n      swap2\n      swap1\n      tag_65\n      jump\t// in\n    tag_64:\n      mload(0x40)\n      dup1\n      swap2\n      sub\n      swap1\n      log1\n        /* \"contracts/virtual-pet.sol\":2545:2680  if(block.timestamp - pet.lastFed > 3 days) {... */\n    tag_63:\n        /* \"contracts/virtual-pet.sol\":2740:2755  uint timePassed */\n      0x00\n        /* \"contracts/virtual-pet.sol\":2792:2799  1 hours */\n      0x0e10\n        /* \"contracts/virtual-pet.sol\":2777:2780  pet */\n      dup3\n        /* \"contracts/virtual-pet.sol\":2777:2788  pet.lastFed */\n      0x02\n      add\n      sload\n        /* \"contracts/virtual-pet.sol\":2759:2774  block.timestamp */\n      timestamp\n        /* \"contracts/virtual-pet.sol\":2759:2788  block.timestamp - pet.lastFed */\n      tag_66\n      swap2\n      swap1\n      tag_41\n      jump\t// in\n    tag_66:\n        /* \"contracts/virtual-pet.sol\":2758:2799  (block.timestamp - pet.lastFed) / 1 hours */\n      tag_67\n      swap2\n      swap1\n      tag_68\n      jump\t// in\n    tag_67:\n        /* \"contracts/virtual-pet.sol\":2740:2799  uint timePassed = (block.timestamp - pet.lastFed) / 1 hours */\n      swap1\n      pop\n        /* \"contracts/virtual-pet.sol\":2825:2826  0 */\n      0x00\n        /* \"contracts/virtual-pet.sol\":2812:2822  timePassed */\n      dup2\n        /* \"contracts/virtual-pet.sol\":2812:2826  timePassed > 0 */\n      gt\n        /* \"contracts/virtual-pet.sol\":2809:3145  if(timePassed > 0) {... */\n      iszero\n      tag_69\n      jumpi\n        /* \"contracts/virtual-pet.sol\":2875:2876  2 */\n      0x02\n        /* \"contracts/virtual-pet.sol\":2862:2872  timePassed */\n      dup2\n        /* \"contracts/virtual-pet.sol\":2862:2876  timePassed * 2 */\n      tag_70\n      swap2\n      swap1\n      tag_71\n      jump\t// in\n    tag_70:\n        /* \"contracts/virtual-pet.sol\":2842:2845  pet */\n      dup3\n        /* \"contracts/virtual-pet.sol\":2842:2852  pet.hunger */\n      0x01\n      add\n      0x00\n        /* \"contracts/virtual-pet.sol\":2842:2877  pet.hunger += uint8(timePassed * 2) */\n      dup3\n      dup3\n      dup3\n      swap1\n      sload\n      swap1\n      0x0100\n      exp\n      swap1\n      div\n      0xff\n      and\n      tag_72\n      swap2\n      swap1\n      tag_55\n      jump\t// in\n    tag_72:\n      swap3\n      pop\n      0x0100\n      exp\n      dup2\n      sload\n      dup2\n      0xff\n      mul\n      not\n      and\n      swap1\n      dup4\n      0xff\n      and\n      mul\n      or\n      swap1\n      sstore\n      pop\n        /* \"contracts/virtual-pet.sol\":2907:2910  100 */\n      0x64\n        /* \"contracts/virtual-pet.sol\":2894:2897  pet */\n      dup3\n        /* \"contracts/virtual-pet.sol\":2894:2904  pet.hunger */\n      0x01\n      add\n      0x00\n      swap1\n      sload\n      swap1\n      0x0100\n      exp\n      swap1\n      div\n      0xff\n      and\n        /* \"contracts/virtual-pet.sol\":2894:2910  pet.hunger > 100 */\n      0xff\n      and\n      gt\n        /* \"contracts/virtual-pet.sol\":2891:2961  if(pet.hunger > 100) {... */\n      iszero\n      tag_73\n      jumpi\n        /* \"contracts/virtual-pet.sol\":2943:2946  100 */\n      0x64\n        /* \"contracts/virtual-pet.sol\":2930:2933  pet */\n      dup3\n        /* \"contracts/virtual-pet.sol\":2930:2940  pet.hunger */\n      0x01\n      add\n      0x00\n        /* \"contracts/virtual-pet.sol\":2930:2946  pet.hunger = 100 */\n      0x0100\n      exp\n      dup2\n      sload\n      dup2\n      0xff\n      mul\n      not\n      and\n      swap1\n      dup4\n      0xff\n      and\n      mul\n      or\n      swap1\n      sstore\n      pop\n        /* \"contracts/virtual-pet.sol\":2891:2961  if(pet.hunger > 100) {... */\n    tag_73:\n        /* \"contracts/virtual-pet.sol\":3059:3061  70 */\n      0x46\n        /* \"contracts/virtual-pet.sol\":3046:3049  pet */\n      dup3\n        /* \"contracts/virtual-pet.sol\":3046:3056  pet.hunger */\n      0x01\n      add\n      0x00\n      swap1\n      sload\n      swap1\n      0x0100\n      exp\n      swap1\n      div\n      0xff\n      and\n        /* \"contracts/virtual-pet.sol\":3046:3061  pet.hunger > 70 */\n      0xff\n      and\n      gt\n        /* \"contracts/virtual-pet.sol\":3046:3082  pet.hunger > 70 && pet.happiness > 0 */\n      dup1\n      iszero\n      tag_74\n      jumpi\n      pop\n        /* \"contracts/virtual-pet.sol\":3081:3082  0 */\n      0x00\n        /* \"contracts/virtual-pet.sol\":3065:3068  pet */\n      dup3\n        /* \"contracts/virtual-pet.sol\":3065:3078  pet.happiness */\n      0x01\n      add\n      0x01\n      swap1\n      sload\n      swap1\n      0x0100\n      exp\n      swap1\n      div\n      0xff\n      and\n        /* \"contracts/virtual-pet.sol\":3065:3082  pet.happiness > 0 */\n      0xff\n      and\n      gt\n        /* \"contracts/virtual-pet.sol\":3046:3082  pet.hunger > 70 && pet.happiness > 0 */\n    tag_74:\n        /* \"contracts/virtual-pet.sol\":3043:3135  if(pet.hunger > 70 && pet.happiness > 0) {... */\n      iszero\n      tag_75\n      jumpi\n        /* \"contracts/virtual-pet.sol\":3119:3120  5 */\n      0x05\n        /* \"contracts/virtual-pet.sol\":3102:3105  pet */\n      dup3\n        /* \"contracts/virtual-pet.sol\":3102:3115  pet.happiness */\n      0x01\n      add\n      0x01\n        /* \"contracts/virtual-pet.sol\":3102:3120  pet.happiness -= 5 */\n      dup3\n      dup3\n      dup3\n      swap1\n      sload\n      swap1\n      0x0100\n      exp\n      swap1\n      div\n      0xff\n      and\n      tag_76\n      swap2\n      swap1\n      tag_45\n      jump\t// in\n    tag_76:\n      swap3\n      pop\n      0x0100\n      exp\n      dup2\n      sload\n      dup2\n      0xff\n      mul\n      not\n      and\n      swap1\n      dup4\n      0xff\n      and\n      mul\n      or\n      swap1\n      sstore\n      pop\n        /* \"contracts/virtual-pet.sol\":3043:3135  if(pet.hunger > 70 && pet.happiness > 0) {... */\n    tag_75:\n        /* \"contracts/virtual-pet.sol\":2809:3145  if(timePassed > 0) {... */\n    tag_69:\n        /* \"contracts/virtual-pet.sol\":2337:3151  {... */\n      pop\n      pop\n        /* \"contracts/virtual-pet.sol\":2310:3151  function checkPet() public {... */\n      jump\t// out\n        /* \"contracts/virtual-pet.sol\":991:1414  function createPet(string memory _name) public {... */\n    tag_25:\n        /* \"contracts/virtual-pet.sol\":1051:1055  pets */\n      0x00\n        /* \"contracts/virtual-pet.sol\":1051:1067  pets[msg.sender] */\n      dup1\n        /* \"contracts/virtual-pet.sol\":1056:1066  msg.sender */\n      caller\n        /* \"contracts/virtual-pet.sol\":1051:1067  pets[msg.sender] */\n      0xffffffffffffffffffffffffffffffffffffffff\n      and\n      0xffffffffffffffffffffffffffffffffffffffff\n      and\n      dup2\n      mstore\n      0x20\n      add\n      swap1\n      dup2\n      mstore\n      0x20\n      add\n      0x00\n      keccak256\n        /* \"contracts/virtual-pet.sol\":1051:1075  pets[msg.sender].isAlive */\n      0x03\n      add\n      0x00\n      swap1\n      sload\n      swap1\n      0x0100\n      exp\n      swap1\n      div\n      0xff\n      and\n        /* \"contracts/virtual-pet.sol\":1048:1127  if(pets[msg.sender].isAlive) {... */\n      iszero\n      tag_78\n      jumpi\n        /* \"contracts/virtual-pet.sol\":1098:1116  PetAlreadyExists() */\n      mload(0x40)\n      0xd4e8788500000000000000000000000000000000000000000000000000000000\n      dup2\n      mstore\n      0x04\n      add\n      mload(0x40)\n      dup1\n      swap2\n      sub\n      swap1\n      revert\n        /* \"contracts/virtual-pet.sol\":1048:1127  if(pets[msg.sender].isAlive) {... */\n    tag_78:\n        /* \"contracts/virtual-pet.sol\":1156:1362  Pet({... */\n      mload(0x40)\n      dup1\n      0xe0\n      add\n      0x40\n      mstore\n      dup1\n        /* \"contracts/virtual-pet.sol\":1180:1185  _name */\n      dup3\n        /* \"contracts/virtual-pet.sol\":1156:1362  Pet({... */\n      dup2\n      mstore\n      0x20\n      add\n        /* \"contracts/virtual-pet.sol\":1207:1209  50 */\n      0x32\n        /* \"contracts/virtual-pet.sol\":1156:1362  Pet({... */\n      0xff\n      and\n      dup2\n      mstore\n      0x20\n      add\n        /* \"contracts/virtual-pet.sol\":1234:1237  100 */\n      0x64\n        /* \"contracts/virtual-pet.sol\":1156:1362  Pet({... */\n      0xff\n      and\n      dup2\n      mstore\n      0x20\n      add\n        /* \"contracts/virtual-pet.sol\":1263:1264  0 */\n      0x00\n        /* \"contracts/virtual-pet.sol\":1156:1362  Pet({... */\n      0xffff\n      and\n      dup2\n      mstore\n      0x20\n      add\n        /* \"contracts/virtual-pet.sol\":1285:1286  1 */\n      0x01\n        /* \"contracts/virtual-pet.sol\":1156:1362  Pet({... */\n      0xff\n      and\n      dup2\n      mstore\n      0x20\n      add\n        /* \"contracts/virtual-pet.sol\":1309:1324  block.timestamp */\n      timestamp\n        /* \"contracts/virtual-pet.sol\":1156:1362  Pet({... */\n      dup2\n      mstore\n      0x20\n      add\n        /* \"contracts/virtual-pet.sol\":1347:1351  true */\n      0x01\n        /* \"contracts/virtual-pet.sol\":1156:1362  Pet({... */\n      iszero\n      iszero\n      dup2\n      mstore\n      pop\n        /* \"contracts/virtual-pet.sol\":1137:1141  pets */\n      0x00\n        /* \"contracts/virtual-pet.sol\":1137:1153  pets[msg.sender] */\n      dup1\n        /* \"contracts/virtual-pet.sol\":1142:1152  msg.sender */\n      caller\n        /* \"contracts/virtual-pet.sol\":1137:1153  pets[msg.sender] */\n      0xffffffffffffffffffffffffffffffffffffffff\n      and\n      0xffffffffffffffffffffffffffffffffffffffff\n      and\n      dup2\n      mstore\n      0x20\n      add\n      swap1\n      dup2\n      mstore\n      0x20\n      add\n      0x00\n      keccak256\n        /* \"contracts/virtual-pet.sol\":1137:1362  pets[msg.sender] = Pet({... */\n      0x00\n      dup3\n      add\n      mload\n      dup2\n      0x00\n      add\n      swap1\n      dup2\n      tag_79\n      swap2\n      swap1\n      tag_80\n      jump\t// in\n    tag_79:\n      pop\n      0x20\n      dup3\n      add\n      mload\n      dup2\n      0x01\n      add\n      exp(0x0100, 0x00)\n      dup2\n      sload\n      dup2\n      0xff\n      mul\n      not\n      and\n      swap1\n      dup4\n      0xff\n      and\n      mul\n      or\n      swap1\n      sstore\n      pop\n      0x40\n      dup3\n      add\n      mload\n      dup2\n      0x01\n      add\n      exp(0x0100, 0x01)\n      dup2\n      sload\n      dup2\n      0xff\n      mul\n      not\n      and\n      swap1\n      dup4\n      0xff\n      and\n      mul\n      or\n      swap1\n      sstore\n      pop\n      0x60\n      dup3\n      add\n      mload\n      dup2\n      0x01\n      add\n      exp(0x0100, 0x02)\n      dup2\n      sload\n      dup2\n      0xffff\n      mul\n      not\n      and\n      swap1\n      dup4\n      0xffff\n      and\n      mul\n      or\n      swap1\n      sstore\n      pop\n      0x80\n      dup3\n      add\n      mload\n      dup2\n      0x01\n      add\n      exp(0x0100, 0x04)\n      dup2\n      sload\n      dup2\n      0xff\n      mul\n      not\n      and\n      swap1\n      dup4\n      0xff\n      and\n      mul\n      or\n      swap1\n      sstore\n      pop\n      0xa0\n      dup3\n      add\n      mload\n      dup2\n      0x02\n      add\n      sstore\n      0xc0\n      dup3\n      add\n      mload\n      dup2\n      0x03\n      add\n      exp(0x0100, 0x00)\n      dup2\n      sload\n      dup2\n      0xff\n      mul\n      not\n      and\n      swap1\n      dup4\n      iszero\n      iszero\n      mul\n      or\n      swap1\n      sstore\n      pop\n      swap1\n      pop\n      pop\n        /* \"contracts/virtual-pet.sol\":1378:1407  PetCreated(msg.sender, _name) */\n      0x243720defc8f10ed8fffc2851c459e1e21c1895299b80b2f6b8227b51cd8a17b\n        /* \"contracts/virtual-pet.sol\":1389:1399  msg.sender */\n      caller\n        /* \"contracts/virtual-pet.sol\":1401:1406  _name */\n      dup3\n        /* \"contracts/virtual-pet.sol\":1378:1407  PetCreated(msg.sender, _name) */\n      mload(0x40)\n      tag_81\n      swap3\n      swap2\n      swap1\n      tag_82\n      jump\t// in\n    tag_81:\n      mload(0x40)\n      dup1\n      swap2\n      sub\n      swap1\n      log1\n        /* \"contracts/virtual-pet.sol\":991:1414  function createPet(string memory _name) public {... */\n      pop\n      jump\t// out\n        /* \"#utility.yul\":7:82   */\n    tag_83:\n        /* \"#utility.yul\":40:46   */\n      0x00\n        /* \"#utility.yul\":73:75   */\n      0x40\n        /* \"#utility.yul\":67:76   */\n      mload\n        /* \"#utility.yul\":57:76   */\n      swap1\n      pop\n        /* \"#utility.yul\":7:82   */\n      swap1\n      jump\t// out\n        /* \"#utility.yul\":88:205   */\n    tag_84:\n        /* \"#utility.yul\":197:198   */\n      0x00\n        /* \"#utility.yul\":194:195   */\n      dup1\n        /* \"#utility.yul\":187:199   */\n      revert\n        /* \"#utility.yul\":211:328   */\n    tag_85:\n        /* \"#utility.yul\":320:321   */\n      0x00\n        /* \"#utility.yul\":317:318   */\n      dup1\n        /* \"#utility.yul\":310:322   */\n      revert\n        /* \"#utility.yul\":334:460   */\n    tag_86:\n        /* \"#utility.yul\":371:378   */\n      0x00\n        /* \"#utility.yul\":411:453   */\n      0xffffffffffffffffffffffffffffffffffffffff\n        /* \"#utility.yul\":404:409   */\n      dup3\n        /* \"#utility.yul\":400:454   */\n      and\n        /* \"#utility.yul\":389:454   */\n      swap1\n      pop\n        /* \"#utility.yul\":334:460   */\n      swap2\n      swap1\n      pop\n      jump\t// out\n        /* \"#utility.yul\":466:562   */\n    tag_87:\n        /* \"#utility.yul\":503:510   */\n      0x00\n        /* \"#utility.yul\":532:556   */\n      tag_138\n        /* \"#utility.yul\":550:555   */\n      dup3\n        /* \"#utility.yul\":532:556   */\n      tag_86\n      jump\t// in\n    tag_138:\n        /* \"#utility.yul\":521:556   */\n      swap1\n      pop\n        /* \"#utility.yul\":466:562   */\n      swap2\n      swap1\n      pop\n      jump\t// out\n        /* \"#utility.yul\":568:690   */\n    tag_88:\n        /* \"#utility.yul\":641:665   */\n      tag_140\n        /* \"#utility.yul\":659:664   */\n      dup2\n        /* \"#utility.yul\":641:665   */\n      tag_87\n      jump\t// in\n    tag_140:\n        /* \"#utility.yul\":634:639   */\n      dup2\n        /* \"#utility.yul\":631:666   */\n      eq\n        /* \"#utility.yul\":621:684   */\n      tag_141\n      jumpi\n        /* \"#utility.yul\":680:681   */\n      0x00\n        /* \"#utility.yul\":677:678   */\n      dup1\n        /* \"#utility.yul\":670:682   */\n      revert\n        /* \"#utility.yul\":621:684   */\n    tag_141:\n        /* \"#utility.yul\":568:690   */\n      pop\n      jump\t// out\n        /* \"#utility.yul\":696:835   */\n    tag_89:\n        /* \"#utility.yul\":742:747   */\n      0x00\n        /* \"#utility.yul\":780:786   */\n      dup2\n        /* \"#utility.yul\":767:787   */\n      calldataload\n        /* \"#utility.yul\":758:787   */\n      swap1\n      pop\n        /* \"#utility.yul\":796:829   */\n      tag_143\n        /* \"#utility.yul\":823:828   */\n      dup2\n        /* \"#utility.yul\":796:829   */\n      tag_88\n      jump\t// in\n    tag_143:\n        /* \"#utility.yul\":696:835   */\n      swap3\n      swap2\n      pop\n      pop\n      jump\t// out\n        /* \"#utility.yul\":841:1170   */\n    tag_10:\n        /* \"#utility.yul\":900:906   */\n      0x00\n        /* \"#utility.yul\":949:951   */\n      0x20\n        /* \"#utility.yul\":937:946   */\n      dup3\n        /* \"#utility.yul\":928:935   */\n      dup5\n        /* \"#utility.yul\":924:947   */\n      sub\n        /* \"#utility.yul\":920:952   */\n      slt\n        /* \"#utility.yul\":917:1036   */\n      iszero\n      tag_145\n      jumpi\n        /* \"#utility.yul\":955:1034   */\n      tag_146\n      tag_84\n      jump\t// in\n    tag_146:\n        /* \"#utility.yul\":917:1036   */\n    tag_145:\n        /* \"#utility.yul\":1075:1076   */\n      0x00\n        /* \"#utility.yul\":1100:1153   */\n      tag_147\n        /* \"#utility.yul\":1145:1152   */\n      dup5\n        /* \"#utility.yul\":1136:1142   */\n      dup3\n        /* \"#utility.yul\":1125:1134   */\n      dup6\n        /* \"#utility.yul\":1121:1143   */\n      add\n        /* \"#utility.yul\":1100:1153   */\n      tag_89\n      jump\t// in\n    tag_147:\n        /* \"#utility.yul\":1090:1153   */\n      swap2\n      pop\n        /* \"#utility.yul\":1046:1163   */\n      pop\n        /* \"#utility.yul\":841:1170   */\n      swap3\n      swap2\n      pop\n      pop\n      jump\t// out\n        /* \"#utility.yul\":1176:1275   */\n    tag_90:\n        /* \"#utility.yul\":1228:1234   */\n      0x00\n        /* \"#utility.yul\":1262:1267   */\n      dup2\n        /* \"#utility.yul\":1256:1268   */\n      mload\n        /* \"#utility.yul\":1246:1268   */\n      swap1\n      pop\n        /* \"#utility.yul\":1176:1275   */\n      swap2\n      swap1\n      pop\n      jump\t// out\n        /* \"#utility.yul\":1281:1450   */\n    tag_91:\n        /* \"#utility.yul\":1365:1376   */\n      0x00\n        /* \"#utility.yul\":1399:1405   */\n      dup3\n        /* \"#utility.yul\":1394:1397   */\n      dup3\n        /* \"#utility.yul\":1387:1406   */\n      mstore\n        /* \"#utility.yul\":1439:1443   */\n      0x20\n        /* \"#utility.yul\":1434:1437   */\n      dup3\n        /* \"#utility.yul\":1430:1444   */\n      add\n        /* \"#utility.yul\":1415:1444   */\n      swap1\n      pop\n        /* \"#utility.yul\":1281:1450   */\n      swap3\n      swap2\n      pop\n      pop\n      jump\t// out\n        /* \"#utility.yul\":1456:1702   */\n    tag_92:\n        /* \"#utility.yul\":1537:1538   */\n      0x00\n        /* \"#utility.yul\":1547:1660   */\n    tag_151:\n        /* \"#utility.yul\":1561:1567   */\n      dup4\n        /* \"#utility.yul\":1558:1559   */\n      dup2\n        /* \"#utility.yul\":1555:1568   */\n      lt\n        /* \"#utility.yul\":1547:1660   */\n      iszero\n      tag_153\n      jumpi\n        /* \"#utility.yul\":1646:1647   */\n      dup1\n        /* \"#utility.yul\":1641:1644   */\n      dup3\n        /* \"#utility.yul\":1637:1648   */\n      add\n        /* \"#utility.yul\":1631:1649   */\n      mload\n        /* \"#utility.yul\":1627:1628   */\n      dup2\n        /* \"#utility.yul\":1622:1625   */\n      dup5\n        /* \"#utility.yul\":1618:1629   */\n      add\n        /* \"#utility.yul\":1611:1650   */\n      mstore\n        /* \"#utility.yul\":1583:1585   */\n      0x20\n        /* \"#utility.yul\":1580:1581   */\n      dup2\n        /* \"#utility.yul\":1576:1586   */\n      add\n        /* \"#utility.yul\":1571:1586   */\n      swap1\n      pop\n        /* \"#utility.yul\":1547:1660   */\n      jump(tag_151)\n    tag_153:\n        /* \"#utility.yul\":1694:1695   */\n      0x00\n        /* \"#utility.yul\":1685:1691   */\n      dup5\n        /* \"#utility.yul\":1680:1683   */\n      dup5\n        /* \"#utility.yul\":1676:1692   */\n      add\n        /* \"#utility.yul\":1669:1696   */\n      mstore\n        /* \"#utility.yul\":1518:1702   */\n      pop\n        /* \"#utility.yul\":1456:1702   */\n      pop\n      pop\n      pop\n      jump\t// out\n        /* \"#utility.yul\":1708:1810   */\n    tag_93:\n        /* \"#utility.yul\":1749:1755   */\n      0x00\n        /* \"#utility.yul\":1800:1802   */\n      0x1f\n        /* \"#utility.yul\":1796:1803   */\n      not\n        /* \"#utility.yul\":1791:1793   */\n      0x1f\n        /* \"#utility.yul\":1784:1789   */\n      dup4\n        /* \"#utility.yul\":1780:1794   */\n      add\n        /* \"#utility.yul\":1776:1804   */\n      and\n        /* \"#utility.yul\":1766:1804   */\n      swap1\n      pop\n        /* \"#utility.yul\":1708:1810   */\n      swap2\n      swap1\n      pop\n      jump\t// out\n        /* \"#utility.yul\":1816:2193   */\n    tag_94:\n        /* \"#utility.yul\":1904:1907   */\n      0x00\n        /* \"#utility.yul\":1932:1971   */\n      tag_156\n        /* \"#utility.yul\":1965:1970   */\n      dup3\n        /* \"#utility.yul\":1932:1971   */\n      tag_90\n      jump\t// in\n    tag_156:\n        /* \"#utility.yul\":1987:2058   */\n      tag_157\n        /* \"#utility.yul\":2051:2057   */\n      dup2\n        /* \"#utility.yul\":2046:2049   */\n      dup6\n        /* \"#utility.yul\":1987:2058   */\n      tag_91\n      jump\t// in\n    tag_157:\n        /* \"#utility.yul\":1980:2058   */\n      swap4\n      pop\n        /* \"#utility.yul\":2067:2132   */\n      tag_158\n        /* \"#utility.yul\":2125:2131   */\n      dup2\n        /* \"#utility.yul\":2120:2123   */\n      dup6\n        /* \"#utility.yul\":2113:2117   */\n      0x20\n        /* \"#utility.yul\":2106:2111   */\n      dup7\n        /* \"#utility.yul\":2102:2118   */\n      add\n        /* \"#utility.yul\":2067:2132   */\n      tag_92\n      jump\t// in\n    tag_158:\n        /* \"#utility.yul\":2157:2186   */\n      tag_159\n        /* \"#utility.yul\":2179:2185   */\n      dup2\n        /* \"#utility.yul\":2157:2186   */\n      tag_93\n      jump\t// in\n    tag_159:\n        /* \"#utility.yul\":2152:2155   */\n      dup5\n        /* \"#utility.yul\":2148:2187   */\n      add\n        /* \"#utility.yul\":2141:2187   */\n      swap2\n      pop\n        /* \"#utility.yul\":1908:2193   */\n      pop\n        /* \"#utility.yul\":1816:2193   */\n      swap3\n      swap2\n      pop\n      pop\n      jump\t// out\n        /* \"#utility.yul\":2199:2285   */\n    tag_95:\n        /* \"#utility.yul\":2234:2241   */\n      0x00\n        /* \"#utility.yul\":2274:2278   */\n      0xff\n        /* \"#utility.yul\":2267:2272   */\n      dup3\n        /* \"#utility.yul\":2263:2279   */\n      and\n        /* \"#utility.yul\":2252:2279   */\n      swap1\n      pop\n        /* \"#utility.yul\":2199:2285   */\n      swap2\n      swap1\n      pop\n      jump\t// out\n        /* \"#utility.yul\":2291:2403   */\n    tag_96:\n        /* \"#utility.yul\":2374:2396   */\n      tag_162\n        /* \"#utility.yul\":2390:2395   */\n      dup2\n        /* \"#utility.yul\":2374:2396   */\n      tag_95\n      jump\t// in\n    tag_162:\n        /* \"#utility.yul\":2369:2372   */\n      dup3\n        /* \"#utility.yul\":2362:2397   */\n      mstore\n        /* \"#utility.yul\":2291:2403   */\n      pop\n      pop\n      jump\t// out\n        /* \"#utility.yul\":2409:2498   */\n    tag_97:\n        /* \"#utility.yul\":2445:2452   */\n      0x00\n        /* \"#utility.yul\":2485:2491   */\n      0xffff\n        /* \"#utility.yul\":2478:2483   */\n      dup3\n        /* \"#utility.yul\":2474:2492   */\n      and\n        /* \"#utility.yul\":2463:2492   */\n      swap1\n      pop\n        /* \"#utility.yul\":2409:2498   */\n      swap2\n      swap1\n      pop\n      jump\t// out\n        /* \"#utility.yul\":2504:2619   */\n    tag_98:\n        /* \"#utility.yul\":2589:2612   */\n      tag_165\n        /* \"#utility.yul\":2606:2611   */\n      dup2\n        /* \"#utility.yul\":2589:2612   */\n      tag_97\n      jump\t// in\n    tag_165:\n        /* \"#utility.yul\":2584:2587   */\n      dup3\n        /* \"#utility.yul\":2577:2613   */\n      mstore\n        /* \"#utility.yul\":2504:2619   */\n      pop\n      pop\n      jump\t// out\n        /* \"#utility.yul\":2625:2702   */\n    tag_99:\n        /* \"#utility.yul\":2662:2669   */\n      0x00\n        /* \"#utility.yul\":2691:2696   */\n      dup2\n        /* \"#utility.yul\":2680:2696   */\n      swap1\n      pop\n        /* \"#utility.yul\":2625:2702   */\n      swap2\n      swap1\n      pop\n      jump\t// out\n        /* \"#utility.yul\":2708:2826   */\n    tag_100:\n        /* \"#utility.yul\":2795:2819   */\n      tag_168\n        /* \"#utility.yul\":2813:2818   */\n      dup2\n        /* \"#utility.yul\":2795:2819   */\n      tag_99\n      jump\t// in\n    tag_168:\n        /* \"#utility.yul\":2790:2793   */\n      dup3\n        /* \"#utility.yul\":2783:2820   */\n      mstore\n        /* \"#utility.yul\":2708:2826   */\n      pop\n      pop\n      jump\t// out\n        /* \"#utility.yul\":2832:2922   */\n    tag_101:\n        /* \"#utility.yul\":2866:2873   */\n      0x00\n        /* \"#utility.yul\":2909:2914   */\n      dup2\n        /* \"#utility.yul\":2902:2915   */\n      iszero\n        /* \"#utility.yul\":2895:2916   */\n      iszero\n        /* \"#utility.yul\":2884:2916   */\n      swap1\n      pop\n        /* \"#utility.yul\":2832:2922   */\n      swap2\n      swap1\n      pop\n      jump\t// out\n        /* \"#utility.yul\":2928:3037   */\n    tag_102:\n        /* \"#utility.yul\":3009:3030   */\n      tag_171\n        /* \"#utility.yul\":3024:3029   */\n      dup2\n        /* \"#utility.yul\":3009:3030   */\n      tag_101\n      jump\t// in\n    tag_171:\n        /* \"#utility.yul\":3004:3007   */\n      dup3\n        /* \"#utility.yul\":2997:3031   */\n      mstore\n        /* \"#utility.yul\":2928:3037   */\n      pop\n      pop\n      jump\t// out\n        /* \"#utility.yul\":3043:3980   */\n    tag_13:\n        /* \"#utility.yul\":3304:3308   */\n      0x00\n        /* \"#utility.yul\":3342:3345   */\n      0xe0\n        /* \"#utility.yul\":3331:3340   */\n      dup3\n        /* \"#utility.yul\":3327:3346   */\n      add\n        /* \"#utility.yul\":3319:3346   */\n      swap1\n      pop\n        /* \"#utility.yul\":3392:3401   */\n      dup2\n        /* \"#utility.yul\":3386:3390   */\n      dup2\n        /* \"#utility.yul\":3382:3402   */\n      sub\n        /* \"#utility.yul\":3378:3379   */\n      0x00\n        /* \"#utility.yul\":3367:3376   */\n      dup4\n        /* \"#utility.yul\":3363:3380   */\n      add\n        /* \"#utility.yul\":3356:3403   */\n      mstore\n        /* \"#utility.yul\":3420:3498   */\n      tag_173\n        /* \"#utility.yul\":3493:3497   */\n      dup2\n        /* \"#utility.yul\":3484:3490   */\n      dup11\n        /* \"#utility.yul\":3420:3498   */\n      tag_94\n      jump\t// in\n    tag_173:\n        /* \"#utility.yul\":3412:3498   */\n      swap1\n      pop\n        /* \"#utility.yul\":3508:3576   */\n      tag_174\n        /* \"#utility.yul\":3572:3574   */\n      0x20\n        /* \"#utility.yul\":3561:3570   */\n      dup4\n        /* \"#utility.yul\":3557:3575   */\n      add\n        /* \"#utility.yul\":3548:3554   */\n      dup10\n        /* \"#utility.yul\":3508:3576   */\n      tag_96\n      jump\t// in\n    tag_174:\n        /* \"#utility.yul\":3586:3654   */\n      tag_175\n        /* \"#utility.yul\":3650:3652   */\n      0x40\n        /* \"#utility.yul\":3639:3648   */\n      dup4\n        /* \"#utility.yul\":3635:3653   */\n      add\n        /* \"#utility.yul\":3626:3632   */\n      dup9\n        /* \"#utility.yul\":3586:3654   */\n      tag_96\n      jump\t// in\n    tag_175:\n        /* \"#utility.yul\":3664:3734   */\n      tag_176\n        /* \"#utility.yul\":3730:3732   */\n      0x60\n        /* \"#utility.yul\":3719:3728   */\n      dup4\n        /* \"#utility.yul\":3715:3733   */\n      add\n        /* \"#utility.yul\":3706:3712   */\n      dup8\n        /* \"#utility.yul\":3664:3734   */\n      tag_98\n      jump\t// in\n    tag_176:\n        /* \"#utility.yul\":3744:3813   */\n      tag_177\n        /* \"#utility.yul\":3808:3811   */\n      0x80\n        /* \"#utility.yul\":3797:3806   */\n      dup4\n        /* \"#utility.yul\":3793:3812   */\n      add\n        /* \"#utility.yul\":3784:3790   */\n      dup7\n        /* \"#utility.yul\":3744:3813   */\n      tag_96\n      jump\t// in\n    tag_177:\n        /* \"#utility.yul\":3823:3896   */\n      tag_178\n        /* \"#utility.yul\":3891:3894   */\n      0xa0\n        /* \"#utility.yul\":3880:3889   */\n      dup4\n        /* \"#utility.yul\":3876:3895   */\n      add\n        /* \"#utility.yul\":3867:3873   */\n      dup6\n        /* \"#utility.yul\":3823:3896   */\n      tag_100\n      jump\t// in\n    tag_178:\n        /* \"#utility.yul\":3906:3973   */\n      tag_179\n        /* \"#utility.yul\":3968:3971   */\n      0xc0\n        /* \"#utility.yul\":3957:3966   */\n      dup4\n        /* \"#utility.yul\":3953:3972   */\n      add\n        /* \"#utility.yul\":3944:3950   */\n      dup5\n        /* \"#utility.yul\":3906:3973   */\n      tag_102\n      jump\t// in\n    tag_179:\n        /* \"#utility.yul\":3043:3980   */\n      swap9\n      swap8\n      pop\n      pop\n      pop\n      pop\n      pop\n      pop\n      pop\n      pop\n      jump\t// out\n        /* \"#utility.yul\":3986:4812   */\n    tag_17:\n        /* \"#utility.yul\":4219:4223   */\n      0x00\n        /* \"#utility.yul\":4257:4260   */\n      0xc0\n        /* \"#utility.yul\":4246:4255   */\n      dup3\n        /* \"#utility.yul\":4242:4261   */\n      add\n        /* \"#utility.yul\":4234:4261   */\n      swap1\n      pop\n        /* \"#utility.yul\":4307:4316   */\n      dup2\n        /* \"#utility.yul\":4301:4305   */\n      dup2\n        /* \"#utility.yul\":4297:4317   */\n      sub\n        /* \"#utility.yul\":4293:4294   */\n      0x00\n        /* \"#utility.yul\":4282:4291   */\n      dup4\n        /* \"#utility.yul\":4278:4295   */\n      add\n        /* \"#utility.yul\":4271:4318   */\n      mstore\n        /* \"#utility.yul\":4335:4413   */\n      tag_181\n        /* \"#utility.yul\":4408:4412   */\n      dup2\n        /* \"#utility.yul\":4399:4405   */\n      dup10\n        /* \"#utility.yul\":4335:4413   */\n      tag_94\n      jump\t// in\n    tag_181:\n        /* \"#utility.yul\":4327:4413   */\n      swap1\n      pop\n        /* \"#utility.yul\":4423:4491   */\n      tag_182\n        /* \"#utility.yul\":4487:4489   */\n      0x20\n        /* \"#utility.yul\":4476:4485   */\n      dup4\n        /* \"#utility.yul\":4472:4490   */\n      add\n        /* \"#utility.yul\":4463:4469   */\n      dup9\n        /* \"#utility.yul\":4423:4491   */\n      tag_96\n      jump\t// in\n    tag_182:\n        /* \"#utility.yul\":4501:4569   */\n      tag_183\n        /* \"#utility.yul\":4565:4567   */\n      0x40\n        /* \"#utility.yul\":4554:4563   */\n      dup4\n        /* \"#utility.yul\":4550:4568   */\n      add\n        /* \"#utility.yul\":4541:4547   */\n      dup8\n        /* \"#utility.yul\":4501:4569   */\n      tag_96\n      jump\t// in\n    tag_183:\n        /* \"#utility.yul\":4579:4649   */\n      tag_184\n        /* \"#utility.yul\":4645:4647   */\n      0x60\n        /* \"#utility.yul\":4634:4643   */\n      dup4\n        /* \"#utility.yul\":4630:4648   */\n      add\n        /* \"#utility.yul\":4621:4627   */\n      dup7\n        /* \"#utility.yul\":4579:4649   */\n      tag_98\n      jump\t// in\n    tag_184:\n        /* \"#utility.yul\":4659:4728   */\n      tag_185\n        /* \"#utility.yul\":4723:4726   */\n      0x80\n        /* \"#utility.yul\":4712:4721   */\n      dup4\n        /* \"#utility.yul\":4708:4727   */\n      add\n        /* \"#utility.yul\":4699:4705   */\n      dup6\n        /* \"#utility.yul\":4659:4728   */\n      tag_96\n      jump\t// in\n    tag_185:\n        /* \"#utility.yul\":4738:4805   */\n      tag_186\n        /* \"#utility.yul\":4800:4803   */\n      0xa0\n        /* \"#utility.yul\":4789:4798   */\n      dup4\n        /* \"#utility.yul\":4785:4804   */\n      add\n        /* \"#utility.yul\":4776:4782   */\n      dup5\n        /* \"#utility.yul\":4738:4805   */\n      tag_102\n      jump\t// in\n    tag_186:\n        /* \"#utility.yul\":3986:4812   */\n      swap8\n      swap7\n      pop\n      pop\n      pop\n      pop\n      pop\n      pop\n      pop\n      jump\t// out\n        /* \"#utility.yul\":4818:4935   */\n    tag_103:\n        /* \"#utility.yul\":4927:4928   */\n      0x00\n        /* \"#utility.yul\":4924:4925   */\n      dup1\n        /* \"#utility.yul\":4917:4929   */\n      revert\n        /* \"#utility.yul\":4941:5058   */\n    tag_104:\n        /* \"#utility.yul\":5050:5051   */\n      0x00\n        /* \"#utility.yul\":5047:5048   */\n      dup1\n        /* \"#utility.yul\":5040:5052   */\n      revert\n        /* \"#utility.yul\":5064:5244   */\n    tag_105:\n        /* \"#utility.yul\":5112:5189   */\n      0x4e487b7100000000000000000000000000000000000000000000000000000000\n        /* \"#utility.yul\":5109:5110   */\n      0x00\n        /* \"#utility.yul\":5102:5190   */\n      mstore\n        /* \"#utility.yul\":5209:5213   */\n      0x41\n        /* \"#utility.yul\":5206:5207   */\n      0x04\n        /* \"#utility.yul\":5199:5214   */\n      mstore\n        /* \"#utility.yul\":5233:5237   */\n      0x24\n        /* \"#utility.yul\":5230:5231   */\n      0x00\n        /* \"#utility.yul\":5223:5238   */\n      revert\n        /* \"#utility.yul\":5250:5531   */\n    tag_106:\n        /* \"#utility.yul\":5333:5360   */\n      tag_191\n        /* \"#utility.yul\":5355:5359   */\n      dup3\n        /* \"#utility.yul\":5333:5360   */\n      tag_93\n      jump\t// in\n    tag_191:\n        /* \"#utility.yul\":5325:5331   */\n      dup2\n        /* \"#utility.yul\":5321:5361   */\n      add\n        /* \"#utility.yul\":5463:5469   */\n      dup2\n        /* \"#utility.yul\":5451:5461   */\n      dup2\n        /* \"#utility.yul\":5448:5470   */\n      lt\n        /* \"#utility.yul\":5427:5445   */\n      0xffffffffffffffff\n        /* \"#utility.yul\":5415:5425   */\n      dup3\n        /* \"#utility.yul\":5412:5446   */\n      gt\n        /* \"#utility.yul\":5409:5471   */\n      or\n        /* \"#utility.yul\":5406:5494   */\n      iszero\n      tag_192\n      jumpi\n        /* \"#utility.yul\":5474:5492   */\n      tag_193\n      tag_105\n      jump\t// in\n    tag_193:\n        /* \"#utility.yul\":5406:5494   */\n    tag_192:\n        /* \"#utility.yul\":5514:5524   */\n      dup1\n        /* \"#utility.yul\":5510:5512   */\n      0x40\n        /* \"#utility.yul\":5503:5525   */\n      mstore\n        /* \"#utility.yul\":5293:5531   */\n      pop\n        /* \"#utility.yul\":5250:5531   */\n      pop\n      pop\n      jump\t// out\n        /* \"#utility.yul\":5537:5666   */\n    tag_107:\n        /* \"#utility.yul\":5571:5577   */\n      0x00\n        /* \"#utility.yul\":5598:5618   */\n      tag_195\n      tag_83\n      jump\t// in\n    tag_195:\n        /* \"#utility.yul\":5588:5618   */\n      swap1\n      pop\n        /* \"#utility.yul\":5627:5660   */\n      tag_196\n        /* \"#utility.yul\":5655:5659   */\n      dup3\n        /* \"#utility.yul\":5647:5653   */\n      dup3\n        /* \"#utility.yul\":5627:5660   */\n      tag_106\n      jump\t// in\n    tag_196:\n        /* \"#utility.yul\":5537:5666   */\n      swap2\n      swap1\n      pop\n      jump\t// out\n        /* \"#utility.yul\":5672:5980   */\n    tag_108:\n        /* \"#utility.yul\":5734:5738   */\n      0x00\n        /* \"#utility.yul\":5824:5842   */\n      0xffffffffffffffff\n        /* \"#utility.yul\":5816:5822   */\n      dup3\n        /* \"#utility.yul\":5813:5843   */\n      gt\n        /* \"#utility.yul\":5810:5866   */\n      iszero\n      tag_198\n      jumpi\n        /* \"#utility.yul\":5846:5864   */\n      tag_199\n      tag_105\n      jump\t// in\n    tag_199:\n        /* \"#utility.yul\":5810:5866   */\n    tag_198:\n        /* \"#utility.yul\":5884:5913   */\n      tag_200\n        /* \"#utility.yul\":5906:5912   */\n      dup3\n        /* \"#utility.yul\":5884:5913   */\n      tag_93\n      jump\t// in\n    tag_200:\n        /* \"#utility.yul\":5876:5913   */\n      swap1\n      pop\n        /* \"#utility.yul\":5968:5972   */\n      0x20\n        /* \"#utility.yul\":5962:5966   */\n      dup2\n        /* \"#utility.yul\":5958:5973   */\n      add\n        /* \"#utility.yul\":5950:5973   */\n      swap1\n      pop\n        /* \"#utility.yul\":5672:5980   */\n      swap2\n      swap1\n      pop\n      jump\t// out\n        /* \"#utility.yul\":5986:6132   */\n    tag_109:\n        /* \"#utility.yul\":6083:6089   */\n      dup3\n        /* \"#utility.yul\":6078:6081   */\n      dup2\n        /* \"#utility.yul\":6073:6076   */\n      dup4\n        /* \"#utility.yul\":6060:6090   */\n      calldatacopy\n        /* \"#utility.yul\":6124:6125   */\n      0x00\n        /* \"#utility.yul\":6115:6121   */\n      dup4\n        /* \"#utility.yul\":6110:6113   */\n      dup4\n        /* \"#utility.yul\":6106:6122   */\n      add\n        /* \"#utility.yul\":6099:6126   */\n      mstore\n        /* \"#utility.yul\":5986:6132   */\n      pop\n      pop\n      pop\n      jump\t// out\n        /* \"#utility.yul\":6138:6563   */\n    tag_110:\n        /* \"#utility.yul\":6216:6221   */\n      0x00\n        /* \"#utility.yul\":6241:6307   */\n      tag_203\n        /* \"#utility.yul\":6257:6306   */\n      tag_204\n        /* \"#utility.yul\":6299:6305   */\n      dup5\n        /* \"#utility.yul\":6257:6306   */\n      tag_108\n      jump\t// in\n    tag_204:\n        /* \"#utility.yul\":6241:6307   */\n      tag_107\n      jump\t// in\n    tag_203:\n        /* \"#utility.yul\":6232:6307   */\n      swap1\n      pop\n        /* \"#utility.yul\":6330:6336   */\n      dup3\n        /* \"#utility.yul\":6323:6328   */\n      dup2\n        /* \"#utility.yul\":6316:6337   */\n      mstore\n        /* \"#utility.yul\":6368:6372   */\n      0x20\n        /* \"#utility.yul\":6361:6366   */\n      dup2\n        /* \"#utility.yul\":6357:6373   */\n      add\n        /* \"#utility.yul\":6406:6409   */\n      dup5\n        /* \"#utility.yul\":6397:6403   */\n      dup5\n        /* \"#utility.yul\":6392:6395   */\n      dup5\n        /* \"#utility.yul\":6388:6404   */\n      add\n        /* \"#utility.yul\":6385:6410   */\n      gt\n        /* \"#utility.yul\":6382:6494   */\n      iszero\n      tag_205\n      jumpi\n        /* \"#utility.yul\":6413:6492   */\n      tag_206\n      tag_104\n      jump\t// in\n    tag_206:\n        /* \"#utility.yul\":6382:6494   */\n    tag_205:\n        /* \"#utility.yul\":6503:6557   */\n      tag_207\n        /* \"#utility.yul\":6550:6556   */\n      dup5\n        /* \"#utility.yul\":6545:6548   */\n      dup3\n        /* \"#utility.yul\":6540:6543   */\n      dup6\n        /* \"#utility.yul\":6503:6557   */\n      tag_109\n      jump\t// in\n    tag_207:\n        /* \"#utility.yul\":6222:6563   */\n      pop\n        /* \"#utility.yul\":6138:6563   */\n      swap4\n      swap3\n      pop\n      pop\n      pop\n      jump\t// out\n        /* \"#utility.yul\":6583:6923   */\n    tag_111:\n        /* \"#utility.yul\":6639:6644   */\n      0x00\n        /* \"#utility.yul\":6688:6691   */\n      dup3\n        /* \"#utility.yul\":6681:6685   */\n      0x1f\n        /* \"#utility.yul\":6673:6679   */\n      dup4\n        /* \"#utility.yul\":6669:6686   */\n      add\n        /* \"#utility.yul\":6665:6692   */\n      slt\n        /* \"#utility.yul\":6655:6777   */\n      tag_209\n      jumpi\n        /* \"#utility.yul\":6696:6775   */\n      tag_210\n      tag_103\n      jump\t// in\n    tag_210:\n        /* \"#utility.yul\":6655:6777   */\n    tag_209:\n        /* \"#utility.yul\":6813:6819   */\n      dup2\n        /* \"#utility.yul\":6800:6820   */\n      calldataload\n        /* \"#utility.yul\":6838:6917   */\n      tag_211\n        /* \"#utility.yul\":6913:6916   */\n      dup5\n        /* \"#utility.yul\":6905:6911   */\n      dup3\n        /* \"#utility.yul\":6898:6902   */\n      0x20\n        /* \"#utility.yul\":6890:6896   */\n      dup7\n        /* \"#utility.yul\":6886:6903   */\n      add\n        /* \"#utility.yul\":6838:6917   */\n      tag_110\n      jump\t// in\n    tag_211:\n        /* \"#utility.yul\":6829:6917   */\n      swap2\n      pop\n        /* \"#utility.yul\":6645:6923   */\n      pop\n        /* \"#utility.yul\":6583:6923   */\n      swap3\n      swap2\n      pop\n      pop\n      jump\t// out\n        /* \"#utility.yul\":6929:7438   */\n    tag_24:\n        /* \"#utility.yul\":6998:7004   */\n      0x00\n        /* \"#utility.yul\":7047:7049   */\n      0x20\n        /* \"#utility.yul\":7035:7044   */\n      dup3\n        /* \"#utility.yul\":7026:7033   */\n      dup5\n        /* \"#utility.yul\":7022:7045   */\n      sub\n        /* \"#utility.yul\":7018:7050   */\n      slt\n        /* \"#utility.yul\":7015:7134   */\n      iszero\n      tag_213\n      jumpi\n        /* \"#utility.yul\":7053:7132   */\n      tag_214\n      tag_84\n      jump\t// in\n    tag_214:\n        /* \"#utility.yul\":7015:7134   */\n    tag_213:\n        /* \"#utility.yul\":7201:7202   */\n      0x00\n        /* \"#utility.yul\":7190:7199   */\n      dup3\n        /* \"#utility.yul\":7186:7203   */\n      add\n        /* \"#utility.yul\":7173:7204   */\n      calldataload\n        /* \"#utility.yul\":7231:7249   */\n      0xffffffffffffffff\n        /* \"#utility.yul\":7223:7229   */\n      dup2\n        /* \"#utility.yul\":7220:7250   */\n      gt\n        /* \"#utility.yul\":7217:7334   */\n      iszero\n      tag_215\n      jumpi\n        /* \"#utility.yul\":7253:7332   */\n      tag_216\n      tag_85\n      jump\t// in\n    tag_216:\n        /* \"#utility.yul\":7217:7334   */\n    tag_215:\n        /* \"#utility.yul\":7358:7421   */\n      tag_217\n        /* \"#utility.yul\":7413:7420   */\n      dup5\n        /* \"#utility.yul\":7404:7410   */\n      dup3\n        /* \"#utility.yul\":7393:7402   */\n      dup6\n        /* \"#utility.yul\":7389:7411   */\n      add\n        /* \"#utility.yul\":7358:7421   */\n      tag_111\n      jump\t// in\n    tag_217:\n        /* \"#utility.yul\":7348:7421   */\n      swap2\n      pop\n        /* \"#utility.yul\":7144:7431   */\n      pop\n        /* \"#utility.yul\":6929:7438   */\n      swap3\n      swap2\n      pop\n      pop\n      jump\t// out\n        /* \"#utility.yul\":7444:7624   */\n    tag_112:\n        /* \"#utility.yul\":7492:7569   */\n      0x4e487b7100000000000000000000000000000000000000000000000000000000\n        /* \"#utility.yul\":7489:7490   */\n      0x00\n        /* \"#utility.yul\":7482:7570   */\n      mstore\n        /* \"#utility.yul\":7589:7593   */\n      0x22\n        /* \"#utility.yul\":7586:7587   */\n      0x04\n        /* \"#utility.yul\":7579:7594   */\n      mstore\n        /* \"#utility.yul\":7613:7617   */\n      0x24\n        /* \"#utility.yul\":7610:7611   */\n      0x00\n        /* \"#utility.yul\":7603:7618   */\n      revert\n        /* \"#utility.yul\":7630:7950   */\n    tag_27:\n        /* \"#utility.yul\":7674:7680   */\n      0x00\n        /* \"#utility.yul\":7711:7712   */\n      0x02\n        /* \"#utility.yul\":7705:7709   */\n      dup3\n        /* \"#utility.yul\":7701:7713   */\n      div\n        /* \"#utility.yul\":7691:7713   */\n      swap1\n      pop\n        /* \"#utility.yul\":7758:7759   */\n      0x01\n        /* \"#utility.yul\":7752:7756   */\n      dup3\n        /* \"#utility.yul\":7748:7760   */\n      and\n        /* \"#utility.yul\":7779:7797   */\n      dup1\n        /* \"#utility.yul\":7769:7850   */\n      tag_220\n      jumpi\n        /* \"#utility.yul\":7835:7839   */\n      0x7f\n        /* \"#utility.yul\":7827:7833   */\n      dup3\n        /* \"#utility.yul\":7823:7840   */\n      and\n        /* \"#utility.yul\":7813:7840   */\n      swap2\n      pop\n        /* \"#utility.yul\":7769:7850   */\n    tag_220:\n        /* \"#utility.yul\":7897:7899   */\n      0x20\n        /* \"#utility.yul\":7889:7895   */\n      dup3\n        /* \"#utility.yul\":7886:7900   */\n      lt\n        /* \"#utility.yul\":7866:7884   */\n      dup2\n        /* \"#utility.yul\":7863:7901   */\n      sub\n        /* \"#utility.yul\":7860:7944   */\n      tag_221\n      jumpi\n        /* \"#utility.yul\":7916:7934   */\n      tag_222\n      tag_112\n      jump\t// in\n    tag_222:\n        /* \"#utility.yul\":7860:7944   */\n    tag_221:\n        /* \"#utility.yul\":7681:7950   */\n      pop\n        /* \"#utility.yul\":7630:7950   */\n      swap2\n      swap1\n      pop\n      jump\t// out\n        /* \"#utility.yul\":7956:8136   */\n    tag_113:\n        /* \"#utility.yul\":8004:8081   */\n      0x4e487b7100000000000000000000000000000000000000000000000000000000\n        /* \"#utility.yul\":8001:8002   */\n      0x00\n        /* \"#utility.yul\":7994:8082   */\n      mstore\n        /* \"#utility.yul\":8101:8105   */\n      0x11\n        /* \"#utility.yul\":8098:8099   */\n      0x04\n        /* \"#utility.yul\":8091:8106   */\n      mstore\n        /* \"#utility.yul\":8125:8129   */\n      0x24\n        /* \"#utility.yul\":8122:8123   */\n      0x00\n        /* \"#utility.yul\":8115:8130   */\n      revert\n        /* \"#utility.yul\":8142:8336   */\n    tag_41:\n        /* \"#utility.yul\":8182:8186   */\n      0x00\n        /* \"#utility.yul\":8202:8222   */\n      tag_225\n        /* \"#utility.yul\":8220:8221   */\n      dup3\n        /* \"#utility.yul\":8202:8222   */\n      tag_99\n      jump\t// in\n    tag_225:\n        /* \"#utility.yul\":8197:8222   */\n      swap2\n      pop\n        /* \"#utility.yul\":8236:8256   */\n      tag_226\n        /* \"#utility.yul\":8254:8255   */\n      dup4\n        /* \"#utility.yul\":8236:8256   */\n      tag_99\n      jump\t// in\n    tag_226:\n        /* \"#utility.yul\":8231:8256   */\n      swap3\n      pop\n        /* \"#utility.yul\":8280:8281   */\n      dup3\n        /* \"#utility.yul\":8277:8278   */\n      dup3\n        /* \"#utility.yul\":8273:8282   */\n      sub\n        /* \"#utility.yul\":8265:8282   */\n      swap1\n      pop\n        /* \"#utility.yul\":8304:8305   */\n      dup2\n        /* \"#utility.yul\":8298:8302   */\n      dup2\n        /* \"#utility.yul\":8295:8306   */\n      gt\n        /* \"#utility.yul\":8292:8329   */\n      iszero\n      tag_227\n      jumpi\n        /* \"#utility.yul\":8309:8327   */\n      tag_228\n      tag_113\n      jump\t// in\n    tag_228:\n        /* \"#utility.yul\":8292:8329   */\n    tag_227:\n        /* \"#utility.yul\":8142:8336   */\n      swap3\n      swap2\n      pop\n      pop\n      jump\t// out\n        /* \"#utility.yul\":8342:8533   */\n    tag_45:\n        /* \"#utility.yul\":8380:8384   */\n      0x00\n        /* \"#utility.yul\":8400:8418   */\n      tag_230\n        /* \"#utility.yul\":8416:8417   */\n      dup3\n        /* \"#utility.yul\":8400:8418   */\n      tag_95\n      jump\t// in\n    tag_230:\n        /* \"#utility.yul\":8395:8418   */\n      swap2\n      pop\n        /* \"#utility.yul\":8432:8450   */\n      tag_231\n        /* \"#utility.yul\":8448:8449   */\n      dup4\n        /* \"#utility.yul\":8432:8450   */\n      tag_95\n      jump\t// in\n    tag_231:\n        /* \"#utility.yul\":8427:8450   */\n      swap3\n      pop\n        /* \"#utility.yul\":8474:8475   */\n      dup3\n        /* \"#utility.yul\":8471:8472   */\n      dup3\n        /* \"#utility.yul\":8467:8476   */\n      sub\n        /* \"#utility.yul\":8459:8476   */\n      swap1\n      pop\n        /* \"#utility.yul\":8498:8502   */\n      0xff\n        /* \"#utility.yul\":8492:8496   */\n      dup2\n        /* \"#utility.yul\":8489:8503   */\n      gt\n        /* \"#utility.yul\":8486:8526   */\n      iszero\n      tag_232\n      jumpi\n        /* \"#utility.yul\":8506:8524   */\n      tag_233\n      tag_113\n      jump\t// in\n    tag_233:\n        /* \"#utility.yul\":8486:8526   */\n    tag_232:\n        /* \"#utility.yul\":8342:8533   */\n      swap3\n      swap2\n      pop\n      pop\n      jump\t// out\n        /* \"#utility.yul\":8539:8732   */\n    tag_48:\n        /* \"#utility.yul\":8578:8581   */\n      0x00\n        /* \"#utility.yul\":8597:8616   */\n      tag_235\n        /* \"#utility.yul\":8614:8615   */\n      dup3\n        /* \"#utility.yul\":8597:8616   */\n      tag_97\n      jump\t// in\n    tag_235:\n        /* \"#utility.yul\":8592:8616   */\n      swap2\n      pop\n        /* \"#utility.yul\":8630:8649   */\n      tag_236\n        /* \"#utility.yul\":8647:8648   */\n      dup4\n        /* \"#utility.yul\":8630:8649   */\n      tag_97\n      jump\t// in\n    tag_236:\n        /* \"#utility.yul\":8625:8649   */\n      swap3\n      pop\n        /* \"#utility.yul\":8672:8673   */\n      dup3\n        /* \"#utility.yul\":8669:8670   */\n      dup3\n        /* \"#utility.yul\":8665:8674   */\n      add\n        /* \"#utility.yul\":8658:8674   */\n      swap1\n      pop\n        /* \"#utility.yul\":8695:8701   */\n      0xffff\n        /* \"#utility.yul\":8690:8693   */\n      dup2\n        /* \"#utility.yul\":8687:8702   */\n      gt\n        /* \"#utility.yul\":8684:8725   */\n      iszero\n      tag_237\n      jumpi\n        /* \"#utility.yul\":8705:8723   */\n      tag_238\n      tag_113\n      jump\t// in\n    tag_238:\n        /* \"#utility.yul\":8684:8725   */\n    tag_237:\n        /* \"#utility.yul\":8539:8732   */\n      swap3\n      swap2\n      pop\n      pop\n      jump\t// out\n        /* \"#utility.yul\":8738:9009   */\n    tag_50:\n        /* \"#utility.yul\":8776:8783   */\n      0x00\n        /* \"#utility.yul\":8799:8817   */\n      tag_240\n        /* \"#utility.yul\":8815:8816   */\n      dup3\n        /* \"#utility.yul\":8799:8817   */\n      tag_95\n      jump\t// in\n    tag_240:\n        /* \"#utility.yul\":8794:8817   */\n      swap2\n      pop\n        /* \"#utility.yul\":8831:8849   */\n      tag_241\n        /* \"#utility.yul\":8847:8848   */\n      dup4\n        /* \"#utility.yul\":8831:8849   */\n      tag_95\n      jump\t// in\n    tag_241:\n        /* \"#utility.yul\":8826:8849   */\n      swap3\n      pop\n        /* \"#utility.yul\":8884:8885   */\n      dup3\n        /* \"#utility.yul\":8881:8882   */\n      dup3\n        /* \"#utility.yul\":8877:8886   */\n      mul\n        /* \"#utility.yul\":8906:8934   */\n      tag_242\n        /* \"#utility.yul\":8922:8933   */\n      dup2\n        /* \"#utility.yul\":8906:8934   */\n      tag_95\n      jump\t// in\n    tag_242:\n        /* \"#utility.yul\":8895:8934   */\n      swap2\n      pop\n        /* \"#utility.yul\":8966:8977   */\n      dup1\n        /* \"#utility.yul\":8957:8964   */\n      dup3\n        /* \"#utility.yul\":8954:8978   */\n      eq\n        /* \"#utility.yul\":8944:9002   */\n      tag_243\n      jumpi\n        /* \"#utility.yul\":8982:9000   */\n      tag_244\n      tag_113\n      jump\t// in\n    tag_244:\n        /* \"#utility.yul\":8944:9002   */\n    tag_243:\n        /* \"#utility.yul\":8784:9009   */\n      pop\n        /* \"#utility.yul\":8738:9009   */\n      swap3\n      swap2\n      pop\n      pop\n      jump\t// out\n        /* \"#utility.yul\":9015:9182   */\n    tag_53:\n        /* \"#utility.yul\":9052:9055   */\n      0x00\n        /* \"#utility.yul\":9075:9097   */\n      tag_246\n        /* \"#utility.yul\":9091:9096   */\n      dup3\n        /* \"#utility.yul\":9075:9097   */\n      tag_95\n      jump\t// in\n    tag_246:\n        /* \"#utility.yul\":9066:9097   */\n      swap2\n      pop\n        /* \"#utility.yul\":9119:9123   */\n      0xff\n        /* \"#utility.yul\":9112:9117   */\n      dup3\n        /* \"#utility.yul\":9109:9124   */\n      sub\n        /* \"#utility.yul\":9106:9147   */\n      tag_247\n      jumpi\n        /* \"#utility.yul\":9127:9145   */\n      tag_248\n      tag_113\n      jump\t// in\n    tag_248:\n        /* \"#utility.yul\":9106:9147   */\n    tag_247:\n        /* \"#utility.yul\":9174:9175   */\n      0x01\n        /* \"#utility.yul\":9167:9172   */\n      dup3\n        /* \"#utility.yul\":9163:9176   */\n      add\n        /* \"#utility.yul\":9156:9176   */\n      swap1\n      pop\n        /* \"#utility.yul\":9015:9182   */\n      swap2\n      swap1\n      pop\n      jump\t// out\n        /* \"#utility.yul\":9188:9376   */\n    tag_55:\n        /* \"#utility.yul\":9226:9229   */\n      0x00\n        /* \"#utility.yul\":9245:9263   */\n      tag_250\n        /* \"#utility.yul\":9261:9262   */\n      dup3\n        /* \"#utility.yul\":9245:9263   */\n      tag_95\n      jump\t// in\n    tag_250:\n        /* \"#utility.yul\":9240:9263   */\n      swap2\n      pop\n        /* \"#utility.yul\":9277:9295   */\n      tag_251\n        /* \"#utility.yul\":9293:9294   */\n      dup4\n        /* \"#utility.yul\":9277:9295   */\n      tag_95\n      jump\t// in\n    tag_251:\n        /* \"#utility.yul\":9272:9295   */\n      swap3\n      pop\n        /* \"#utility.yul\":9318:9319   */\n      dup3\n        /* \"#utility.yul\":9315:9316   */\n      dup3\n        /* \"#utility.yul\":9311:9320   */\n      add\n        /* \"#utility.yul\":9304:9320   */\n      swap1\n      pop\n        /* \"#utility.yul\":9341:9345   */\n      0xff\n        /* \"#utility.yul\":9336:9339   */\n      dup2\n        /* \"#utility.yul\":9333:9346   */\n      gt\n        /* \"#utility.yul\":9330:9369   */\n      iszero\n      tag_252\n      jumpi\n        /* \"#utility.yul\":9349:9367   */\n      tag_253\n      tag_113\n      jump\t// in\n    tag_253:\n        /* \"#utility.yul\":9330:9369   */\n    tag_252:\n        /* \"#utility.yul\":9188:9376   */\n      swap3\n      swap2\n      pop\n      pop\n      jump\t// out\n        /* \"#utility.yul\":9382:9500   */\n    tag_114:\n        /* \"#utility.yul\":9469:9493   */\n      tag_255\n        /* \"#utility.yul\":9487:9492   */\n      dup2\n        /* \"#utility.yul\":9469:9493   */\n      tag_87\n      jump\t// in\n    tag_255:\n        /* \"#utility.yul\":9464:9467   */\n      dup3\n        /* \"#utility.yul\":9457:9494   */\n      mstore\n        /* \"#utility.yul\":9382:9500   */\n      pop\n      pop\n      jump\t// out\n        /* \"#utility.yul\":9506:9830   */\n    tag_58:\n        /* \"#utility.yul\":9623:9627   */\n      0x00\n        /* \"#utility.yul\":9661:9663   */\n      0x40\n        /* \"#utility.yul\":9650:9659   */\n      dup3\n        /* \"#utility.yul\":9646:9664   */\n      add\n        /* \"#utility.yul\":9638:9664   */\n      swap1\n      pop\n        /* \"#utility.yul\":9674:9745   */\n      tag_257\n        /* \"#utility.yul\":9742:9743   */\n      0x00\n        /* \"#utility.yul\":9731:9740   */\n      dup4\n        /* \"#utility.yul\":9727:9744   */\n      add\n        /* \"#utility.yul\":9718:9724   */\n      dup6\n        /* \"#utility.yul\":9674:9745   */\n      tag_114\n      jump\t// in\n    tag_257:\n        /* \"#utility.yul\":9755:9823   */\n      tag_258\n        /* \"#utility.yul\":9819:9821   */\n      0x20\n        /* \"#utility.yul\":9808:9817   */\n      dup4\n        /* \"#utility.yul\":9804:9822   */\n      add\n        /* \"#utility.yul\":9795:9801   */\n      dup5\n        /* \"#utility.yul\":9755:9823   */\n      tag_96\n      jump\t// in\n    tag_258:\n        /* \"#utility.yul\":9506:9830   */\n      swap4\n      swap3\n      pop\n      pop\n      pop\n      jump\t// out\n        /* \"#utility.yul\":9836:9977   */\n    tag_115:\n        /* \"#utility.yul\":9885:9889   */\n      0x00\n        /* \"#utility.yul\":9908:9911   */\n      dup2\n        /* \"#utility.yul\":9900:9911   */\n      swap1\n      pop\n        /* \"#utility.yul\":9931:9934   */\n      dup2\n        /* \"#utility.yul\":9928:9929   */\n      0x00\n        /* \"#utility.yul\":9921:9935   */\n      mstore\n        /* \"#utility.yul\":9965:9969   */\n      0x20\n        /* \"#utility.yul\":9962:9963   */\n      0x00\n        /* \"#utility.yul\":9952:9970   */\n      keccak256\n        /* \"#utility.yul\":9944:9970   */\n      swap1\n      pop\n        /* \"#utility.yul\":9836:9977   */\n      swap2\n      swap1\n      pop\n      jump\t// out\n        /* \"#utility.yul\":10007:10838   */\n    tag_116:\n        /* \"#utility.yul\":10092:10095   */\n      0x00\n        /* \"#utility.yul\":10129:10134   */\n      dup2\n        /* \"#utility.yul\":10123:10135   */\n      sload\n        /* \"#utility.yul\":10158:10194   */\n      tag_261\n        /* \"#utility.yul\":10184:10193   */\n      dup2\n        /* \"#utility.yul\":10158:10194   */\n      tag_27\n      jump\t// in\n    tag_261:\n        /* \"#utility.yul\":10210:10281   */\n      tag_262\n        /* \"#utility.yul\":10274:10280   */\n      dup2\n        /* \"#utility.yul\":10269:10272   */\n      dup7\n        /* \"#utility.yul\":10210:10281   */\n      tag_91\n      jump\t// in\n    tag_262:\n        /* \"#utility.yul\":10203:10281   */\n      swap5\n      pop\n        /* \"#utility.yul\":10312:10313   */\n      0x01\n        /* \"#utility.yul\":10301:10310   */\n      dup3\n        /* \"#utility.yul\":10297:10314   */\n      and\n        /* \"#utility.yul\":10328:10329   */\n      0x00\n        /* \"#utility.yul\":10323:10487   */\n      dup2\n      eq\n      tag_264\n      jumpi\n        /* \"#utility.yul\":10501:10502   */\n      0x01\n        /* \"#utility.yul\":10496:10832   */\n      dup2\n      eq\n      tag_265\n      jumpi\n        /* \"#utility.yul\":10290:10832   */\n      jump(tag_263)\n        /* \"#utility.yul\":10323:10487   */\n    tag_264:\n        /* \"#utility.yul\":10407:10411   */\n      0xff\n        /* \"#utility.yul\":10403:10412   */\n      not\n        /* \"#utility.yul\":10392:10401   */\n      dup4\n        /* \"#utility.yul\":10388:10413   */\n      and\n        /* \"#utility.yul\":10383:10386   */\n      dup7\n        /* \"#utility.yul\":10376:10414   */\n      mstore\n        /* \"#utility.yul\":10467:10473   */\n      dup2\n        /* \"#utility.yul\":10460:10474   */\n      iszero\n        /* \"#utility.yul\":10453:10475   */\n      iszero\n        /* \"#utility.yul\":10447:10451   */\n      0x20\n        /* \"#utility.yul\":10443:10476   */\n      mul\n        /* \"#utility.yul\":10438:10441   */\n      dup7\n        /* \"#utility.yul\":10434:10477   */\n      add\n        /* \"#utility.yul\":10427:10477   */\n      swap4\n      pop\n        /* \"#utility.yul\":10323:10487   */\n      jump(tag_263)\n        /* \"#utility.yul\":10496:10832   */\n    tag_265:\n        /* \"#utility.yul\":10563:10601   */\n      tag_266\n        /* \"#utility.yul\":10595:10600   */\n      dup6\n        /* \"#utility.yul\":10563:10601   */\n      tag_115\n      jump\t// in\n    tag_266:\n        /* \"#utility.yul\":10623:10624   */\n      0x00\n        /* \"#utility.yul\":10637:10791   */\n    tag_267:\n        /* \"#utility.yul\":10651:10657   */\n      dup4\n        /* \"#utility.yul\":10648:10649   */\n      dup2\n        /* \"#utility.yul\":10645:10658   */\n      lt\n        /* \"#utility.yul\":10637:10791   */\n      iszero\n      tag_269\n      jumpi\n        /* \"#utility.yul\":10725:10732   */\n      dup2\n        /* \"#utility.yul\":10719:10733   */\n      sload\n        /* \"#utility.yul\":10715:10716   */\n      dup2\n        /* \"#utility.yul\":10710:10713   */\n      dup10\n        /* \"#utility.yul\":10706:10717   */\n      add\n        /* \"#utility.yul\":10699:10734   */\n      mstore\n        /* \"#utility.yul\":10775:10776   */\n      0x01\n        /* \"#utility.yul\":10766:10773   */\n      dup3\n        /* \"#utility.yul\":10762:10777   */\n      add\n        /* \"#utility.yul\":10751:10777   */\n      swap2\n      pop\n        /* \"#utility.yul\":10673:10677   */\n      0x20\n        /* \"#utility.yul\":10670:10671   */\n      dup2\n        /* \"#utility.yul\":10666:10678   */\n      add\n        /* \"#utility.yul\":10661:10678   */\n      swap1\n      pop\n        /* \"#utility.yul\":10637:10791   */\n      jump(tag_267)\n    tag_269:\n        /* \"#utility.yul\":10820:10821   */\n      dup1\n        /* \"#utility.yul\":10815:10818   */\n      dup9\n        /* \"#utility.yul\":10811:10822   */\n      add\n        /* \"#utility.yul\":10804:10822   */\n      swap6\n      pop\n        /* \"#utility.yul\":10503:10832   */\n      pop\n      pop\n        /* \"#utility.yul\":10290:10832   */\n    tag_263:\n      pop\n        /* \"#utility.yul\":10096:10838   */\n      pop\n      pop\n        /* \"#utility.yul\":10007:10838   */\n      swap3\n      swap2\n      pop\n      pop\n      jump\t// out\n        /* \"#utility.yul\":10844:11261   */\n    tag_65:\n        /* \"#utility.yul\":10982:10986   */\n      0x00\n        /* \"#utility.yul\":11020:11022   */\n      0x40\n        /* \"#utility.yul\":11009:11018   */\n      dup3\n        /* \"#utility.yul\":11005:11023   */\n      add\n        /* \"#utility.yul\":10997:11023   */\n      swap1\n      pop\n        /* \"#utility.yul\":11033:11104   */\n      tag_271\n        /* \"#utility.yul\":11101:11102   */\n      0x00\n        /* \"#utility.yul\":11090:11099   */\n      dup4\n        /* \"#utility.yul\":11086:11103   */\n      add\n        /* \"#utility.yul\":11077:11083   */\n      dup6\n        /* \"#utility.yul\":11033:11104   */\n      tag_114\n      jump\t// in\n    tag_271:\n        /* \"#utility.yul\":11151:11160   */\n      dup2\n        /* \"#utility.yul\":11145:11149   */\n      dup2\n        /* \"#utility.yul\":11141:11161   */\n      sub\n        /* \"#utility.yul\":11136:11138   */\n      0x20\n        /* \"#utility.yul\":11125:11134   */\n      dup4\n        /* \"#utility.yul\":11121:11139   */\n      add\n        /* \"#utility.yul\":11114:11162   */\n      mstore\n        /* \"#utility.yul\":11179:11254   */\n      tag_272\n        /* \"#utility.yul\":11249:11253   */\n      dup2\n        /* \"#utility.yul\":11240:11246   */\n      dup5\n        /* \"#utility.yul\":11179:11254   */\n      tag_116\n      jump\t// in\n    tag_272:\n        /* \"#utility.yul\":11171:11254   */\n      swap1\n      pop\n        /* \"#utility.yul\":10844:11261   */\n      swap4\n      swap3\n      pop\n      pop\n      pop\n      jump\t// out\n        /* \"#utility.yul\":11267:11447   */\n    tag_117:\n        /* \"#utility.yul\":11315:11392   */\n      0x4e487b7100000000000000000000000000000000000000000000000000000000\n        /* \"#utility.yul\":11312:11313   */\n      0x00\n        /* \"#utility.yul\":11305:11393   */\n      mstore\n        /* \"#utility.yul\":11412:11416   */\n      0x12\n        /* \"#utility.yul\":11409:11410   */\n      0x04\n        /* \"#utility.yul\":11402:11417   */\n      mstore\n        /* \"#utility.yul\":11436:11440   */\n      0x24\n        /* \"#utility.yul\":11433:11434   */\n      0x00\n        /* \"#utility.yul\":11426:11441   */\n      revert\n        /* \"#utility.yul\":11453:11638   */\n    tag_68:\n        /* \"#utility.yul\":11493:11494   */\n      0x00\n        /* \"#utility.yul\":11510:11530   */\n      tag_275\n        /* \"#utility.yul\":11528:11529   */\n      dup3\n        /* \"#utility.yul\":11510:11530   */\n      tag_99\n      jump\t// in\n    tag_275:\n        /* \"#utility.yul\":11505:11530   */\n      swap2\n      pop\n        /* \"#utility.yul\":11544:11564   */\n      tag_276\n        /* \"#utility.yul\":11562:11563   */\n      dup4\n        /* \"#utility.yul\":11544:11564   */\n      tag_99\n      jump\t// in\n    tag_276:\n        /* \"#utility.yul\":11539:11564   */\n      swap3\n      pop\n        /* \"#utility.yul\":11583:11584   */\n      dup3\n        /* \"#utility.yul\":11573:11608   */\n      tag_277\n      jumpi\n        /* \"#utility.yul\":11588:11606   */\n      tag_278\n      tag_117\n      jump\t// in\n    tag_278:\n        /* \"#utility.yul\":11573:11608   */\n    tag_277:\n        /* \"#utility.yul\":11630:11631   */\n      dup3\n        /* \"#utility.yul\":11627:11628   */\n      dup3\n        /* \"#utility.yul\":11623:11632   */\n      div\n        /* \"#utility.yul\":11618:11632   */\n      swap1\n      pop\n        /* \"#utility.yul\":11453:11638   */\n      swap3\n      swap2\n      pop\n      pop\n      jump\t// out\n        /* \"#utility.yul\":11644:12054   */\n    tag_71:\n        /* \"#utility.yul\":11684:11691   */\n      0x00\n        /* \"#utility.yul\":11707:11727   */\n      tag_280\n        /* \"#utility.yul\":11725:11726   */\n      dup3\n        /* \"#utility.yul\":11707:11727   */\n      tag_99\n      jump\t// in\n    tag_280:\n        /* \"#utility.yul\":11702:11727   */\n      swap2\n      pop\n        /* \"#utility.yul\":11741:11761   */\n      tag_281\n        /* \"#utility.yul\":11759:11760   */\n      dup4\n        /* \"#utility.yul\":11741:11761   */\n      tag_99\n      jump\t// in\n    tag_281:\n        /* \"#utility.yul\":11736:11761   */\n      swap3\n      pop\n        /* \"#utility.yul\":11796:11797   */\n      dup3\n        /* \"#utility.yul\":11793:11794   */\n      dup3\n        /* \"#utility.yul\":11789:11798   */\n      mul\n        /* \"#utility.yul\":11818:11848   */\n      tag_282\n        /* \"#utility.yul\":11836:11847   */\n      dup2\n        /* \"#utility.yul\":11818:11848   */\n      tag_99\n      jump\t// in\n    tag_282:\n        /* \"#utility.yul\":11807:11848   */\n      swap2\n      pop\n        /* \"#utility.yul\":11997:11998   */\n      dup3\n        /* \"#utility.yul\":11988:11995   */\n      dup3\n        /* \"#utility.yul\":11984:11999   */\n      div\n        /* \"#utility.yul\":11981:11982   */\n      dup5\n        /* \"#utility.yul\":11978:12000   */\n      eq\n        /* \"#utility.yul\":11958:11959   */\n      dup4\n        /* \"#utility.yul\":11951:11960   */\n      iszero\n        /* \"#utility.yul\":11931:12014   */\n      or\n        /* \"#utility.yul\":11908:12047   */\n      tag_283\n      jumpi\n        /* \"#utility.yul\":12027:12045   */\n      tag_284\n      tag_113\n      jump\t// in\n    tag_284:\n        /* \"#utility.yul\":11908:12047   */\n    tag_283:\n        /* \"#utility.yul\":11692:12054   */\n      pop\n        /* \"#utility.yul\":11644:12054   */\n      swap3\n      swap2\n      pop\n      pop\n      jump\t// out\n        /* \"#utility.yul\":12060:12153   */\n    tag_118:\n        /* \"#utility.yul\":12097:12103   */\n      0x00\n        /* \"#utility.yul\":12144:12146   */\n      0x20\n        /* \"#utility.yul\":12139:12141   */\n      0x1f\n        /* \"#utility.yul\":12132:12137   */\n      dup4\n        /* \"#utility.yul\":12128:12142   */\n      add\n        /* \"#utility.yul\":12124:12147   */\n      div\n        /* \"#utility.yul\":12114:12147   */\n      swap1\n      pop\n        /* \"#utility.yul\":12060:12153   */\n      swap2\n      swap1\n      pop\n      jump\t// out\n        /* \"#utility.yul\":12159:12266   */\n    tag_119:\n        /* \"#utility.yul\":12203:12211   */\n      0x00\n        /* \"#utility.yul\":12253:12258   */\n      dup3\n        /* \"#utility.yul\":12247:12251   */\n      dup3\n        /* \"#utility.yul\":12243:12259   */\n      shl\n        /* \"#utility.yul\":12222:12259   */\n      swap1\n      pop\n        /* \"#utility.yul\":12159:12266   */\n      swap3\n      swap2\n      pop\n      pop\n      jump\t// out\n        /* \"#utility.yul\":12272:12665   */\n    tag_120:\n        /* \"#utility.yul\":12341:12347   */\n      0x00\n        /* \"#utility.yul\":12391:12392   */\n      0x08\n        /* \"#utility.yul\":12379:12389   */\n      dup4\n        /* \"#utility.yul\":12375:12393   */\n      mul\n        /* \"#utility.yul\":12414:12511   */\n      tag_288\n        /* \"#utility.yul\":12444:12510   */\n      0xffffffffffffffffffffffffffffffffffffffffffffffffffffffffffffffff\n        /* \"#utility.yul\":12433:12442   */\n      dup3\n        /* \"#utility.yul\":12414:12511   */\n      tag_119\n      jump\t// in\n    tag_288:\n        /* \"#utility.yul\":12532:12571   */\n      tag_289\n        /* \"#utility.yul\":12562:12570   */\n      dup7\n        /* \"#utility.yul\":12551:12560   */\n      dup4\n        /* \"#utility.yul\":12532:12571   */\n      tag_119\n      jump\t// in\n    tag_289:\n        /* \"#utility.yul\":12520:12571   */\n      swap6\n      pop\n        /* \"#utility.yul\":12604:12608   */\n      dup1\n        /* \"#utility.yul\":12600:12609   */\n      not\n        /* \"#utility.yul\":12593:12598   */\n      dup5\n        /* \"#utility.yul\":12589:12610   */\n      and\n        /* \"#utility.yul\":12580:12610   */\n      swap4\n      pop\n        /* \"#utility.yul\":12653:12657   */\n      dup1\n        /* \"#utility.yul\":12643:12651   */\n      dup7\n        /* \"#utility.yul\":12639:12658   */\n      and\n        /* \"#utility.yul\":12632:12637   */\n      dup5\n        /* \"#utility.yul\":12629:12659   */\n      or\n        /* \"#utility.yul\":12619:12659   */\n      swap3\n      pop\n        /* \"#utility.yul\":12348:12665   */\n      pop\n      pop\n        /* \"#utility.yul\":12272:12665   */\n      swap4\n      swap3\n      pop\n      pop\n      pop\n      jump\t// out\n        /* \"#utility.yul\":12671:12731   */\n    tag_121:\n        /* \"#utility.yul\":12699:12702   */\n      0x00\n        /* \"#utility.yul\":12720:12725   */\n      dup2\n        /* \"#utility.yul\":12713:12725   */\n      swap1\n      pop\n        /* \"#utility.yul\":12671:12731   */\n      swap2\n      swap1\n      pop\n      jump\t// out\n        /* \"#utility.yul\":12737:12879   */\n    tag_122:\n        /* \"#utility.yul\":12787:12796   */\n      0x00\n        /* \"#utility.yul\":12820:12873   */\n      tag_292\n        /* \"#utility.yul\":12838:12872   */\n      tag_293\n        /* \"#utility.yul\":12847:12871   */\n      tag_294\n        /* \"#utility.yul\":12865:12870   */\n      dup5\n        /* \"#utility.yul\":12847:12871   */\n      tag_99\n      jump\t// in\n    tag_294:\n        /* \"#utility.yul\":12838:12872   */\n      tag_121\n      jump\t// in\n    tag_293:\n        /* \"#utility.yul\":12820:12873   */\n      tag_99\n      jump\t// in\n    tag_292:\n        /* \"#utility.yul\":12807:12873   */\n      swap1\n      pop\n        /* \"#utility.yul\":12737:12879   */\n      swap2\n      swap1\n      pop\n      jump\t// out\n        /* \"#utility.yul\":12885:12960   */\n    tag_123:\n        /* \"#utility.yul\":12928:12931   */\n      0x00\n        /* \"#utility.yul\":12949:12954   */\n      dup2\n        /* \"#utility.yul\":12942:12954   */\n      swap1\n      pop\n        /* \"#utility.yul\":12885:12960   */\n      swap2\n      swap1\n      pop\n      jump\t// out\n        /* \"#utility.yul\":12966:13235   */\n    tag_124:\n        /* \"#utility.yul\":13076:13115   */\n      tag_297\n        /* \"#utility.yul\":13107:13114   */\n      dup4\n        /* \"#utility.yul\":13076:13115   */\n      tag_122\n      jump\t// in\n    tag_297:\n        /* \"#utility.yul\":13137:13228   */\n      tag_298\n        /* \"#utility.yul\":13186:13227   */\n      tag_299\n        /* \"#utility.yul\":13210:13226   */\n      dup3\n        /* \"#utility.yul\":13186:13227   */\n      tag_123\n      jump\t// in\n    tag_299:\n        /* \"#utility.yul\":13178:13184   */\n      dup5\n        /* \"#utility.yul\":13171:13175   */\n      dup5\n        /* \"#utility.yul\":13165:13176   */\n      sload\n        /* \"#utility.yul\":13137:13228   */\n      tag_120\n      jump\t// in\n    tag_298:\n        /* \"#utility.yul\":13131:13135   */\n      dup3\n        /* \"#utility.yul\":13124:13229   */\n      sstore\n        /* \"#utility.yul\":13042:13235   */\n      pop\n        /* \"#utility.yul\":12966:13235   */\n      pop\n      pop\n      pop\n      jump\t// out\n        /* \"#utility.yul\":13241:13314   */\n    tag_125:\n        /* \"#utility.yul\":13286:13289   */\n      0x00\n        /* \"#utility.yul\":13241:13314   */\n      swap1\n      jump\t// out\n        /* \"#utility.yul\":13320:13509   */\n    tag_126:\n        /* \"#utility.yul\":13397:13429   */\n      tag_302\n      tag_125\n      jump\t// in\n    tag_302:\n        /* \"#utility.yul\":13438:13503   */\n      tag_303\n        /* \"#utility.yul\":13496:13502   */\n      dup2\n        /* \"#utility.yul\":13488:13494   */\n      dup5\n        /* \"#utility.yul\":13482:13486   */\n      dup5\n        /* \"#utility.yul\":13438:13503   */\n      tag_124\n      jump\t// in\n    tag_303:\n        /* \"#utility.yul\":13373:13509   */\n      pop\n        /* \"#utility.yul\":13320:13509   */\n      pop\n      pop\n      jump\t// out\n        /* \"#utility.yul\":13515:13701   */\n    tag_127:\n        /* \"#utility.yul\":13575:13695   */\n    tag_305:\n        /* \"#utility.yul\":13592:13595   */\n      dup2\n        /* \"#utility.yul\":13585:13590   */\n      dup2\n        /* \"#utility.yul\":13582:13596   */\n      lt\n        /* \"#utility.yul\":13575:13695   */\n      iszero\n      tag_307\n      jumpi\n        /* \"#utility.yul\":13646:13685   */\n      tag_308\n        /* \"#utility.yul\":13683:13684   */\n      0x00\n        /* \"#utility.yul\":13676:13681   */\n      dup3\n        /* \"#utility.yul\":13646:13685   */\n      tag_126\n      jump\t// in\n    tag_308:\n        /* \"#utility.yul\":13619:13620   */\n      0x01\n        /* \"#utility.yul\":13612:13617   */\n      dup2\n        /* \"#utility.yul\":13608:13621   */\n      add\n        /* \"#utility.yul\":13599:13621   */\n      swap1\n      pop\n        /* \"#utility.yul\":13575:13695   */\n      jump(tag_305)\n    tag_307:\n        /* \"#utility.yul\":13515:13701   */\n      pop\n      pop\n      jump\t// out\n        /* \"#utility.yul\":13707:14250   */\n    tag_128:\n        /* \"#utility.yul\":13808:13810   */\n      0x1f\n        /* \"#utility.yul\":13803:13806   */\n      dup3\n        /* \"#utility.yul\":13800:13811   */\n      gt\n        /* \"#utility.yul\":13797:14243   */\n      iszero\n      tag_310\n      jumpi\n        /* \"#utility.yul\":13842:13880   */\n      tag_311\n        /* \"#utility.yul\":13874:13879   */\n      dup2\n        /* \"#utility.yul\":13842:13880   */\n      tag_115\n      jump\t// in\n    tag_311:\n        /* \"#utility.yul\":13926:13955   */\n      tag_312\n        /* \"#utility.yul\":13944:13954   */\n      dup5\n        /* \"#utility.yul\":13926:13955   */\n      tag_118\n      jump\t// in\n    tag_312:\n        /* \"#utility.yul\":13916:13924   */\n      dup2\n        /* \"#utility.yul\":13912:13956   */\n      add\n        /* \"#utility.yul\":14109:14111   */\n      0x20\n        /* \"#utility.yul\":14097:14107   */\n      dup6\n        /* \"#utility.yul\":14094:14112   */\n      lt\n        /* \"#utility.yul\":14091:14140   */\n      iszero\n      tag_313\n      jumpi\n        /* \"#utility.yul\":14130:14138   */\n      dup2\n        /* \"#utility.yul\":14115:14138   */\n      swap1\n      pop\n        /* \"#utility.yul\":14091:14140   */\n    tag_313:\n        /* \"#utility.yul\":14153:14233   */\n      tag_314\n        /* \"#utility.yul\":14209:14231   */\n      tag_315\n        /* \"#utility.yul\":14227:14230   */\n      dup6\n        /* \"#utility.yul\":14209:14231   */\n      tag_118\n      jump\t// in\n    tag_315:\n        /* \"#utility.yul\":14199:14207   */\n      dup4\n        /* \"#utility.yul\":14195:14232   */\n      add\n        /* \"#utility.yul\":14182:14193   */\n      dup3\n        /* \"#utility.yul\":14153:14233   */\n      tag_127\n      jump\t// in\n    tag_314:\n        /* \"#utility.yul\":13812:14243   */\n      pop\n      pop\n        /* \"#utility.yul\":13797:14243   */\n    tag_310:\n        /* \"#utility.yul\":13707:14250   */\n      pop\n      pop\n      pop\n      jump\t// out\n        /* \"#utility.yul\":14256:14373   */\n    tag_129:\n        /* \"#utility.yul\":14310:14318   */\n      0x00\n        /* \"#utility.yul\":14360:14365   */\n      dup3\n        /* \"#utility.yul\":14354:14358   */\n      dup3\n        /* \"#utility.yul\":14350:14366   */\n      shr\n        /* \"#utility.yul\":14329:14366   */\n      swap1\n      pop\n        /* \"#utility.yul\":14256:14373   */\n      swap3\n      swap2\n      pop\n      pop\n      jump\t// out\n        /* \"#utility.yul\":14379:14548   */\n    tag_130:\n        /* \"#utility.yul\":14423:14429   */\n      0x00\n        /* \"#utility.yul\":14456:14507   */\n      tag_318\n        /* \"#utility.yul\":14504:14505   */\n      0x00\n        /* \"#utility.yul\":14500:14506   */\n      not\n        /* \"#utility.yul\":14492:14497   */\n      dup5\n        /* \"#utility.yul\":14489:14490   */\n      0x08\n        /* \"#utility.yul\":14485:14498   */\n      mul\n        /* \"#utility.yul\":14456:14507   */\n      tag_129\n      jump\t// in\n    tag_318:\n        /* \"#utility.yul\":14452:14508   */\n      not\n        /* \"#utility.yul\":14537:14541   */\n      dup1\n        /* \"#utility.yul\":14531:14535   */\n      dup4\n        /* \"#utility.yul\":14527:14542   */\n      and\n        /* \"#utility.yul\":14517:14542   */\n      swap2\n      pop\n        /* \"#utility.yul\":14430:14548   */\n      pop\n        /* \"#utility.yul\":14379:14548   */\n      swap3\n      swap2\n      pop\n      pop\n      jump\t// out\n        /* \"#utility.yul\":14553:14848   */\n    tag_131:\n        /* \"#utility.yul\":14629:14633   */\n      0x00\n        /* \"#utility.yul\":14775:14804   */\n      tag_320\n        /* \"#utility.yul\":14800:14803   */\n      dup4\n        /* \"#utility.yul\":14794:14798   */\n      dup4\n        /* \"#utility.yul\":14775:14804   */\n      tag_130\n      jump\t// in\n    tag_320:\n        /* \"#utility.yul\":14767:14804   */\n      swap2\n      pop\n        /* \"#utility.yul\":14837:14840   */\n      dup3\n        /* \"#utility.yul\":14834:14835   */\n      0x02\n        /* \"#utility.yul\":14830:14841   */\n      mul\n        /* \"#utility.yul\":14824:14828   */\n      dup3\n        /* \"#utility.yul\":14821:14842   */\n      or\n        /* \"#utility.yul\":14813:14842   */\n      swap1\n      pop\n        /* \"#utility.yul\":14553:14848   */\n      swap3\n      swap2\n      pop\n      pop\n      jump\t// out\n        /* \"#utility.yul\":14853:16248   */\n    tag_80:\n        /* \"#utility.yul\":14970:15007   */\n      tag_322\n        /* \"#utility.yul\":15003:15006   */\n      dup3\n        /* \"#utility.yul\":14970:15007   */\n      tag_90\n      jump\t// in\n    tag_322:\n        /* \"#utility.yul\":15072:15090   */\n      0xffffffffffffffff\n        /* \"#utility.yul\":15064:15070   */\n      dup2\n        /* \"#utility.yul\":15061:15091   */\n      gt\n        /* \"#utility.yul\":15058:15114   */\n      iszero\n      tag_323\n      jumpi\n        /* \"#utility.yul\":15094:15112   */\n      tag_324\n      tag_105\n      jump\t// in\n    tag_324:\n        /* \"#utility.yul\":15058:15114   */\n    tag_323:\n        /* \"#utility.yul\":15138:15176   */\n      tag_325\n        /* \"#utility.yul\":15170:15174   */\n      dup3\n        /* \"#utility.yul\":15164:15175   */\n      sload\n        /* \"#utility.yul\":15138:15176   */\n      tag_27\n      jump\t// in\n    tag_325:\n        /* \"#utility.yul\":15223:15290   */\n      tag_326\n        /* \"#utility.yul\":15283:15289   */\n      dup3\n        /* \"#utility.yul\":15275:15281   */\n      dup3\n        /* \"#utility.yul\":15269:15273   */\n      dup6\n        /* \"#utility.yul\":15223:15290   */\n      tag_128\n      jump\t// in\n    tag_326:\n        /* \"#utility.yul\":15317:15318   */\n      0x00\n        /* \"#utility.yul\":15341:15345   */\n      0x20\n        /* \"#utility.yul\":15328:15345   */\n      swap1\n      pop\n        /* \"#utility.yul\":15373:15375   */\n      0x1f\n        /* \"#utility.yul\":15365:15371   */\n      dup4\n        /* \"#utility.yul\":15362:15376   */\n      gt\n        /* \"#utility.yul\":15390:15391   */\n      0x01\n        /* \"#utility.yul\":15385:16003   */\n      dup2\n      eq\n      tag_328\n      jumpi\n        /* \"#utility.yul\":16047:16048   */\n      0x00\n        /* \"#utility.yul\":16064:16070   */\n      dup5\n        /* \"#utility.yul\":16061:16138   */\n      iszero\n      tag_329\n      jumpi\n        /* \"#utility.yul\":16113:16122   */\n      dup3\n        /* \"#utility.yul\":16108:16111   */\n      dup8\n        /* \"#utility.yul\":16104:16123   */\n      add\n        /* \"#utility.yul\":16098:16124   */\n      mload\n        /* \"#utility.yul\":16089:16124   */\n      swap1\n      pop\n        /* \"#utility.yul\":16061:16138   */\n    tag_329:\n        /* \"#utility.yul\":16164:16231   */\n      tag_330\n        /* \"#utility.yul\":16224:16230   */\n      dup6\n        /* \"#utility.yul\":16217:16222   */\n      dup3\n        /* \"#utility.yul\":16164:16231   */\n      tag_131\n      jump\t// in\n    tag_330:\n        /* \"#utility.yul\":16158:16162   */\n      dup7\n        /* \"#utility.yul\":16151:16232   */\n      sstore\n        /* \"#utility.yul\":16020:16242   */\n      pop\n        /* \"#utility.yul\":15355:16242   */\n      jump(tag_327)\n        /* \"#utility.yul\":15385:16003   */\n    tag_328:\n        /* \"#utility.yul\":15437:15441   */\n      0x1f\n        /* \"#utility.yul\":15433:15442   */\n      not\n        /* \"#utility.yul\":15425:15431   */\n      dup5\n        /* \"#utility.yul\":15421:15443   */\n      and\n        /* \"#utility.yul\":15471:15508   */\n      tag_331\n        /* \"#utility.yul\":15503:15507   */\n      dup7\n        /* \"#utility.yul\":15471:15508   */\n      tag_115\n      jump\t// in\n    tag_331:\n        /* \"#utility.yul\":15530:15531   */\n      0x00\n        /* \"#utility.yul\":15544:15752   */\n    tag_332:\n        /* \"#utility.yul\":15558:15565   */\n      dup3\n        /* \"#utility.yul\":15555:15556   */\n      dup2\n        /* \"#utility.yul\":15552:15566   */\n      lt\n        /* \"#utility.yul\":15544:15752   */\n      iszero\n      tag_334\n      jumpi\n        /* \"#utility.yul\":15637:15646   */\n      dup5\n        /* \"#utility.yul\":15632:15635   */\n      dup10\n        /* \"#utility.yul\":15628:15647   */\n      add\n        /* \"#utility.yul\":15622:15648   */\n      mload\n        /* \"#utility.yul\":15614:15620   */\n      dup3\n        /* \"#utility.yul\":15607:15649   */\n      sstore\n        /* \"#utility.yul\":15688:15689   */\n      0x01\n        /* \"#utility.yul\":15680:15686   */\n      dup3\n        /* \"#utility.yul\":15676:15690   */\n      add\n        /* \"#utility.yul\":15666:15690   */\n      swap2\n      pop\n        /* \"#utility.yul\":15735:15737   */\n      0x20\n        /* \"#utility.yul\":15724:15733   */\n      dup6\n        /* \"#utility.yul\":15720:15738   */\n      add\n        /* \"#utility.yul\":15707:15738   */\n      swap5\n      pop\n        /* \"#utility.yul\":15581:15585   */\n      0x20\n        /* \"#utility.yul\":15578:15579   */\n      dup2\n        /* \"#utility.yul\":15574:15586   */\n      add\n        /* \"#utility.yul\":15569:15586   */\n      swap1\n      pop\n        /* \"#utility.yul\":15544:15752   */\n      jump(tag_332)\n    tag_334:\n        /* \"#utility.yul\":15780:15786   */\n      dup7\n        /* \"#utility.yul\":15771:15778   */\n      dup4\n        /* \"#utility.yul\":15768:15787   */\n      lt\n        /* \"#utility.yul\":15765:15944   */\n      iszero\n      tag_335\n      jumpi\n        /* \"#utility.yul\":15838:15847   */\n      dup5\n        /* \"#utility.yul\":15833:15836   */\n      dup10\n        /* \"#utility.yul\":15829:15848   */\n      add\n        /* \"#utility.yul\":15823:15849   */\n      mload\n        /* \"#utility.yul\":15881:15929   */\n      tag_336\n        /* \"#utility.yul\":15923:15927   */\n      0x1f\n        /* \"#utility.yul\":15915:15921   */\n      dup10\n        /* \"#utility.yul\":15911:15928   */\n      and\n        /* \"#utility.yul\":15900:15909   */\n      dup3\n        /* \"#utility.yul\":15881:15929   */\n      tag_130\n      jump\t// in\n    tag_336:\n        /* \"#utility.yul\":15873:15879   */\n      dup4\n        /* \"#utility.yul\":15866:15930   */\n      sstore\n        /* \"#utility.yul\":15788:15944   */\n      pop\n        /* \"#utility.yul\":15765:15944   */\n    tag_335:\n        /* \"#utility.yul\":15990:15991   */\n      0x01\n        /* \"#utility.yul\":15986:15987   */\n      0x02\n        /* \"#utility.yul\":15978:15984   */\n      dup9\n        /* \"#utility.yul\":15974:15988   */\n      mul\n        /* \"#utility.yul\":15970:15992   */\n      add\n        /* \"#utility.yul\":15964:15968   */\n      dup9\n        /* \"#utility.yul\":15957:15993   */\n      sstore\n        /* \"#utility.yul\":15392:16003   */\n      pop\n      pop\n      pop\n        /* \"#utility.yul\":15355:16242   */\n    tag_327:\n      pop\n        /* \"#utility.yul\":14945:16248   */\n      pop\n      pop\n      pop\n        /* \"#utility.yul\":14853:16248   */\n      pop\n      pop\n      jump\t// out\n        /* \"#utility.yul\":16254:16677   */\n    tag_82:\n        /* \"#utility.yul\":16395:16399   */\n      0x00\n        /* \"#utility.yul\":16433:16435   */\n      0x40\n        /* \"#utility.yul\":16422:16431   */\n      dup3\n        /* \"#utility.yul\":16418:16436   */\n      add\n        /* \"#utility.yul\":16410:16436   */\n      swap1\n      pop\n        /* \"#utility.yul\":16446:16517   */\n      tag_338\n        /* \"#utility.yul\":16514:16515   */\n      0x00\n        /* \"#utility.yul\":16503:16512   */\n      dup4\n        /* \"#utility.yul\":16499:16516   */\n      add\n        /* \"#utility.yul\":16490:16496   */\n      dup6\n        /* \"#utility.yul\":16446:16517   */\n      tag_114\n      jump\t// in\n    tag_338:\n        /* \"#utility.yul\":16564:16573   */\n      dup2\n        /* \"#utility.yul\":16558:16562   */\n      dup2\n        /* \"#utility.yul\":16554:16574   */\n      sub\n        /* \"#utility.yul\":16549:16551   */\n      0x20\n        /* \"#utility.yul\":16538:16547   */\n      dup4\n        /* \"#utility.yul\":16534:16552   */\n      add\n        /* \"#utility.yul\":16527:16575   */\n      mstore\n        /* \"#utility.yul\":16592:16670   */\n      tag_339\n        /* \"#utility.yul\":16665:16669   */\n      dup2\n        /* \"#utility.yul\":16656:16662   */\n      dup5\n        /* \"#utility.yul\":16592:16670   */\n      tag_94\n      jump\t// in\n    tag_339:\n        /* \"#utility.yul\":16584:16670   */\n      swap1\n      pop\n        /* \"#utility.yul\":16254:16677   */\n      swap4\n      swap3\n      pop\n      pop\n      pop\n      jump\t// out\n\n    auxdata: 0xa2646970667358221220d53e943c375cdc662613468feb1d122235a9d40ae9a1a0756a933f2e955e254464736f6c63430008110033\n}\n",
				"bytecode": {
					"linkReferences": {},
					"object": "608060405234801561001057600080fd5b50611526806100206000396000f3fe608060405234801561001057600080fd5b50600436106100575760003560e01c8063088f0fb91461005c57806346cbfc3a1461009257806377d6fc43146100b5578063a2e42437146100bf578063d3816bac146100c9575b600080fd5b61007660048036038101906100719190610b65565b6100e5565b6040516100899796959493929190610c8f565b60405180910390f35b61009a6101f1565b6040516100ac96959493929190610d05565b60405180910390f35b6100bd6103a8565b005b6100c76106bf565b005b6100e360048036038101906100de9190610ea2565b6108e3565b005b600060205280600052604060002060009150905080600001805461010890610f1a565b80601f016020809104026020016040519081016040528092919081815260200182805461013490610f1a565b80156101815780601f1061015657610100808354040283529160200191610181565b820191906000526020600020905b81548152906001019060200180831161016457829003601f168201915b5050505050908060010160009054906101000a900460ff16908060010160019054906101000a900460ff16908060010160029054906101000a900461ffff16908060010160049054906101000a900460ff16908060020154908060030160009054906101000a900460ff16905087565b60606000806000806000806000803373ffffffffffffffffffffffffffffffffffffffff1673ffffffffffffffffffffffffffffffffffffffff1681526020019081526020016000206040518060e001604052908160008201805461025590610f1a565b80601f016020809104026020016040519081016040528092919081815260200182805461028190610f1a565b80156102ce5780601f106102a3576101008083540402835291602001916102ce565b820191906000526020600020905b8154815290600101906020018083116102b157829003601f168201915b505050505081526020016001820160009054906101000a900460ff1660ff1660ff1681526020016001820160019054906101000a900460ff1660ff1660ff1681526020016001820160029054906101000a900461ffff1661ffff1661ffff1681526020016001820160049054906101000a900460ff1660ff1660ff168152602001600282015481526020016003820160009054906101000a900460ff1615151515815250509050806000015181602001518260400151836060015184608001518560c0015196509650965096509650965050909192939495565b60008060003373ffffffffffffffffffffffffffffffffffffffff1673ffffffffffffffffffffffffffffffffffffffff16815260200190815260200160002090508060030160009054906101000a900460ff16610432576040517f5dbaefb700000000000000000000000000000000000000000000000000000000815260040160405180910390fd5b610e108160020154426104459190610f7a565b101561047d576040517ff95998e700000000000000000000000000000000000000000000000000000000815260040160405180910390fd5b600a8160010160009054906101000a900460ff1660ff16106104d757600a8160010160008282829054906101000a900460ff166104ba9190610fae565b92506101000a81548160ff021916908360ff1602179055506104f6565b60008160010160006101000a81548160ff021916908360ff1602179055505b600a8160010160028282829054906101000a900461ffff166105189190610fe3565b92506101000a81548161ffff021916908361ffff16021790555060648160010160049054906101000a900460ff166105509190611019565b60ff168160010160029054906101000a900461ffff1661ffff16106106695780600101600481819054906101000a900460ff168092919061059090611056565b91906101000a81548160ff021916908360ff16021790555050600a8160010160018282829054906101000a900460ff166105ca919061107f565b92506101000a81548160ff021916908360ff16021790555060648160010160019054906101000a900460ff1660ff16111561061e5760648160010160016101000a81548160ff021916908360ff1602179055505b7f95c4d5633ea0fc1354b860fe62e117356b617ec5bc5d49b9851e5cfe9d2753b2338260010160049054906101000a900460ff166040516106609291906110c3565b60405180910390a15b4281600201819055507f16f96e6e626315dd7c6ff834adde15ed7ba6fbf5843506c5ae3a23195e8f0066338260010160009054906101000a900460ff166040516106b49291906110c3565b60405180910390a150565b60008060003373ffffffffffffffffffffffffffffffffffffffff1673ffffffffffffffffffffffffffffffffffffffff16815260200190815260200160002090508060030160009054906101000a900460ff16610749576040517fda43d7f400000000000000000000000000000000000000000000000000000000815260040160405180910390fd5b6203f48081600201544261075d9190610f7a565b11156107bd5760008160030160006101000a81548160ff0219169083151502179055507fe9c07b99abcebf283e1ba71a30e67021390736982ef6ee03ffdd7ac4364d928533826000016040516107b4929190611185565b60405180910390a15b6000610e108260020154426107d29190610f7a565b6107dc91906111e4565b905060008111156108df576002816107f49190611215565b8260010160008282829054906101000a900460ff16610813919061107f565b92506101000a81548160ff021916908360ff16021790555060648260010160009054906101000a900460ff1660ff1611156108675760648260010160006101000a81548160ff021916908360ff1602179055505b60468260010160009054906101000a900460ff1660ff1611801561089f575060008260010160019054906101000a900460ff1660ff16115b156108de5760058260010160018282829054906101000a900460ff166108c59190610fae565b92506101000a81548160ff021916908360ff1602179055505b5b5050565b6000803373ffffffffffffffffffffffffffffffffffffffff1673ffffffffffffffffffffffffffffffffffffffff16815260200190815260200160002060030160009054906101000a900460ff1615610969576040517fd4e8788500000000000000000000000000000000000000000000000000000000815260040160405180910390fd5b6040518060e00160405280828152602001603260ff168152602001606460ff168152602001600061ffff168152602001600160ff168152602001428152602001600115158152506000803373ffffffffffffffffffffffffffffffffffffffff1673ffffffffffffffffffffffffffffffffffffffff1681526020019081526020016000206000820151816000019081610a0391906113ee565b5060208201518160010160006101000a81548160ff021916908360ff16021790555060408201518160010160016101000a81548160ff021916908360ff16021790555060608201518160010160026101000a81548161ffff021916908361ffff16021790555060808201518160010160046101000a81548160ff021916908360ff16021790555060a0820151816002015560c08201518160030160006101000a81548160ff0219169083151502179055509050507f243720defc8f10ed8fffc2851c459e1e21c1895299b80b2f6b8227b51cd8a17b3382604051610ae89291906114c0565b60405180910390a150565b6000604051905090565b600080fd5b600080fd5b600073ffffffffffffffffffffffffffffffffffffffff82169050919050565b6000610b3282610b07565b9050919050565b610b4281610b27565b8114610b4d57600080fd5b50565b600081359050610b5f81610b39565b92915050565b600060208284031215610b7b57610b7a610afd565b5b6000610b8984828501610b50565b91505092915050565b600081519050919050565b600082825260208201905092915050565b60005b83811015610bcc578082015181840152602081019050610bb1565b60008484015250505050565b6000601f19601f8301169050919050565b6000610bf482610b92565b610bfe8185610b9d565b9350610c0e818560208601610bae565b610c1781610bd8565b840191505092915050565b600060ff82169050919050565b610c3881610c22565b82525050565b600061ffff82169050919050565b610c5581610c3e565b82525050565b6000819050919050565b610c6e81610c5b565b82525050565b60008115159050919050565b610c8981610c74565b82525050565b600060e0820190508181036000830152610ca9818a610be9565b9050610cb86020830189610c2f565b610cc56040830188610c2f565b610cd26060830187610c4c565b610cdf6080830186610c2f565b610cec60a0830185610c65565b610cf960c0830184610c80565b98975050505050505050565b600060c0820190508181036000830152610d1f8189610be9565b9050610d2e6020830188610c2f565b610d3b6040830187610c2f565b610d486060830186610c4c565b610d556080830185610c2f565b610d6260a0830184610c80565b979650505050505050565b600080fd5b600080fd5b7f4e487b7100000000000000000000000000000000000000000000000000000000600052604160045260246000fd5b610daf82610bd8565b810181811067ffffffffffffffff82111715610dce57610dcd610d77565b5b80604052505050565b6000610de1610af3565b9050610ded8282610da6565b919050565b600067ffffffffffffffff821115610e0d57610e0c610d77565b5b610e1682610bd8565b9050602081019050919050565b82818337600083830152505050565b6000610e45610e4084610df2565b610dd7565b905082815260208101848484011115610e6157610e60610d72565b5b610e6c848285610e23565b509392505050565b600082601f830112610e8957610e88610d6d565b5b8135610e99848260208601610e32565b91505092915050565b600060208284031215610eb857610eb7610afd565b5b600082013567ffffffffffffffff811115610ed657610ed5610b02565b5b610ee284828501610e74565b91505092915050565b7f4e487b7100000000000000000000000000000000000000000000000000000000600052602260045260246000fd5b60006002820490506001821680610f3257607f821691505b602082108103610f4557610f44610eeb565b5b50919050565b7f4e487b7100000000000000000000000000000000000000000000000000000000600052601160045260246000fd5b6000610f8582610c5b565b9150610f9083610c5b565b9250828203905081811115610fa857610fa7610f4b565b5b92915050565b6000610fb982610c22565b9150610fc483610c22565b9250828203905060ff811115610fdd57610fdc610f4b565b5b92915050565b6000610fee82610c3e565b9150610ff983610c3e565b9250828201905061ffff81111561101357611012610f4b565b5b92915050565b600061102482610c22565b915061102f83610c22565b925082820261103d81610c22565b915080821461104f5761104e610f4b565b5b5092915050565b600061106182610c22565b915060ff820361107457611073610f4b565b5b600182019050919050565b600061108a82610c22565b915061109583610c22565b9250828201905060ff8111156110ae576110ad610f4b565b5b92915050565b6110bd81610b27565b82525050565b60006040820190506110d860008301856110b4565b6110e56020830184610c2f565b9392505050565b60008190508160005260206000209050919050565b6000815461110e81610f1a565b6111188186610b9d565b9450600182166000811461113357600181146111495761117c565b60ff19831686528115156020028601935061117c565b611152856110ec565b60005b8381101561117457815481890152600182019150602081019050611155565b808801955050505b50505092915050565b600060408201905061119a60008301856110b4565b81810360208301526111ac8184611101565b90509392505050565b7f4e487b7100000000000000000000000000000000000000000000000000000000600052601260045260246000fd5b60006111ef82610c5b565b91506111fa83610c5b565b92508261120a576112096111b5565b5b828204905092915050565b600061122082610c5b565b915061122b83610c5b565b925082820261123981610c5b565b915082820484148315176112505761124f610f4b565b5b5092915050565b60006020601f8301049050919050565b600082821b905092915050565b6000600883026112a47fffffffffffffffffffffffffffffffffffffffffffffffffffffffffffffffff82611267565b6112ae8683611267565b95508019841693508086168417925050509392505050565b6000819050919050565b60006112eb6112e66112e184610c5b565b6112c6565b610c5b565b9050919050565b6000819050919050565b611305836112d0565b611319611311826112f2565b848454611274565b825550505050565b600090565b61132e611321565b6113398184846112fc565b505050565b5b8181101561135d57611352600082611326565b60018101905061133f565b5050565b601f8211156113a257611373816110ec565b61137c84611257565b8101602085101561138b578190505b61139f61139785611257565b83018261133e565b50505b505050565b600082821c905092915050565b60006113c5600019846008026113a7565b1980831691505092915050565b60006113de83836113b4565b9150826002028217905092915050565b6113f782610b92565b67ffffffffffffffff8111156114105761140f610d77565b5b61141a8254610f1a565b611425828285611361565b600060209050601f8311600181146114585760008415611446578287015190505b61145085826113d2565b8655506114b8565b601f198416611466866110ec565b60005b8281101561148e57848901518255600182019150602085019450602081019050611469565b868310156114ab57848901516114a7601f8916826113b4565b8355505b6001600288020188555050505b505050505050565b60006040820190506114d560008301856110b4565b81810360208301526114e78184610be9565b9050939250505056fea2646970667358221220d53e943c375cdc662613468feb1d122235a9d40ae9a1a0756a933f2e955e254464736f6c63430008110033",
					"opcodes": "PUSH1 0x80 PUSH1 0x40 MSTORE CALLVALUE DUP1 ISZERO PUSH2 0x10 JUMPI PUSH1 0x0 DUP1 REVERT JUMPDEST POP PUSH2 0x1526 DUP1 PUSH2 0x20 PUSH1 0x0 CODECOPY PUSH1 0x0 RETURN INVALID PUSH1 0x80 PUSH1 0x40 MSTORE CALLVALUE DUP1 ISZERO PUSH2 0x10 JUMPI PUSH1 0x0 DUP1 REVERT JUMPDEST POP PUSH1 0x4 CALLDATASIZE LT PUSH2 0x57 JUMPI PUSH1 0x0 CALLDATALOAD PUSH1 0xE0 SHR DUP1 PUSH4 0x88F0FB9 EQ PUSH2 0x5C JUMPI DUP1 PUSH4 0x46CBFC3A EQ PUSH2 0x92 JUMPI DUP1 PUSH4 0x77D6FC43 EQ PUSH2 0xB5 JUMPI DUP1 PUSH4 0xA2E42437 EQ PUSH2 0xBF JUMPI DUP1 PUSH4 0xD3816BAC EQ PUSH2 0xC9 JUMPI JUMPDEST PUSH1 0x0 DUP1 REVERT JUMPDEST PUSH2 0x76 PUSH1 0x4 DUP1 CALLDATASIZE SUB DUP2 ADD SWAP1 PUSH2 0x71 SWAP2 SWAP1 PUSH2 0xB65 JUMP JUMPDEST PUSH2 0xE5 JUMP JUMPDEST PUSH1 0x40 MLOAD PUSH2 0x89 SWAP8 SWAP7 SWAP6 SWAP5 SWAP4 SWAP3 SWAP2 SWAP1 PUSH2 0xC8F JUMP JUMPDEST PUSH1 0x40 MLOAD DUP1 SWAP2 SUB SWAP1 RETURN JUMPDEST PUSH2 0x9A PUSH2 0x1F1 JUMP JUMPDEST PUSH1 0x40 MLOAD PUSH2 0xAC SWAP7 SWAP6 SWAP5 SWAP4 SWAP3 SWAP2 SWAP1 PUSH2 0xD05 JUMP JUMPDEST PUSH1 0x40 MLOAD DUP1 SWAP2 SUB SWAP1 RETURN JUMPDEST PUSH2 0xBD PUSH2 0x3A8 JUMP JUMPDEST STOP JUMPDEST PUSH2 0xC7 PUSH2 0x6BF JUMP JUMPDEST STOP JUMPDEST PUSH2 0xE3 PUSH1 0x4 DUP1 CALLDATASIZE SUB DUP2 ADD SWAP1 PUSH2 0xDE SWAP2 SWAP1 PUSH2 0xEA2 JUMP JUMPDEST PUSH2 0x8E3 JUMP JUMPDEST STOP JUMPDEST PUSH1 0x0 PUSH1 0x20 MSTORE DUP1 PUSH1 0x0 MSTORE PUSH1 0x40 PUSH1 0x0 KECCAK256 PUSH1 0x0 SWAP2 POP SWAP1 POP DUP1 PUSH1 0x0 ADD DUP1 SLOAD PUSH2 0x108 SWAP1 PUSH2 0xF1A JUMP JUMPDEST DUP1 PUSH1 0x1F ADD PUSH1 0x20 DUP1 SWAP2 DIV MUL PUSH1 0x20 ADD PUSH1 0x40 MLOAD SWAP1 DUP2 ADD PUSH1 0x40 MSTORE DUP1 SWAP3 SWAP2 SWAP1 DUP2 DUP2 MSTORE PUSH1 0x20 ADD DUP3 DUP1 SLOAD PUSH2 0x134 SWAP1 PUSH2 0xF1A JUMP JUMPDEST DUP1 ISZERO PUSH2 0x181 JUMPI DUP1 PUSH1 0x1F LT PUSH2 0x156 JUMPI PUSH2 0x100 DUP1 DUP4 SLOAD DIV MUL DUP4 MSTORE SWAP2 PUSH1 0x20 ADD SWAP2 PUSH2 0x181 JUMP JUMPDEST DUP3 ADD SWAP2 SWAP1 PUSH1 0x0 MSTORE PUSH1 0x20 PUSH1 0x0 KECCAK256 SWAP1 JUMPDEST DUP2 SLOAD DUP2 MSTORE SWAP1 PUSH1 0x1 ADD SWAP1 PUSH1 0x20 ADD DUP1 DUP4 GT PUSH2 0x164 JUMPI DUP3 SWAP1 SUB PUSH1 0x1F AND DUP3 ADD SWAP2 JUMPDEST POP POP POP POP POP SWAP1 DUP1 PUSH1 0x1 ADD PUSH1 0x0 SWAP1 SLOAD SWAP1 PUSH2 0x100 EXP SWAP1 DIV PUSH1 0xFF AND SWAP1 DUP1 PUSH1 0x1 ADD PUSH1 0x1 SWAP1 SLOAD SWAP1 PUSH2 0x100 EXP SWAP1 DIV PUSH1 0xFF AND SWAP1 DUP1 PUSH1 0x1 ADD PUSH1 0x2 SWAP1 SLOAD SWAP1 PUSH2 0x100 EXP SWAP1 DIV PUSH2 0xFFFF AND SWAP1 DUP1 PUSH1 0x1 ADD PUSH1 0x4 SWAP1 SLOAD SWAP1 PUSH2 0x100 EXP SWAP1 DIV PUSH1 0xFF AND SWAP1 DUP1 PUSH1 0x2 ADD SLOAD SWAP1 DUP1 PUSH1 0x3 ADD PUSH1 0x0 SWAP1 SLOAD SWAP1 PUSH2 0x100 EXP SWAP1 DIV PUSH1 0xFF AND SWAP1 POP DUP8 JUMP JUMPDEST PUSH1 0x60 PUSH1 0x0 DUP1 PUSH1 0x0 DUP1 PUSH1 0x0 DUP1 PUSH1 0x0 DUP1 CALLER PUSH20 0xFFFFFFFFFFFFFFFFFFFFFFFFFFFFFFFFFFFFFFFF AND PUSH20 0xFFFFFFFFFFFFFFFFFFFFFFFFFFFFFFFFFFFFFFFF AND DUP2 MSTORE PUSH1 0x20 ADD SWAP1 DUP2 MSTORE PUSH1 0x20 ADD PUSH1 0x0 KECCAK256 PUSH1 0x40 MLOAD DUP1 PUSH1 0xE0 ADD PUSH1 0x40 MSTORE SWAP1 DUP2 PUSH1 0x0 DUP3 ADD DUP1 SLOAD PUSH2 0x255 SWAP1 PUSH2 0xF1A JUMP JUMPDEST DUP1 PUSH1 0x1F ADD PUSH1 0x20 DUP1 SWAP2 DIV MUL PUSH1 0x20 ADD PUSH1 0x40 MLOAD SWAP1 DUP2 ADD PUSH1 0x40 MSTORE DUP1 SWAP3 SWAP2 SWAP1 DUP2 DUP2 MSTORE PUSH1 0x20 ADD DUP3 DUP1 SLOAD PUSH2 0x281 SWAP1 PUSH2 0xF1A JUMP JUMPDEST DUP1 ISZERO PUSH2 0x2CE JUMPI DUP1 PUSH1 0x1F LT PUSH2 0x2A3 JUMPI PUSH2 0x100 DUP1 DUP4 SLOAD DIV MUL DUP4 MSTORE SWAP2 PUSH1 0x20 ADD SWAP2 PUSH2 0x2CE JUMP JUMPDEST DUP3 ADD SWAP2 SWAP1 PUSH1 0x0 MSTORE PUSH1 0x20 PUSH1 0x0 KECCAK256 SWAP1 JUMPDEST DUP2 SLOAD DUP2 MSTORE SWAP1 PUSH1 0x1 ADD SWAP1 PUSH1 0x20 ADD DUP1 DUP4 GT PUSH2 0x2B1 JUMPI DUP3 SWAP1 SUB PUSH1 0x1F AND DUP3 ADD SWAP2 JUMPDEST POP POP POP POP POP DUP2 MSTORE PUSH1 0x20 ADD PUSH1 0x1 DUP3 ADD PUSH1 0x0 SWAP1 SLOAD SWAP1 PUSH2 0x100 EXP SWAP1 DIV PUSH1 0xFF AND PUSH1 0xFF AND PUSH1 0xFF AND DUP2 MSTORE PUSH1 0x20 ADD PUSH1 0x1 DUP3 ADD PUSH1 0x1 SWAP1 SLOAD SWAP1 PUSH2 0x100 EXP SWAP1 DIV PUSH1 0xFF AND PUSH1 0xFF AND PUSH1 0xFF AND DUP2 MSTORE PUSH1 0x20 ADD PUSH1 0x1 DUP3 ADD PUSH1 0x2 SWAP1 SLOAD SWAP1 PUSH2 0x100 EXP SWAP1 DIV PUSH2 0xFFFF AND PUSH2 0xFFFF AND PUSH2 0xFFFF AND DUP2 MSTORE PUSH1 0x20 ADD PUSH1 0x1 DUP3 ADD PUSH1 0x4 SWAP1 SLOAD SWAP1 PUSH2 0x100 EXP SWAP1 DIV PUSH1 0xFF AND PUSH1 0xFF AND PUSH1 0xFF AND DUP2 MSTORE PUSH1 0x20 ADD PUSH1 0x2 DUP3 ADD SLOAD DUP2 MSTORE PUSH1 0x20 ADD PUSH1 0x3 DUP3 ADD PUSH1 0x0 SWAP1 SLOAD SWAP1 PUSH2 0x100 EXP SWAP1 DIV PUSH1 0xFF AND ISZERO ISZERO ISZERO ISZERO DUP2 MSTORE POP POP SWAP1 POP DUP1 PUSH1 0x0 ADD MLOAD DUP2 PUSH1 0x20 ADD MLOAD DUP3 PUSH1 0x40 ADD MLOAD DUP4 PUSH1 0x60 ADD MLOAD DUP5 PUSH1 0x80 ADD MLOAD DUP6 PUSH1 0xC0 ADD MLOAD SWAP7 POP SWAP7 POP SWAP7 POP SWAP7 POP SWAP7 POP SWAP7 POP POP SWAP1 SWAP2 SWAP3 SWAP4 SWAP5 SWAP6 JUMP JUMPDEST PUSH1 0x0 DUP1 PUSH1 0x0 CALLER PUSH20 0xFFFFFFFFFFFFFFFFFFFFFFFFFFFFFFFFFFFFFFFF AND PUSH20 0xFFFFFFFFFFFFFFFFFFFFFFFFFFFFFFFFFFFFFFFF AND DUP2 MSTORE PUSH1 0x20 ADD SWAP1 DUP2 MSTORE PUSH1 0x20 ADD PUSH1 0x0 KECCAK256 SWAP1 POP DUP1 PUSH1 0x3 ADD PUSH1 0x0 SWAP1 SLOAD SWAP1 PUSH2 0x100 EXP SWAP1 DIV PUSH1 0xFF AND PUSH2 0x432 JUMPI PUSH1 0x40 MLOAD PUSH32 0x5DBAEFB700000000000000000000000000000000000000000000000000000000 DUP2 MSTORE PUSH1 0x4 ADD PUSH1 0x40 MLOAD DUP1 SWAP2 SUB SWAP1 REVERT JUMPDEST PUSH2 0xE10 DUP2 PUSH1 0x2 ADD SLOAD TIMESTAMP PUSH2 0x445 SWAP2 SWAP1 PUSH2 0xF7A JUMP JUMPDEST LT ISZERO PUSH2 0x47D JUMPI PUSH1 0x40 MLOAD PUSH32 0xF95998E700000000000000000000000000000000000000000000000000000000 DUP2 MSTORE PUSH1 0x4 ADD PUSH1 0x40 MLOAD DUP1 SWAP2 SUB SWAP1 REVERT JUMPDEST PUSH1 0xA DUP2 PUSH1 0x1 ADD PUSH1 0x0 SWAP1 SLOAD SWAP1 PUSH2 0x100 EXP SWAP1 DIV PUSH1 0xFF AND PUSH1 0xFF AND LT PUSH2 0x4D7 JUMPI PUSH1 0xA DUP2 PUSH1 0x1 ADD PUSH1 0x0 DUP3 DUP3 DUP3 SWAP1 SLOAD SWAP1 PUSH2 0x100 EXP SWAP1 DIV PUSH1 0xFF AND PUSH2 0x4BA SWAP2 SWAP1 PUSH2 0xFAE JUMP JUMPDEST SWAP3 POP PUSH2 0x100 EXP DUP2 SLOAD DUP2 PUSH1 0xFF MUL NOT AND SWAP1 DUP4 PUSH1 0xFF AND MUL OR SWAP1 SSTORE POP PUSH2 0x4F6 JUMP JUMPDEST PUSH1 0x0 DUP2 PUSH1 0x1 ADD PUSH1 0x0 PUSH2 0x100 EXP DUP2 SLOAD DUP2 PUSH1 0xFF MUL NOT AND SWAP1 DUP4 PUSH1 0xFF AND MUL OR SWAP1 SSTORE POP JUMPDEST PUSH1 0xA DUP2 PUSH1 0x1 ADD PUSH1 0x2 DUP3 DUP3 DUP3 SWAP1 SLOAD SWAP1 PUSH2 0x100 EXP SWAP1 DIV PUSH2 0xFFFF AND PUSH2 0x518 SWAP2 SWAP1 PUSH2 0xFE3 JUMP JUMPDEST SWAP3 POP PUSH2 0x100 EXP DUP2 SLOAD DUP2 PUSH2 0xFFFF MUL NOT AND SWAP1 DUP4 PUSH2 0xFFFF AND MUL OR SWAP1 SSTORE POP PUSH1 0x64 DUP2 PUSH1 0x1 ADD PUSH1 0x4 SWAP1 SLOAD SWAP1 PUSH2 0x100 EXP SWAP1 DIV PUSH1 0xFF AND PUSH2 0x550 SWAP2 SWAP1 PUSH2 0x1019 JUMP JUMPDEST PUSH1 0xFF AND DUP2 PUSH1 0x1 ADD PUSH1 0x2 SWAP1 SLOAD SWAP1 PUSH2 0x100 EXP SWAP1 DIV PUSH2 0xFFFF AND PUSH2 0xFFFF AND LT PUSH2 0x669 JUMPI DUP1 PUSH1 0x1 ADD PUSH1 0x4 DUP2 DUP2 SWAP1 SLOAD SWAP1 PUSH2 0x100 EXP SWAP1 DIV PUSH1 0xFF AND DUP1 SWAP3 SWAP2 SWAP1 PUSH2 0x590 SWAP1 PUSH2 0x1056 JUMP JUMPDEST SWAP2 SWAP1 PUSH2 0x100 EXP DUP2 SLOAD DUP2 PUSH1 0xFF MUL NOT AND SWAP1 DUP4 PUSH1 0xFF AND MUL OR SWAP1 SSTORE POP POP PUSH1 0xA DUP2 PUSH1 0x1 ADD PUSH1 0x1 DUP3 DUP3 DUP3 SWAP1 SLOAD SWAP1 PUSH2 0x100 EXP SWAP1 DIV PUSH1 0xFF AND PUSH2 0x5CA SWAP2 SWAP1 PUSH2 0x107F JUMP JUMPDEST SWAP3 POP PUSH2 0x100 EXP DUP2 SLOAD DUP2 PUSH1 0xFF MUL NOT AND SWAP1 DUP4 PUSH1 0xFF AND MUL OR SWAP1 SSTORE POP PUSH1 0x64 DUP2 PUSH1 0x1 ADD PUSH1 0x1 SWAP1 SLOAD SWAP1 PUSH2 0x100 EXP SWAP1 DIV PUSH1 0xFF AND PUSH1 0xFF AND GT ISZERO PUSH2 0x61E JUMPI PUSH1 0x64 DUP2 PUSH1 0x1 ADD PUSH1 0x1 PUSH2 0x100 EXP DUP2 SLOAD DUP2 PUSH1 0xFF MUL NOT AND SWAP1 DUP4 PUSH1 0xFF AND MUL OR SWAP1 SSTORE POP JUMPDEST PUSH32 0x95C4D5633EA0FC1354B860FE62E117356B617EC5BC5D49B9851E5CFE9D2753B2 CALLER DUP3 PUSH1 0x1 ADD PUSH1 0x4 SWAP1 SLOAD SWAP1 PUSH2 0x100 EXP SWAP1 DIV PUSH1 0xFF AND PUSH1 0x40 MLOAD PUSH2 0x660 SWAP3 SWAP2 SWAP1 PUSH2 0x10C3 JUMP JUMPDEST PUSH1 0x40 MLOAD DUP1 SWAP2 SUB SWAP1 LOG1 JUMPDEST TIMESTAMP DUP2 PUSH1 0x2 ADD DUP2 SWAP1 SSTORE POP PUSH32 0x16F96E6E626315DD7C6FF834ADDE15ED7BA6FBF5843506C5AE3A23195E8F0066 CALLER DUP3 PUSH1 0x1 ADD PUSH1 0x0 SWAP1 SLOAD SWAP1 PUSH2 0x100 EXP SWAP1 DIV PUSH1 0xFF AND PUSH1 0x40 MLOAD PUSH2 0x6B4 SWAP3 SWAP2 SWAP1 PUSH2 0x10C3 JUMP JUMPDEST PUSH1 0x40 MLOAD DUP1 SWAP2 SUB SWAP1 LOG1 POP JUMP JUMPDEST PUSH1 0x0 DUP1 PUSH1 0x0 CALLER PUSH20 0xFFFFFFFFFFFFFFFFFFFFFFFFFFFFFFFFFFFFFFFF AND PUSH20 0xFFFFFFFFFFFFFFFFFFFFFFFFFFFFFFFFFFFFFFFF AND DUP2 MSTORE PUSH1 0x20 ADD SWAP1 DUP2 MSTORE PUSH1 0x20 ADD PUSH1 0x0 KECCAK256 SWAP1 POP DUP1 PUSH1 0x3 ADD PUSH1 0x0 SWAP1 SLOAD SWAP1 PUSH2 0x100 EXP SWAP1 DIV PUSH1 0xFF AND PUSH2 0x749 JUMPI PUSH1 0x40 MLOAD PUSH32 0xDA43D7F400000000000000000000000000000000000000000000000000000000 DUP2 MSTORE PUSH1 0x4 ADD PUSH1 0x40 MLOAD DUP1 SWAP2 SUB SWAP1 REVERT JUMPDEST PUSH3 0x3F480 DUP2 PUSH1 0x2 ADD SLOAD TIMESTAMP PUSH2 0x75D SWAP2 SWAP1 PUSH2 0xF7A JUMP JUMPDEST GT ISZERO PUSH2 0x7BD JUMPI PUSH1 0x0 DUP2 PUSH1 0x3 ADD PUSH1 0x0 PUSH2 0x100 EXP DUP2 SLOAD DUP2 PUSH1 0xFF MUL NOT AND SWAP1 DUP4 ISZERO ISZERO MUL OR SWAP1 SSTORE POP PUSH32 0xE9C07B99ABCEBF283E1BA71A30E67021390736982EF6EE03FFDD7AC4364D9285 CALLER DUP3 PUSH1 0x0 ADD PUSH1 0x40 MLOAD PUSH2 0x7B4 SWAP3 SWAP2 SWAP1 PUSH2 0x1185 JUMP JUMPDEST PUSH1 0x40 MLOAD DUP1 SWAP2 SUB SWAP1 LOG1 JUMPDEST PUSH1 0x0 PUSH2 0xE10 DUP3 PUSH1 0x2 ADD SLOAD TIMESTAMP PUSH2 0x7D2 SWAP2 SWAP1 PUSH2 0xF7A JUMP JUMPDEST PUSH2 0x7DC SWAP2 SWAP1 PUSH2 0x11E4 JUMP JUMPDEST SWAP1 POP PUSH1 0x0 DUP2 GT ISZERO PUSH2 0x8DF JUMPI PUSH1 0x2 DUP2 PUSH2 0x7F4 SWAP2 SWAP1 PUSH2 0x1215 JUMP JUMPDEST DUP3 PUSH1 0x1 ADD PUSH1 0x0 DUP3 DUP3 DUP3 SWAP1 SLOAD SWAP1 PUSH2 0x100 EXP SWAP1 DIV PUSH1 0xFF AND PUSH2 0x813 SWAP2 SWAP1 PUSH2 0x107F JUMP JUMPDEST SWAP3 POP PUSH2 0x100 EXP DUP2 SLOAD DUP2 PUSH1 0xFF MUL NOT AND SWAP1 DUP4 PUSH1 0xFF AND MUL OR SWAP1 SSTORE POP PUSH1 0x64 DUP3 PUSH1 0x1 ADD PUSH1 0x0 SWAP1 SLOAD SWAP1 PUSH2 0x100 EXP SWAP1 DIV PUSH1 0xFF AND PUSH1 0xFF AND GT ISZERO PUSH2 0x867 JUMPI PUSH1 0x64 DUP3 PUSH1 0x1 ADD PUSH1 0x0 PUSH2 0x100 EXP DUP2 SLOAD DUP2 PUSH1 0xFF MUL NOT AND SWAP1 DUP4 PUSH1 0xFF AND MUL OR SWAP1 SSTORE POP JUMPDEST PUSH1 0x46 DUP3 PUSH1 0x1 ADD PUSH1 0x0 SWAP1 SLOAD SWAP1 PUSH2 0x100 EXP SWAP1 DIV PUSH1 0xFF AND PUSH1 0xFF AND GT DUP1 ISZERO PUSH2 0x89F JUMPI POP PUSH1 0x0 DUP3 PUSH1 0x1 ADD PUSH1 0x1 SWAP1 SLOAD SWAP1 PUSH2 0x100 EXP SWAP1 DIV PUSH1 0xFF AND PUSH1 0xFF AND GT JUMPDEST ISZERO PUSH2 0x8DE JUMPI PUSH1 0x5 DUP3 PUSH1 0x1 ADD PUSH1 0x1 DUP3 DUP3 DUP3 SWAP1 SLOAD SWAP1 PUSH2 0x100 EXP SWAP1 DIV PUSH1 0xFF AND PUSH2 0x8C5 SWAP2 SWAP1 PUSH2 0xFAE JUMP JUMPDEST SWAP3 POP PUSH2 0x100 EXP DUP2 SLOAD DUP2 PUSH1 0xFF MUL NOT AND SWAP1 DUP4 PUSH1 0xFF AND MUL OR SWAP1 SSTORE POP JUMPDEST JUMPDEST POP POP JUMP JUMPDEST PUSH1 0x0 DUP1 CALLER PUSH20 0xFFFFFFFFFFFFFFFFFFFFFFFFFFFFFFFFFFFFFFFF AND PUSH20 0xFFFFFFFFFFFFFFFFFFFFFFFFFFFFFFFFFFFFFFFF AND DUP2 MSTORE PUSH1 0x20 ADD SWAP1 DUP2 MSTORE PUSH1 0x20 ADD PUSH1 0x0 KECCAK256 PUSH1 0x3 ADD PUSH1 0x0 SWAP1 SLOAD SWAP1 PUSH2 0x100 EXP SWAP1 DIV PUSH1 0xFF AND ISZERO PUSH2 0x969 JUMPI PUSH1 0x40 MLOAD PUSH32 0xD4E8788500000000000000000000000000000000000000000000000000000000 DUP2 MSTORE PUSH1 0x4 ADD PUSH1 0x40 MLOAD DUP1 SWAP2 SUB SWAP1 REVERT JUMPDEST PUSH1 0x40 MLOAD DUP1 PUSH1 0xE0 ADD PUSH1 0x40 MSTORE DUP1 DUP3 DUP2 MSTORE PUSH1 0x20 ADD PUSH1 0x32 PUSH1 0xFF AND DUP2 MSTORE PUSH1 0x20 ADD PUSH1 0x64 PUSH1 0xFF AND DUP2 MSTORE PUSH1 0x20 ADD PUSH1 0x0 PUSH2 0xFFFF AND DUP2 MSTORE PUSH1 0x20 ADD PUSH1 0x1 PUSH1 0xFF AND DUP2 MSTORE PUSH1 0x20 ADD TIMESTAMP DUP2 MSTORE PUSH1 0x20 ADD PUSH1 0x1 ISZERO ISZERO DUP2 MSTORE POP PUSH1 0x0 DUP1 CALLER PUSH20 0xFFFFFFFFFFFFFFFFFFFFFFFFFFFFFFFFFFFFFFFF AND PUSH20 0xFFFFFFFFFFFFFFFFFFFFFFFFFFFFFFFFFFFFFFFF AND DUP2 MSTORE PUSH1 0x20 ADD SWAP1 DUP2 MSTORE PUSH1 0x20 ADD PUSH1 0x0 KECCAK256 PUSH1 0x0 DUP3 ADD MLOAD DUP2 PUSH1 0x0 ADD SWAP1 DUP2 PUSH2 0xA03 SWAP2 SWAP1 PUSH2 0x13EE JUMP JUMPDEST POP PUSH1 0x20 DUP3 ADD MLOAD DUP2 PUSH1 0x1 ADD PUSH1 0x0 PUSH2 0x100 EXP DUP2 SLOAD DUP2 PUSH1 0xFF MUL NOT AND SWAP1 DUP4 PUSH1 0xFF AND MUL OR SWAP1 SSTORE POP PUSH1 0x40 DUP3 ADD MLOAD DUP2 PUSH1 0x1 ADD PUSH1 0x1 PUSH2 0x100 EXP DUP2 SLOAD DUP2 PUSH1 0xFF MUL NOT AND SWAP1 DUP4 PUSH1 0xFF AND MUL OR SWAP1 SSTORE POP PUSH1 0x60 DUP3 ADD MLOAD DUP2 PUSH1 0x1 ADD PUSH1 0x2 PUSH2 0x100 EXP DUP2 SLOAD DUP2 PUSH2 0xFFFF MUL NOT AND SWAP1 DUP4 PUSH2 0xFFFF AND MUL OR SWAP1 SSTORE POP PUSH1 0x80 DUP3 ADD MLOAD DUP2 PUSH1 0x1 ADD PUSH1 0x4 PUSH2 0x100 EXP DUP2 SLOAD DUP2 PUSH1 0xFF MUL NOT AND SWAP1 DUP4 PUSH1 0xFF AND MUL OR SWAP1 SSTORE POP PUSH1 0xA0 DUP3 ADD MLOAD DUP2 PUSH1 0x2 ADD SSTORE PUSH1 0xC0 DUP3 ADD MLOAD DUP2 PUSH1 0x3 ADD PUSH1 0x0 PUSH2 0x100 EXP DUP2 SLOAD DUP2 PUSH1 0xFF MUL NOT AND SWAP1 DUP4 ISZERO ISZERO MUL OR SWAP1 SSTORE POP SWAP1 POP POP PUSH32 0x243720DEFC8F10ED8FFFC2851C459E1E21C1895299B80B2F6B8227B51CD8A17B CALLER DUP3 PUSH1 0x40 MLOAD PUSH2 0xAE8 SWAP3 SWAP2 SWAP1 PUSH2 0x14C0 JUMP JUMPDEST PUSH1 0x40 MLOAD DUP1 SWAP2 SUB SWAP1 LOG1 POP JUMP JUMPDEST PUSH1 0x0 PUSH1 0x40 MLOAD SWAP1 POP SWAP1 JUMP JUMPDEST PUSH1 0x0 DUP1 REVERT JUMPDEST PUSH1 0x0 DUP1 REVERT JUMPDEST PUSH1 0x0 PUSH20 0xFFFFFFFFFFFFFFFFFFFFFFFFFFFFFFFFFFFFFFFF DUP3 AND SWAP1 POP SWAP2 SWAP1 POP JUMP JUMPDEST PUSH1 0x0 PUSH2 0xB32 DUP3 PUSH2 0xB07 JUMP JUMPDEST SWAP1 POP SWAP2 SWAP1 POP JUMP JUMPDEST PUSH2 0xB42 DUP2 PUSH2 0xB27 JUMP JUMPDEST DUP2 EQ PUSH2 0xB4D JUMPI PUSH1 0x0 DUP1 REVERT JUMPDEST POP JUMP JUMPDEST PUSH1 0x0 DUP2 CALLDATALOAD SWAP1 POP PUSH2 0xB5F DUP2 PUSH2 0xB39 JUMP JUMPDEST SWAP3 SWAP2 POP POP JUMP JUMPDEST PUSH1 0x0 PUSH1 0x20 DUP3 DUP5 SUB SLT ISZERO PUSH2 0xB7B JUMPI PUSH2 0xB7A PUSH2 0xAFD JUMP JUMPDEST JUMPDEST PUSH1 0x0 PUSH2 0xB89 DUP5 DUP3 DUP6 ADD PUSH2 0xB50 JUMP JUMPDEST SWAP2 POP POP SWAP3 SWAP2 POP POP JUMP JUMPDEST PUSH1 0x0 DUP2 MLOAD SWAP1 POP SWAP2 SWAP1 POP JUMP JUMPDEST PUSH1 0x0 DUP3 DUP3 MSTORE PUSH1 0x20 DUP3 ADD SWAP1 POP SWAP3 SWAP2 POP POP JUMP JUMPDEST PUSH1 0x0 JUMPDEST DUP4 DUP2 LT ISZERO PUSH2 0xBCC JUMPI DUP1 DUP3 ADD MLOAD DUP2 DUP5 ADD MSTORE PUSH1 0x20 DUP2 ADD SWAP1 POP PUSH2 0xBB1 JUMP JUMPDEST PUSH1 0x0 DUP5 DUP5 ADD MSTORE POP POP POP POP JUMP JUMPDEST PUSH1 0x0 PUSH1 0x1F NOT PUSH1 0x1F DUP4 ADD AND SWAP1 POP SWAP2 SWAP1 POP JUMP JUMPDEST PUSH1 0x0 PUSH2 0xBF4 DUP3 PUSH2 0xB92 JUMP JUMPDEST PUSH2 0xBFE DUP2 DUP6 PUSH2 0xB9D JUMP JUMPDEST SWAP4 POP PUSH2 0xC0E DUP2 DUP6 PUSH1 0x20 DUP7 ADD PUSH2 0xBAE JUMP JUMPDEST PUSH2 0xC17 DUP2 PUSH2 0xBD8 JUMP JUMPDEST DUP5 ADD SWAP2 POP POP SWAP3 SWAP2 POP POP JUMP JUMPDEST PUSH1 0x0 PUSH1 0xFF DUP3 AND SWAP1 POP SWAP2 SWAP1 POP JUMP JUMPDEST PUSH2 0xC38 DUP2 PUSH2 0xC22 JUMP JUMPDEST DUP3 MSTORE POP POP JUMP JUMPDEST PUSH1 0x0 PUSH2 0xFFFF DUP3 AND SWAP1 POP SWAP2 SWAP1 POP JUMP JUMPDEST PUSH2 0xC55 DUP2 PUSH2 0xC3E JUMP JUMPDEST DUP3 MSTORE POP POP JUMP JUMPDEST PUSH1 0x0 DUP2 SWAP1 POP SWAP2 SWAP1 POP JUMP JUMPDEST PUSH2 0xC6E DUP2 PUSH2 0xC5B JUMP JUMPDEST DUP3 MSTORE POP POP JUMP JUMPDEST PUSH1 0x0 DUP2 ISZERO ISZERO SWAP1 POP SWAP2 SWAP1 POP JUMP JUMPDEST PUSH2 0xC89 DUP2 PUSH2 0xC74 JUMP JUMPDEST DUP3 MSTORE POP POP JUMP JUMPDEST PUSH1 0x0 PUSH1 0xE0 DUP3 ADD SWAP1 POP DUP2 DUP2 SUB PUSH1 0x0 DUP4 ADD MSTORE PUSH2 0xCA9 DUP2 DUP11 PUSH2 0xBE9 JUMP JUMPDEST SWAP1 POP PUSH2 0xCB8 PUSH1 0x20 DUP4 ADD DUP10 PUSH2 0xC2F JUMP JUMPDEST PUSH2 0xCC5 PUSH1 0x40 DUP4 ADD DUP9 PUSH2 0xC2F JUMP JUMPDEST PUSH2 0xCD2 PUSH1 0x60 DUP4 ADD DUP8 PUSH2 0xC4C JUMP JUMPDEST PUSH2 0xCDF PUSH1 0x80 DUP4 ADD DUP7 PUSH2 0xC2F JUMP JUMPDEST PUSH2 0xCEC PUSH1 0xA0 DUP4 ADD DUP6 PUSH2 0xC65 JUMP JUMPDEST PUSH2 0xCF9 PUSH1 0xC0 DUP4 ADD DUP5 PUSH2 0xC80 JUMP JUMPDEST SWAP9 SWAP8 POP POP POP POP POP POP POP POP JUMP JUMPDEST PUSH1 0x0 PUSH1 0xC0 DUP3 ADD SWAP1 POP DUP2 DUP2 SUB PUSH1 0x0 DUP4 ADD MSTORE PUSH2 0xD1F DUP2 DUP10 PUSH2 0xBE9 JUMP JUMPDEST SWAP1 POP PUSH2 0xD2E PUSH1 0x20 DUP4 ADD DUP9 PUSH2 0xC2F JUMP JUMPDEST PUSH2 0xD3B PUSH1 0x40 DUP4 ADD DUP8 PUSH2 0xC2F JUMP JUMPDEST PUSH2 0xD48 PUSH1 0x60 DUP4 ADD DUP7 PUSH2 0xC4C JUMP JUMPDEST PUSH2 0xD55 PUSH1 0x80 DUP4 ADD DUP6 PUSH2 0xC2F JUMP JUMPDEST PUSH2 0xD62 PUSH1 0xA0 DUP4 ADD DUP5 PUSH2 0xC80 JUMP JUMPDEST SWAP8 SWAP7 POP POP POP POP POP POP POP JUMP JUMPDEST PUSH1 0x0 DUP1 REVERT JUMPDEST PUSH1 0x0 DUP1 REVERT JUMPDEST PUSH32 0x4E487B7100000000000000000000000000000000000000000000000000000000 PUSH1 0x0 MSTORE PUSH1 0x41 PUSH1 0x4 MSTORE PUSH1 0x24 PUSH1 0x0 REVERT JUMPDEST PUSH2 0xDAF DUP3 PUSH2 0xBD8 JUMP JUMPDEST DUP2 ADD DUP2 DUP2 LT PUSH8 0xFFFFFFFFFFFFFFFF DUP3 GT OR ISZERO PUSH2 0xDCE JUMPI PUSH2 0xDCD PUSH2 0xD77 JUMP JUMPDEST JUMPDEST DUP1 PUSH1 0x40 MSTORE POP POP POP JUMP JUMPDEST PUSH1 0x0 PUSH2 0xDE1 PUSH2 0xAF3 JUMP JUMPDEST SWAP1 POP PUSH2 0xDED DUP3 DUP3 PUSH2 0xDA6 JUMP JUMPDEST SWAP2 SWAP1 POP JUMP JUMPDEST PUSH1 0x0 PUSH8 0xFFFFFFFFFFFFFFFF DUP3 GT ISZERO PUSH2 0xE0D JUMPI PUSH2 0xE0C PUSH2 0xD77 JUMP JUMPDEST JUMPDEST PUSH2 0xE16 DUP3 PUSH2 0xBD8 JUMP JUMPDEST SWAP1 POP PUSH1 0x20 DUP2 ADD SWAP1 POP SWAP2 SWAP1 POP JUMP JUMPDEST DUP3 DUP2 DUP4 CALLDATACOPY PUSH1 0x0 DUP4 DUP4 ADD MSTORE POP POP POP JUMP JUMPDEST PUSH1 0x0 PUSH2 0xE45 PUSH2 0xE40 DUP5 PUSH2 0xDF2 JUMP JUMPDEST PUSH2 0xDD7 JUMP JUMPDEST SWAP1 POP DUP3 DUP2 MSTORE PUSH1 0x20 DUP2 ADD DUP5 DUP5 DUP5 ADD GT ISZERO PUSH2 0xE61 JUMPI PUSH2 0xE60 PUSH2 0xD72 JUMP JUMPDEST JUMPDEST PUSH2 0xE6C DUP5 DUP3 DUP6 PUSH2 0xE23 JUMP JUMPDEST POP SWAP4 SWAP3 POP POP POP JUMP JUMPDEST PUSH1 0x0 DUP3 PUSH1 0x1F DUP4 ADD SLT PUSH2 0xE89 JUMPI PUSH2 0xE88 PUSH2 0xD6D JUMP JUMPDEST JUMPDEST DUP2 CALLDATALOAD PUSH2 0xE99 DUP5 DUP3 PUSH1 0x20 DUP7 ADD PUSH2 0xE32 JUMP JUMPDEST SWAP2 POP POP SWAP3 SWAP2 POP POP JUMP JUMPDEST PUSH1 0x0 PUSH1 0x20 DUP3 DUP5 SUB SLT ISZERO PUSH2 0xEB8 JUMPI PUSH2 0xEB7 PUSH2 0xAFD JUMP JUMPDEST JUMPDEST PUSH1 0x0 DUP3 ADD CALLDATALOAD PUSH8 0xFFFFFFFFFFFFFFFF DUP2 GT ISZERO PUSH2 0xED6 JUMPI PUSH2 0xED5 PUSH2 0xB02 JUMP JUMPDEST JUMPDEST PUSH2 0xEE2 DUP5 DUP3 DUP6 ADD PUSH2 0xE74 JUMP JUMPDEST SWAP2 POP POP SWAP3 SWAP2 POP POP JUMP JUMPDEST PUSH32 0x4E487B7100000000000000000000000000000000000000000000000000000000 PUSH1 0x0 MSTORE PUSH1 0x22 PUSH1 0x4 MSTORE PUSH1 0x24 PUSH1 0x0 REVERT JUMPDEST PUSH1 0x0 PUSH1 0x2 DUP3 DIV SWAP1 POP PUSH1 0x1 DUP3 AND DUP1 PUSH2 0xF32 JUMPI PUSH1 0x7F DUP3 AND SWAP2 POP JUMPDEST PUSH1 0x20 DUP3 LT DUP2 SUB PUSH2 0xF45 JUMPI PUSH2 0xF44 PUSH2 0xEEB JUMP JUMPDEST JUMPDEST POP SWAP2 SWAP1 POP JUMP JUMPDEST PUSH32 0x4E487B7100000000000000000000000000000000000000000000000000000000 PUSH1 0x0 MSTORE PUSH1 0x11 PUSH1 0x4 MSTORE PUSH1 0x24 PUSH1 0x0 REVERT JUMPDEST PUSH1 0x0 PUSH2 0xF85 DUP3 PUSH2 0xC5B JUMP JUMPDEST SWAP2 POP PUSH2 0xF90 DUP4 PUSH2 0xC5B JUMP JUMPDEST SWAP3 POP DUP3 DUP3 SUB SWAP1 POP DUP2 DUP2 GT ISZERO PUSH2 0xFA8 JUMPI PUSH2 0xFA7 PUSH2 0xF4B JUMP JUMPDEST JUMPDEST SWAP3 SWAP2 POP POP JUMP JUMPDEST PUSH1 0x0 PUSH2 0xFB9 DUP3 PUSH2 0xC22 JUMP JUMPDEST SWAP2 POP PUSH2 0xFC4 DUP4 PUSH2 0xC22 JUMP JUMPDEST SWAP3 POP DUP3 DUP3 SUB SWAP1 POP PUSH1 0xFF DUP2 GT ISZERO PUSH2 0xFDD JUMPI PUSH2 0xFDC PUSH2 0xF4B JUMP JUMPDEST JUMPDEST SWAP3 SWAP2 POP POP JUMP JUMPDEST PUSH1 0x0 PUSH2 0xFEE DUP3 PUSH2 0xC3E JUMP JUMPDEST SWAP2 POP PUSH2 0xFF9 DUP4 PUSH2 0xC3E JUMP JUMPDEST SWAP3 POP DUP3 DUP3 ADD SWAP1 POP PUSH2 0xFFFF DUP2 GT ISZERO PUSH2 0x1013 JUMPI PUSH2 0x1012 PUSH2 0xF4B JUMP JUMPDEST JUMPDEST SWAP3 SWAP2 POP POP JUMP JUMPDEST PUSH1 0x0 PUSH2 0x1024 DUP3 PUSH2 0xC22 JUMP JUMPDEST SWAP2 POP PUSH2 0x102F DUP4 PUSH2 0xC22 JUMP JUMPDEST SWAP3 POP DUP3 DUP3 MUL PUSH2 0x103D DUP2 PUSH2 0xC22 JUMP JUMPDEST SWAP2 POP DUP1 DUP3 EQ PUSH2 0x104F JUMPI PUSH2 0x104E PUSH2 0xF4B JUMP JUMPDEST JUMPDEST POP SWAP3 SWAP2 POP POP JUMP JUMPDEST PUSH1 0x0 PUSH2 0x1061 DUP3 PUSH2 0xC22 JUMP JUMPDEST SWAP2 POP PUSH1 0xFF DUP3 SUB PUSH2 0x1074 JUMPI PUSH2 0x1073 PUSH2 0xF4B JUMP JUMPDEST JUMPDEST PUSH1 0x1 DUP3 ADD SWAP1 POP SWAP2 SWAP1 POP JUMP JUMPDEST PUSH1 0x0 PUSH2 0x108A DUP3 PUSH2 0xC22 JUMP JUMPDEST SWAP2 POP PUSH2 0x1095 DUP4 PUSH2 0xC22 JUMP JUMPDEST SWAP3 POP DUP3 DUP3 ADD SWAP1 POP PUSH1 0xFF DUP2 GT ISZERO PUSH2 0x10AE JUMPI PUSH2 0x10AD PUSH2 0xF4B JUMP JUMPDEST JUMPDEST SWAP3 SWAP2 POP POP JUMP JUMPDEST PUSH2 0x10BD DUP2 PUSH2 0xB27 JUMP JUMPDEST DUP3 MSTORE POP POP JUMP JUMPDEST PUSH1 0x0 PUSH1 0x40 DUP3 ADD SWAP1 POP PUSH2 0x10D8 PUSH1 0x0 DUP4 ADD DUP6 PUSH2 0x10B4 JUMP JUMPDEST PUSH2 0x10E5 PUSH1 0x20 DUP4 ADD DUP5 PUSH2 0xC2F JUMP JUMPDEST SWAP4 SWAP3 POP POP POP JUMP JUMPDEST PUSH1 0x0 DUP2 SWAP1 POP DUP2 PUSH1 0x0 MSTORE PUSH1 0x20 PUSH1 0x0 KECCAK256 SWAP1 POP SWAP2 SWAP1 POP JUMP JUMPDEST PUSH1 0x0 DUP2 SLOAD PUSH2 0x110E DUP2 PUSH2 0xF1A JUMP JUMPDEST PUSH2 0x1118 DUP2 DUP7 PUSH2 0xB9D JUMP JUMPDEST SWAP5 POP PUSH1 0x1 DUP3 AND PUSH1 0x0 DUP2 EQ PUSH2 0x1133 JUMPI PUSH1 0x1 DUP2 EQ PUSH2 0x1149 JUMPI PUSH2 0x117C JUMP JUMPDEST PUSH1 0xFF NOT DUP4 AND DUP7 MSTORE DUP2 ISZERO ISZERO PUSH1 0x20 MUL DUP7 ADD SWAP4 POP PUSH2 0x117C JUMP JUMPDEST PUSH2 0x1152 DUP6 PUSH2 0x10EC JUMP JUMPDEST PUSH1 0x0 JUMPDEST DUP4 DUP2 LT ISZERO PUSH2 0x1174 JUMPI DUP2 SLOAD DUP2 DUP10 ADD MSTORE PUSH1 0x1 DUP3 ADD SWAP2 POP PUSH1 0x20 DUP2 ADD SWAP1 POP PUSH2 0x1155 JUMP JUMPDEST DUP1 DUP9 ADD SWAP6 POP POP POP JUMPDEST POP POP POP SWAP3 SWAP2 POP POP JUMP JUMPDEST PUSH1 0x0 PUSH1 0x40 DUP3 ADD SWAP1 POP PUSH2 0x119A PUSH1 0x0 DUP4 ADD DUP6 PUSH2 0x10B4 JUMP JUMPDEST DUP2 DUP2 SUB PUSH1 0x20 DUP4 ADD MSTORE PUSH2 0x11AC DUP2 DUP5 PUSH2 0x1101 JUMP JUMPDEST SWAP1 POP SWAP4 SWAP3 POP POP POP JUMP JUMPDEST PUSH32 0x4E487B7100000000000000000000000000000000000000000000000000000000 PUSH1 0x0 MSTORE PUSH1 0x12 PUSH1 0x4 MSTORE PUSH1 0x24 PUSH1 0x0 REVERT JUMPDEST PUSH1 0x0 PUSH2 0x11EF DUP3 PUSH2 0xC5B JUMP JUMPDEST SWAP2 POP PUSH2 0x11FA DUP4 PUSH2 0xC5B JUMP JUMPDEST SWAP3 POP DUP3 PUSH2 0x120A JUMPI PUSH2 0x1209 PUSH2 0x11B5 JUMP JUMPDEST JUMPDEST DUP3 DUP3 DIV SWAP1 POP SWAP3 SWAP2 POP POP JUMP JUMPDEST PUSH1 0x0 PUSH2 0x1220 DUP3 PUSH2 0xC5B JUMP JUMPDEST SWAP2 POP PUSH2 0x122B DUP4 PUSH2 0xC5B JUMP JUMPDEST SWAP3 POP DUP3 DUP3 MUL PUSH2 0x1239 DUP2 PUSH2 0xC5B JUMP JUMPDEST SWAP2 POP DUP3 DUP3 DIV DUP5 EQ DUP4 ISZERO OR PUSH2 0x1250 JUMPI PUSH2 0x124F PUSH2 0xF4B JUMP JUMPDEST JUMPDEST POP SWAP3 SWAP2 POP POP JUMP JUMPDEST PUSH1 0x0 PUSH1 0x20 PUSH1 0x1F DUP4 ADD DIV SWAP1 POP SWAP2 SWAP1 POP JUMP JUMPDEST PUSH1 0x0 DUP3 DUP3 SHL SWAP1 POP SWAP3 SWAP2 POP POP JUMP JUMPDEST PUSH1 0x0 PUSH1 0x8 DUP4 MUL PUSH2 0x12A4 PUSH32 0xFFFFFFFFFFFFFFFFFFFFFFFFFFFFFFFFFFFFFFFFFFFFFFFFFFFFFFFFFFFFFFFF DUP3 PUSH2 0x1267 JUMP JUMPDEST PUSH2 0x12AE DUP7 DUP4 PUSH2 0x1267 JUMP JUMPDEST SWAP6 POP DUP1 NOT DUP5 AND SWAP4 POP DUP1 DUP7 AND DUP5 OR SWAP3 POP POP POP SWAP4 SWAP3 POP POP POP JUMP JUMPDEST PUSH1 0x0 DUP2 SWAP1 POP SWAP2 SWAP1 POP JUMP JUMPDEST PUSH1 0x0 PUSH2 0x12EB PUSH2 0x12E6 PUSH2 0x12E1 DUP5 PUSH2 0xC5B JUMP JUMPDEST PUSH2 0x12C6 JUMP JUMPDEST PUSH2 0xC5B JUMP JUMPDEST SWAP1 POP SWAP2 SWAP1 POP JUMP JUMPDEST PUSH1 0x0 DUP2 SWAP1 POP SWAP2 SWAP1 POP JUMP JUMPDEST PUSH2 0x1305 DUP4 PUSH2 0x12D0 JUMP JUMPDEST PUSH2 0x1319 PUSH2 0x1311 DUP3 PUSH2 0x12F2 JUMP JUMPDEST DUP5 DUP5 SLOAD PUSH2 0x1274 JUMP JUMPDEST DUP3 SSTORE POP POP POP POP JUMP JUMPDEST PUSH1 0x0 SWAP1 JUMP JUMPDEST PUSH2 0x132E PUSH2 0x1321 JUMP JUMPDEST PUSH2 0x1339 DUP2 DUP5 DUP5 PUSH2 0x12FC JUMP JUMPDEST POP POP POP JUMP JUMPDEST JUMPDEST DUP2 DUP2 LT ISZERO PUSH2 0x135D JUMPI PUSH2 0x1352 PUSH1 0x0 DUP3 PUSH2 0x1326 JUMP JUMPDEST PUSH1 0x1 DUP2 ADD SWAP1 POP PUSH2 0x133F JUMP JUMPDEST POP POP JUMP JUMPDEST PUSH1 0x1F DUP3 GT ISZERO PUSH2 0x13A2 JUMPI PUSH2 0x1373 DUP2 PUSH2 0x10EC JUMP JUMPDEST PUSH2 0x137C DUP5 PUSH2 0x1257 JUMP JUMPDEST DUP2 ADD PUSH1 0x20 DUP6 LT ISZERO PUSH2 0x138B JUMPI DUP2 SWAP1 POP JUMPDEST PUSH2 0x139F PUSH2 0x1397 DUP6 PUSH2 0x1257 JUMP JUMPDEST DUP4 ADD DUP3 PUSH2 0x133E JUMP JUMPDEST POP POP JUMPDEST POP POP POP JUMP JUMPDEST PUSH1 0x0 DUP3 DUP3 SHR SWAP1 POP SWAP3 SWAP2 POP POP JUMP JUMPDEST PUSH1 0x0 PUSH2 0x13C5 PUSH1 0x0 NOT DUP5 PUSH1 0x8 MUL PUSH2 0x13A7 JUMP JUMPDEST NOT DUP1 DUP4 AND SWAP2 POP POP SWAP3 SWAP2 POP POP JUMP JUMPDEST PUSH1 0x0 PUSH2 0x13DE DUP4 DUP4 PUSH2 0x13B4 JUMP JUMPDEST SWAP2 POP DUP3 PUSH1 0x2 MUL DUP3 OR SWAP1 POP SWAP3 SWAP2 POP POP JUMP JUMPDEST PUSH2 0x13F7 DUP3 PUSH2 0xB92 JUMP JUMPDEST PUSH8 0xFFFFFFFFFFFFFFFF DUP2 GT ISZERO PUSH2 0x1410 JUMPI PUSH2 0x140F PUSH2 0xD77 JUMP JUMPDEST JUMPDEST PUSH2 0x141A DUP3 SLOAD PUSH2 0xF1A JUMP JUMPDEST PUSH2 0x1425 DUP3 DUP3 DUP6 PUSH2 0x1361 JUMP JUMPDEST PUSH1 0x0 PUSH1 0x20 SWAP1 POP PUSH1 0x1F DUP4 GT PUSH1 0x1 DUP2 EQ PUSH2 0x1458 JUMPI PUSH1 0x0 DUP5 ISZERO PUSH2 0x1446 JUMPI DUP3 DUP8 ADD MLOAD SWAP1 POP JUMPDEST PUSH2 0x1450 DUP6 DUP3 PUSH2 0x13D2 JUMP JUMPDEST DUP7 SSTORE POP PUSH2 0x14B8 JUMP JUMPDEST PUSH1 0x1F NOT DUP5 AND PUSH2 0x1466 DUP7 PUSH2 0x10EC JUMP JUMPDEST PUSH1 0x0 JUMPDEST DUP3 DUP2 LT ISZERO PUSH2 0x148E JUMPI DUP5 DUP10 ADD MLOAD DUP3 SSTORE PUSH1 0x1 DUP3 ADD SWAP2 POP PUSH1 0x20 DUP6 ADD SWAP5 POP PUSH1 0x20 DUP2 ADD SWAP1 POP PUSH2 0x1469 JUMP JUMPDEST DUP7 DUP4 LT ISZERO PUSH2 0x14AB JUMPI DUP5 DUP10 ADD MLOAD PUSH2 0x14A7 PUSH1 0x1F DUP10 AND DUP3 PUSH2 0x13B4 JUMP JUMPDEST DUP4 SSTORE POP JUMPDEST PUSH1 0x1 PUSH1 0x2 DUP9 MUL ADD DUP9 SSTORE POP POP POP JUMPDEST POP POP POP POP POP POP JUMP JUMPDEST PUSH1 0x0 PUSH1 0x40 DUP3 ADD SWAP1 POP PUSH2 0x14D5 PUSH1 0x0 DUP4 ADD DUP6 PUSH2 0x10B4 JUMP JUMPDEST DUP2 DUP2 SUB PUSH1 0x20 DUP4 ADD MSTORE PUSH2 0x14E7 DUP2 DUP5 PUSH2 0xBE9 JUMP JUMPDEST SWAP1 POP SWAP4 SWAP3 POP POP POP JUMP INVALID LOG2 PUSH5 0x6970667358 0x22 SLT KECCAK256 0xD5 RETURNDATACOPY SWAP5 EXTCODECOPY CALLDATACOPY 0x5C 0xDC PUSH7 0x2613468FEB1D12 0x22 CALLDATALOAD 0xA9 0xD4 EXP 0xE9 LOG1 LOG0 PUSH22 0x6A933F2E955E254464736F6C63430008110033000000 "
				},
				"gasEstimates": {
					"creation": {
						"codeDepositCost": "1082800",
						"executionCost": "1127",
						"totalCost": "1083927"
					},
					"external": {
						"checkPet()": "infinite",
						"createPet(string)": "infinite",
						"feedPet()": "infinite",
						"getPetInfo()": "infinite",
						"pets(address)": "infinite"
					}
				},
				"methodIdentifiers": {
					"checkPet()": "a2e42437",
					"createPet(string)": "d3816bac",
					"feedPet()": "77d6fc43",
					"getPetInfo()": "46cbfc3a",
					"pets(address)": "088f0fb9"
				}
			},
			"storageLayout": {
				"storage": [
					{
						"astId": 21,
						"contract": "contracts/virtual-pet.sol:VirtualPet",
						"label": "pets",
						"offset": 0,
						"slot": "0",
						"type": "t_mapping(t_address,t_struct(Pet)16_storage)"
					}
				],
				"types": {
					"t_address": {
						"encoding": "inplace",
						"label": "address",
						"numberOfBytes": "20"
					},
					"t_bool": {
						"encoding": "inplace",
						"label": "bool",
						"numberOfBytes": "1"
					},
					"t_mapping(t_address,t_struct(Pet)16_storage)": {
						"encoding": "mapping",
						"key": "t_address",
						"label": "mapping(address => struct VirtualPet.Pet)",
						"numberOfBytes": "32",
						"value": "t_struct(Pet)16_storage"
					},
					"t_string_storage": {
						"encoding": "bytes",
						"label": "string",
						"numberOfBytes": "32"
					},
					"t_struct(Pet)16_storage": {
						"encoding": "inplace",
						"label": "struct VirtualPet.Pet",
						"members": [
							{
								"astId": 3,
								"contract": "contracts/virtual-pet.sol:VirtualPet",
								"label": "name",
								"offset": 0,
								"slot": "0",
								"type": "t_string_storage"
							},
							{
								"astId": 5,
								"contract": "contracts/virtual-pet.sol:VirtualPet",
								"label": "hunger",
								"offset": 0,
								"slot": "1",
								"type": "t_uint8"
							},
							{
								"astId": 7,
								"contract": "contracts/virtual-pet.sol:VirtualPet",
								"label": "happiness",
								"offset": 1,
								"slot": "1",
								"type": "t_uint8"
							},
							{
								"astId": 9,
								"contract": "contracts/virtual-pet.sol:VirtualPet",
								"label": "experience",
								"offset": 2,
								"slot": "1",
								"type": "t_uint16"
							},
							{
								"astId": 11,
								"contract": "contracts/virtual-pet.sol:VirtualPet",
								"label": "level",
								"offset": 4,
								"slot": "1",
								"type": "t_uint8"
							},
							{
								"astId": 13,
								"contract": "contracts/virtual-pet.sol:VirtualPet",
								"label": "lastFed",
								"offset": 0,
								"slot": "2",
								"type": "t_uint256"
							},
							{
								"astId": 15,
								"contract": "contracts/virtual-pet.sol:VirtualPet",
								"label": "isAlive",
								"offset": 0,
								"slot": "3",
								"type": "t_bool"
							}
						],
						"numberOfBytes": "128"
					},
					"t_uint16": {
						"encoding": "inplace",
						"label": "uint16",
						"numberOfBytes": "2"
					},
					"t_uint256": {
						"encoding": "inplace",
						"label": "uint256",
						"numberOfBytes": "32"
					},
					"t_uint8": {
						"encoding": "inplace",
						"label": "uint8",
						"numberOfBytes": "1"
					}
				}
			},
			"userdoc": {
				"kind": "user",
				"methods": {},
				"version": 1
			}
		}
	}
}